:1080000018C7002041AA0000338401002DAA0000F7
:108010002DAA00002DAA00002DAA00002DAA000004
:10802000000000000000000000000000A5AB000000
:108030002DAA0000000000003DAB00002DAA0000AA
:108040003DAD00003DAD00003DAD00003DAD000088
:108050003DAD00003DAD00003DAD00003DAD000078
:108060003DAD00003DAD00003DAD00003DAD000068
:108070003DAD00003DAD00003DAD00003DAD000058
:108080003DAD00003DAD00003DAD00003DAD000048
:108090003DAD00003DAD00003DAD00003DAD000038
:1080A0003DAD00003DAD00003DAD00003DAD000028
:1080B0003DAD00003DAD00003DAD00003DAD000018
:1080C0003DAD00003DAD00003DAD00003DAD000008
:1080D0003DAD00003DAD00003DAD00003DAD0000F8
:1080E0003DAD00003DAD00003DAD00003DAD0000E8
:1080F0003DAD00003DAD00003DAD00003DAD0000D8
:108100003DAD00003DAD00003DAD00003DAD0000C7
:108110003DAD00003DAD00003DAD00003DAD0000B7
:108120003DAD00003DAD00003DAD00003DAD0000A7
:108130003DAD00003DAD00003DAD00003DAD000097
:108140003DAD00003DAD00003DAD00003DAD000087
:048150003DAD000041
:1081540053B94AB9002908BF00281CBF4FF0FF31AA
:108164004FF0FF3000F00CB8ADF1080C6DE904CE0F
:1081740000F022F8DDF804E0DDE9022304B07047E2
:10818400704700BF10F8012B11F8013B012A28BFEA
:108194009A42F7D0D01A7047034611F8012B03F81E
:1081A400012B002AF9D17047034613F8012B002A4A
:1081B400FBD1181A013870472DE9F04786468C46E2
:1081C4000846089E154674461946002B40F0C180A7
:1081D4008542B2FA82F245D94AB1C2F1200300FACB
:1081E40002FC954094402EFA03F343EA0C0C4FEA48
:1081F400154EA8B2230CBCFBFEF80EFB18CC08FBF2
:1082040000F943EA0C43994528D9EB1808F1FF37E4
:1082140004D2994502D9A8F102072B44A3EB090320
:10822400A4B2B3FBFEFC0EFB1C330CFB00F044EACF
:108234000344A04214D92C190CF1FF3304D2A042F8
:1082440002D9ACF102032C44241A43EA07401EB1BC
:10825400D440002334607360BDE8F0874746DDE70F
:108264006346F1E792BB431B01214FEA154EAFB2BF
:10827400200CB3FBFEFC0EFB1C330CFB07F840EA9E
:108284000343984561D9EB180CF1FF3004D29845AB
:1082940002D9ACF102002B44A3EB0803A4B2B3FB54
:1082A400FEFC0EFB1C330CFB07F744EA0344A74215
:1082B4004DD92C190CF1FF3304D2A74202D9ACF1E9
:1082C40002032C44E41B43EA0040C0E7C2F120034C
:1082D4009540944020FA03F12EFA03F34FEA154E29
:1082E4009040AFB20343B1FBFEFC0EFB1C10190C13
:1082F4000CFB07F841EA0041884522D969180CF1C2
:10830400FF3004D2884502D9ACF102002944A1EB24
:1083140008019BB2B1FBFEFC0EFB1C110CFB07F722
:1083240043EA01439F420ED9EB180CF1FF3104D20A
:108334009F4202D9ACF102012B44DB1B41EA00410C
:1083440093E76046E3E76146F7E76046A4E76346E0
:10835400B8E7834206D916B9002108467CE7C6E986
:1083640000E0F9E7B3FA83F78FB9834201D372458A
:1083740008D8BEEB020460EB030301209C461EB93F
:10838400002169E73846FAE7C6E9004CF8E7C7F187
:10839400200CBB400EFA07F522FA0CF42EFA0CF16D
:1083A400BA401C4320FA0CF3B8404FEA1449014385
:1083B4001FFA84FEB3FBF9F809FB18300B0C08FB19
:1083C4000EFA43EA00439A4540D9E31808F1FF3016
:1083D40004D29A4502D9A8F102002344A3EB0A036C
:1083E40089B2B3FBF9F809FB183308FB0EFE41EA26
:1083F40003418E452CD9611808F1FF3304D28E4510
:1084040002D9A8F10203214443EA0040A1EB0E0182
:10841400A0FB02984145CE46434602D306D14D45C2
:1084240004D20138B9EB020E68EB0403002EA7D086
:10843400B5EB0E0261EB030101FA0CFC22FA07F31F
:10844400F9404CEA0303C6E9003199E74046C5E721
:108454004346D9E7014B1878704700BFB89B00200A
:1084640008B504480FF0F4F8BDE80840012011F005
:1084740007BE00BFD0C7010008B521B1BDE8084060
:1084840005480FF0E5B805480FF0E2F8BDE80840EC
:10849400012011F0F2BD00BFEAC7010006C80100C7
:1084A400012307B50A49009302220A4B0A4805F042
:1084B40073FA014628B1094803B05DF804EB0FF0E4
:1084C400C7B8074803B05DF804EB0FF0C1B800BFAC
:1084D40080C0010078C0010090C0010011C80100F3
:1084E40037C80100CB0710B506D500F001042046BB
:1084F40000F0EAF8014B1C7010BD00BFB89B0020CF
:1085040008B504480FF0A4F8BDE8084002480DF08F
:1085140047BA00BF59C801003895002013B503219C
:108524002D4A2E480FF0B2FE00F016F928B12C485F
:108534000FF08EF8002002B010BD684600F03AF942
:10854400BDF80430BDF80220BDF8001025480FF036
:108554007FF80AF025FB034638B1234A01211F485E
:108564000FF09DFE4FF0FF30E5E720480AF048FB8E
:10857400044628B904F0B2FB034650B11C4AEDE7A7
:1085840001461C480FF064F821461B480FF060F8C0
:10859400E8E71A4806F0C6F8194800F08BF80446D4
:1085A40010B101461748F1E70321174A0B480FF0B1
:1085B4006DFE1648164912F08EFE14480DF0F0F9BF
:1085C400013404F0010100200AF0A8FB00214FF45B
:1085D400004012F0D3FFF3E7A2C801000CBF010072
:1085E400C3C80100DEC80100F8C80100E984000026
:1085F4004FC9010013C9010032C9010020820020C3
:10860400388200206FC901008CC901003895002010
:10861400A58400008B1E59425941014B19707047C3
:10862400BA9B00204B1E59425941014B19707047A7
:10863400BB9B002008B5012BBDF808100CD171B903
:108644000A4B1B680BB9012008BD1078012809D812
:1086540000F001009847F6E76FF00C00F4E76FF0C4
:108664000600F1E76FF01200EEE700BF609500200E
:108674002DE9FF411F460D4B054658680C4616462A
:1086840080B1D1F80C808047094B32461870012321
:10869400CDE90183BDF828302146009328463B46A6
:1086A40011F03CFA04B0BDE8F08100BF60950020F1
:1086B400B99B002020B1034B02681A6042685A60DB
:1086C400002070476095002007B50C4B8DF807001B
:1086D4001B7883B10A490B4B00204B600A4BC860DE
:1086E4008B600DF107030B6101238B8208F00CF9F9
:1086F40003B05DF804FB6FF00C00F9E7BA9B0020AF
:1087040048950020CCC001002771010000B5104B32
:1087140089B01B78C3B1ADF80000ADF80210ADF814
:1087240004200021182202A813F0B1F8094B0020FC
:108734000393062302A9CDF810D0ADF8143008F045
:1087440051FA09B05DF804FB6FF00C00F9E700BFC3
:10875400BB9B002030C1010038B50025124C54F8F1
:10876400060C12F0C9FB28B910480EF071FF4FF047
:10877400FF3038BD14F8013C63B154F8060C83682B
:1087840021461B689847021E07DA294608480EF05E
:108794005FFFECE76FF08502F7E70135032D04F185
:1087A4001404DCD10020E4E75EC1010048CA0100E2
:1087B40069CA01002DE9F04F142200268BB031461E
:1087C40007460DEB020013F062F80DF10E03079358
:1087D40002233D4C3D480893B046B1460EF038FFA5
:1087E4003546A246D4F800B02279DBF800103848A8
:1087F40001920EF02DFF617949B10121019A914056
:10880400227C06918DF82420627C8DF82520DBF8EB
:10881400082005A9584652689047011E03DA2D48DE
:108824000EF016FF0EE00023D5B91E46BDF90E105A
:1088340029480EF00DFF6279BDF90EB0AAB9274898
:108844000EF006FF0135032D04F11404CAD1384695
:108854003E80A7F80290A7F804800BB0BDE8F08F23
:10886400012D0CBF99469846E0E71420E27900FBFD
:1088740005A0042A0ABF2268E1899268807A08BFA9
:108884001189227C01FB0BF1830644BF02F1FF3204
:10889400D2B20491A07904A9019208F00DFB00283A
:1088A4000AD1049B019A43FA02FB1FFA8BF22DB9F9
:1088B400164659460A48B3E7C1DBF6E7012D14BF53
:1088C40090469146F5E700BF58C101008BCA0100EC
:1088D40099CA0100ACCA0100C1CA0100C5CA01009D
:1088E400E3CA01002DE9F04F91B0009302F00403B4
:1088F4000293C2F3C2030133840705460E46DDF832
:1089040068800392059340F0BB81041D30B10729B0
:1089140009D86FF01B0011B0BDE8F08F01F0070615
:108924003444C6F10806009B4FF000094FF0040AD6
:10893400591E4FF0FF334F460193CB465346CDF8B3
:1089440010900DB1009A22600598002800F3E88089
:108954009848009A824203D397488242C0F0E0804C
:10896400039AA4EB050E92074FEA9E0000F10381DF
:108974000F2F00F2B180002D00F0058107F14002B5
:108984000DEB020C019A0CF8200C0CF8102C049836
:1089940001300490E7E07A285DD84B280ED84728A8
:1089A40059D829282DD8252852D054D820287AD00F
:1089B4002338D0F1000B4BEB000B74E04C382E281D
:1089C40049D8DFE800F070484848484848484848D3
:1089D40048484B484848484848484859484B4B59E8
:1089E4005959704B6D487048184B184848827F4B52
:1089F40048484B487F0000204FF0000B4FF0040A1A
:108A040038E001222A38C0B202FA00F010EA0E0F50
:108A140049D110F0625C2FD110EA020B43D06046BA
:108A2400013C5444B4FBFAF40AFB04F4002D61D075
:108A3400A3EB050CA444B4453FF66BAF002868D102
:108A4400042B47D158F8043B2360042304342AE060
:108A5400019A013A01924FF0000B24E011F8010C45
:108A64006C2834D1002011F8023C83466C2BC5D10C
:108A74004FF0080A5346D3E708F1070828F007081F
:108A8400073424F00704F8E802AB35B10698204413
:108A9400B0423FF63EAFC4E900AB4FF0000B0834E0
:108AA4004FF0080A534611F8010F002878D0BBF1A3
:108AB400000F7FF470AF2528F5D14FF0010B019B17
:108AC400013301934FF0040AECE7584694E7002081
:108AD4008346A5E7082B02D06FF015001BE708F1C9
:108AE400070828F00708F8E80223C4E9002308234C
:108AF4000834D8E768B9042B02D108F10408A4E7C4
:108B0400082BE9D108F1070828F0070808F108083C
:108B1400EDE7059A013A059258F8042B009210E704
:108B2400039A900720D54FF0010CA4EB050E4FEAF1
:108B34009E00BEF5007FCFD20F2FCDD8F5B107F13F
:108B440040020DEB020E019AC0B20EF8200C0EF892
:108B5400102CBCF1000F3FF41AAF60F07F000EF848
:108B6400200C09F101090137C5F108024FF6DA7E3C
:108B74000434069297E74FF0000CDAE7BCF1000FDB
:108B840001D00136EFE7029802360028EBD10098B5
:108B9400CDE90631FFF708FBDDE906310644E2E7DB
:108BA400631BB3F5806F97D245B9A6F10804E018AA
:108BB400B1E600BFF0B9010088F30100029A9B08F6
:108BC40028602B709DF81030C2B1EB7085F80290CC
:108BD400B9F1000F05D0002208A8C5F1010C974295
:108BE4000ED14FF0000AC5F101030DF120080193E5
:108BF4000DF1300B574512D1601B8CE66B70E5E725
:108C040010F8013B190608D50CEB040EB64503F029
:108C14007F033FF67EAE04F8013B0132DFE7B9F192
:108C2400000F03D098F90020002A17DB029BD3B170
:108C34001AF80B2004F8012B0022019B1819104488
:108C4400B0423FF666AE98F80000009904F8010BB4
:108C54002046039212F00EFE039A14440AF1010A0C
:108C640008F10108C6E798F8002055F8223000936F
:108C7400029B009845F82230FFF796FA421CDCE785
:108C84006FF00D0047E600BF2DE9F04F97B000AF3D
:108C9400D7F880B03B62CBF3C0030446894690F812
:108CA40002A0FA62BB6141B9457800780AEB800002
:108CB40020444D4517D8A0EB0409E378FB61BAF1D1
:108CC400000F02D01BF0010F16D1FB6953BBFB6AE6
:108CD4001BB1494620463A6A98474D4628465C37B8
:108CE400BD46BDE8F08F461C3046FFF75DFA013003
:108CF400304409F10109DCE7626823787A62FA6A90
:108D04009900796104EB8301002A40F001810E4649
:108D14004FF000084D4601EB0A094E454CD101EBDA
:108D24000A0610E01BF0020FD1D023789A007A6172
:108D3400626804EB83017A62FA6A002A77D14D46AD
:108D4400904601EB0A061BF0050F0CBF022301231A
:108D5400FB62FB6906EB430A0BF00203BB62564558
:108D6400BCD016F8021B16F8013C54F82390994B1A
:108D7400994502D3984B994536D3BB69002B40D013
:108D8400786A0EF03CFC00283BD0E9468AB06A467B
:108D9400924B53617B6AC2E906314FF4007313842A
:108DA4008F4B42F8103F00234FF412518D4801F0CD
:108DB400ABF8023DCD46D2E716F8013BF96254F810
:108DC4002300FFF7F1F9D7F88430F96A01304BB189
:108DD400D7F8883098453EBFD7F8843023F8180078
:108DE40008F10108054498E7BB6923B1786A0EF0DD
:108DF40006FC0028C9D11BF0010F05D1FB6AED1A4E
:108E0400ADE7BB6A002BAAD04846FFF7CDF9D7F8E7
:108E1400843053B1D7F8883098453FBFD7F88420C1
:108E2400431C22F8183008F10108054497E7BAF109
:108E3400000F73D01BF0040673D0D046002607F150
:108E4400480052463B61B96212F014FDB96A3B69AD
:108E540001EB0A02BA62FA69F9695200FA60BA6A65
:108E640002EB41023A610BF00202BA603A69B96A54
:108E74008A4258D162781BF0020F18BF00217A622F
:108E840008BF4FEA5801B2181BF0010FD2B240F0EC
:108E94009F801BF0040F14BF40460020BB6162702A
:108EA400A070E17020463A6A7969FB6A9847051E0A
:108EB400FFF614AFBB69414623707B6A3A6A63705C
:108EC400FB6984F802A0E37007F14800FB6A984745
:108ED400B0F10008C0F2BA807B69A9EB0A01C91A93
:108EE400FB683A6AC91AD7E90A0398470028C0F20E
:108EF400AF804FF0000BA84408EB000507F1380AD7
:108F0400B34571D300213A6A0846FB6A9847E5E6FF
:108F140056464FF0000807F1380092E75646D0460F
:108F240096E7B04694E7BA6A12F8021B12F8015C9D
:108F3400BA6254F82500274A904202D3264A904246
:108F44001ED3BA6932B1786A7B600EF058FB7B6835
:108F540000288BD1BA6802BB08F1280207F1300C53
:108F640008F10100944407F1580208F1020852FA8A
:108F740080F00CF8101C5FFA88F800F8105C75E7B4
:108F8400BA693AB1786A7B600EF039FB7B680028D5
:108F94007FF46CAF1BF0010F09D006F1280207F132
:108FA4003000711C161806F8205CCEB25EE71BF088
:108FB400040F3FF45BAF08F1280207F1300008F119
:108FC400010102EB000808F8105C5FFA81F84DE734
:108FD400002063E7F0B9010088F30100EDCA010045
:108FE4000400000184BF01001BF80A3054F82390E8
:108FF40087F83730D7F884302BB3D7F888309B45BF
:1090040021D2D7F8843033F81B8001213A6AFB6AF5
:1090140007F13700984700281ADB0544B8F1000F20
:1090240006D14846FFF7C0F800F101081FFA88F896
:10903400414648463A6AFB6A9847002808DB0544DB
:109044000BF1010B5CE74FF00008DEE7454645E60F
:10905400054643E6014B1860704700BF8882002034
:1090640080B505460E46174698460DF081F803462E
:1090740012F0B2FC0446DFF81890424649F800307A
:1090840039463046A84754F8090001F03FFD00BFB7
:10909400080000002DE9F047058B04462807904698
:1090A40011D4022905F0070540F0CC8020460EF0CB
:1090B40055FD78B10138218B042811D8DFE800F080
:1090C400C2106D85950001290CBF45F0100545F0CF
:1090D4002005258388F31188BFF36F8FBDE8F087DF
:1090E40001F0070AAA4500F0A5800027B9463E46CC
:1090F400A368002B00F0BC8041F00801218388F3B1
:109104001188BFF36F8FA168002900F0BA800D6841
:10911400002900F0B680334652462046D1F8048038
:10912400C047002D76D02B6829461D46F0E701F094
:1091340007035A1F012A1BD8002221F00701062B1E
:10914400276889B2C4E9002209D13B4603E0628B57
:10915400013262831B68002BF9D141F002012046E1
:1091640021830EF0FBFC00287AD041F0200176E048
:10917400042B0AD121F0070189B2204621830EF085
:10918400EDFC10B141F020012183218B01F0070A8D
:10919400AA454FD00027B946AAE7236921F0070161
:1091A40041F00601062DD3F8009021832DD1B9F1A9
:1091B400000F3FD041F00801218388F31188BFF3E9
:1091C4006F8F20463949C84729E021F007012369F8
:1091D40041F0040189B2042DD3F804902183E6D030
:1091E40000274FF0040A3E4682E721F00701236975
:1091F40041F0050189B2052DD3F808902183D6D01A
:1092040000274FF0050A3E4672E700274FF0060A92
:109214003E466DE72B4687E7B9F1000FD1D1EFF356
:109224001188202383F31288BFF36F8F238B23F0DD
:1092340008032383258BEA062ED525F01003238308
:1092440005F007056669218B002EBFF670AF002379
:109254002768C4E9003321F0070141F001012183AB
:10926400218B4FF0000901F0070AAA457FF440AFB3
:10927400002F9CD041F00801218388F31188BFF3AB
:109284006F8F002FC8D03D6839463346524620467A
:109294000EF090FC2F46F4E7AB067FF51BAF25F0EC
:1092A4002003238305F0070500E700BFE57B0100E9
:1092B40010B530B90B480C490EF05BFD6FF015008A
:1092C40010BD836833B9074808490EF052FD6FF0AA
:1092D4000400F5E71B6813B1BDE8104018471846B1
:1092E400EEE700BF9CBF0100A1CB0100B2CB01009F
:1092F40010B530B90B480C490EF03BFD6FF015006A
:1093040010BD836833B9074808490EF032FD6FF089
:109314000400F5E75B6813B1BDE810401847184630
:10932400EEE700BF9CBF0100A1CB0100B2CB01005E
:1093340070B508B101B132B90B480C490EF019FDF2
:109344006FF0150070BD84680CB1E56835B9064846
:1093540007490EF00EFD6FF00400F3E741F8040B2B
:10936400E368BDE8704018479CBF0100D0CB010002
:10937400B2CB010010B5044630B9104810490EF0C4
:10938400F8FC6FF0150010BD006830B90B480D49AA
:109394000EF0EFFC6FF00100F5E783680BB11B6979
:1093A40033B9064808490EF0E4FC6FF00400EAE71C
:1093B400616898470028E6D12060E4E79CBF01007B
:1093C400FCCB01000DCC0100B2CB010070B51346FB
:1093D400044630B9104811490EF0CBFC6FF015006B
:1093E40070BD006830B90C480D490EF0C2FC6FF036
:1093F4000100F5E782680AB1956835B9064809495C
:109404000EF0B7FC6FF00400EAE70A46AC46616868
:10941400BDE87040604700BF9CBF0100FCCB010069
:109424000DCC0100B2CB0100034A13680BB952689A
:1094340013600020704700BF8C82002030B50C46BA
:109444000E4985B00291D0F8D4110546CDE900311A
:1094540000F1F0014FF0FF3320460BF053FB50B9FD
:10946400012384F86C30D5F8D03123B1204605B0FF
:10947400BDE83040184705B030BD00BF6F7E010025
:1094840038B50C46114605460EF0F1FC034638B9D2
:10949400284604490EF0EBFC03460020236038BD47
:1094A4000120FBE76FF201002DE9F04F0123814613
:1094B4000569466887B005F55F77D7E8EF2F002A7E
:1094C40003D1C7E8E13F0029F7D10CBF1A460022B7
:1094D40040F0B080B368B16A05F5F8781C1F1046F7
:1094E4000EF04CFD84426ED8013A00F09D80B2FA31
:1094F40082F24FF00044D44072682046073222F0D2
:109504000302C5F83C22B16A0EF038FDC5F84002EA
:10951400B36A40466343033323F0030302EB43027D
:10952400230103EB4403093323F0030303EBC403D4
:10953400C5F834221A440832C5F830227368C5F8D5
:109544003842C5F82C323D4BC5E9AD63316800F0B3
:10955400E5F90446002834D1D9F810B0D9F804A0AC
:10956400D9F800300BF53479059004934846DAE9CC
:109574000734012B08BF103C11F0F4FEDAF8240084
:109584002F4904AB01EB80214FF4806248460093DD
:1095940023460CF00BFA2B490BF5307011F09BFEAF
:1095A400DAE9050183685C684CB15B46264AA0474A
:1095B400044630B9DAE9050183681B692BB96FF0F9
:1095C4005704002129E0013289E701229847044623
:1095D4000028F6D11D4B2846C5F8D0311C4BC5F8E0
:1095E400D4311C4B0393D5F840320293D5F83C3266
:1095F400CDE9008305F51173B26AD5F8781300F04C
:1096040055F904460028DCD105F1F0000BF020FBED
:109614000028C5F880030ADB022138460EF05BFC03
:10962400204607B0BDE8F08F6FF00B04C9E76FF078
:109634001504C6E76FF07704F2E700BFC57E0100AA
:1096440070A20020AB7E01009F7E01005D960000A9
:10965400578001000B7F010013B5044640B100237D
:109664000122CDE90032074BD0E909120BF01EFAB2
:10967400236F1B6823B1606F02B0BDE81040184728
:1096840002B010BD6FF2010013B50446084621690B
:1096940001F55F71D1E8AF1F022910D193B1A0B1D8
:1096A4000121CDE900311346D0E909120BF0FEF98E
:1096B400074B984208BF6FF00B0002B010BD6FF06B
:1096C4000F00FAE76FF04C00F7E76FF00100F4E7E2
:1096D4002EF8FFFF2DE9F34789461546066906F57E
:1096E4005F73D3E8AF3F022B64D1136823B96FF0E3
:1096F400150002B0BDE8F0871B78002BF7D0D6F830
:1097040078A3BAF1000F36D106F5EC774FF0FF32AB
:109714004FF0FF3338460BF077FE30462A6801A934
:10972400FFF7AEFE019C80461CB938460EF0D1FB13
:10973400DDE705F108032367AB6984F86CA0636770
:10974400646460B138460EF0C4FB21463046A36E13
:109754002A68FFF773FE0020C9F80040C9E71F22FA
:10976400296804F1480012F0BCF8384684F8678090
:109774000EF0AFFBEFE7304610490EF078FB0446DD
:109784000028B4D0002705F108030367AB6980F80B
:109794006C70436740641F222968483012F0A1F8B6
:1097A40022460121304684F8677000F061F80028F1
:1097B400D1D09CE76FF00F009BE700BF6FF2010070
:1097C40010B50C46006900F55F73D3E8AF3F022B78
:1097D4000FD189B10A4900F5307011F0A8FD204677
:1097E40011F0B4F878220021204612F050F800203D
:1097F40010BD6FF00F00FBE76FF00100F8E700BF4A
:10980400689500202DE9F04F05460E469046002746
:10981400D0F8C4A085B0AAF5BE7421463046FEF740
:10982400B1FCE0B9114BA4F1480B0293DAF8103003
:109834003246CDE9008329464FF0FF335846AAF556
:10984400E2790BF05FF960B97823012203FB0793F7
:1098540083F86C20DAF80C300BB15846984778340A
:1098640017B105B0BDE8F08F0127D6E78580010068
:109874001FB5144690B18AB1012912D10A4B00F1E7
:10988400F0010293D0F8D431483201934FF0FF3302
:10989400204600930BF036F904B010BD6FF01500AC
:1098A400FAE70020F8E700BF858001002DE9F043C6
:1098B40087B00E46DDE90E811446DDE910251F460A
:1098C40030B329B3DFF850C000F1F009002D08BF10
:1098D40065469EB9CDE9034400F5E2742046059639
:1098E40011F0CCFA03ABCDE900432A463B4641468E
:1098F40048460BF027FA07B0BDE8F0830022414642
:109904000E9248462A4607B0BDE8F0430BF06ABB06
:109914006FF01500EFE700BF09980000F0B50446AA
:109924002B4A87B004AB0E4692E8030083E8030099
:10993400002C49D018460AF0BFFF0546B0B94FF0D5
:10994400FF33E16C04F15407A163CDE901000093F6
:109954003846236D04F1380210F0AAFCA06C0EF016
:10996400BEFBC4F8BC0020B96FF00B05284607B055
:10997400F0BDA06C0EF0B3FBC4F8C0000028F3D017
:10998400236CD4F8BC10C4F890300423C4F8943089
:10999400C4F8AC300223E3620E4BB4F84820C4F898
:1099A4008C10616C236204F18C03C4F8A070A4F8D9
:1099B4009820C4F8B870C4F8A810A4F8B020C4F86B
:1099C400A400A6612363D1E76FF01505CEE700BFBD
:1099D40010C00100C0C101002DE9F047044607464C
:1099E4004FF00109DFF8508014B93846BDE8F0871C
:1099F40094FAA4F5B5FA85F509FA05F32E0108EBF6
:109A040005156FEA030A24EA03042B7B002BEBD031
:109A140058F806301B694BB946447368042228463B
:109A2400196807EA0A070EF0C2FBDDE728469847E3
:109A34000028D9D1F0E700BFF4BF010030B50022FF
:109A440089B00F490F4811F06CFE00220023002456
:109A5400CDE906230E230C4DCDE903344FF44072B7
:109A64002846CDE90144094B094900940CF0BCF89F
:109A74000849284611F0D1FC204609B030BD00BF8A
:109A84009D9A0000708F0020E08A0020B19D0000A4
:109A940070A6002032CC010001480BF0AFBD00BF1E
:109AA400288500202DE9F047804621480F460EF016
:109AB40062FB0646002833D000252846BDE8F0871F
:109AC400237B83B12368DB680BB120469847636826
:109AD40083F8069023681B69D3B96368042220467F
:109AE40019680EF064FB013610345445E8D3B8F11C
:109AF400000FE2D0002DDFD02846FFF76DFF0546AA
:109B0400002FF7D000214FF4A47011F037FDF1E7D6
:109B1400204698470028E0D009FA06F31D43E2E7FF
:109B240005464FF00109034CDFF80CA0DDE700BF48
:109B3400A0950020F4BF010004C00100014B53F8BC
:109B44002000704700C2010008B5034608462BB147
:109B5400044A136000F06EFC002008BD6FF015008D
:109B6400FBE700BFB882002010B5044C237813B97A
:109B740003480BF043FD0123237010BDBC9B002060
:109B84002885002010B5044609480EF0F4FA3CB1CB
:109B9400084BD3E8EF1F0139C3E8E21F002AF8D1CC
:109BA400054811F0CAFDBDE8104004480BF026BD7D
:109BB400989500209C950020708F00202885002017
:109BC40000200146034BD3E8EF0FC3E8E21F002A4D
:109BD400F9D170479895002070B5FFF7F1FF05465D
:109BE400074C084EB44200D370BD63685B792BB157
:109BF40023685B6813B12946204698471034F1E77F
:109C0400F4BF010004C0010010B5044C044920460F
:109C14000DF03DFE034B1C6010BD00BF68840020A6
:109C2400ECC101009095002000230D4A10B513707B
:109C34000C4A4FF4004113600B4A0C481360FFF7C1
:109C440083FFFFF7E1FF0A4B0A4918468B4200D312
:109C540010BD1A1A5C681211013222711033F5E733
:109C6400BD9B0020989500209C95002077810100E1
:109C7400F4BF010004C00100014600220023014892
:109C84000DF026BE6884002001480DF0BFBE00BF61
:109C940068840020024B014618680DF00BBF00BF1A
:109CA4009095002001480DF040BF00BF688400205B
:109CB40070B5274B1878002849D0FFF7E5FF054613
:109CC400002841D1234B244C1B68002B19DD11F0D3
:109CD400E1FC4FF47A72A0FB020302FB0131C30BD7
:109CE40043EA4143D4E900209B1A40F2E9324FEAA7
:109CF400D13161EB0001934271F1000101D3FFF70F
:109D04006BFFD4E9003213F57A7342F10002C4E91F
:109D14000032BDE87040FFF7C5BF63685B7923B1CB
:109D24002368294620461B6898471034B442F4D36C
:109D34002846FFF7AFFF094BD3E8EF1F0139C3E80B
:109D4400E21F002ABED0F7E7054C064EEEE770BDD1
:109D5400BC9B002098950020688F00209C950020D3
:109D6400F4BF010004C0010070B50D4D297861B93C
:109D74000120FFF797FE0B4C0B4EB44206D3FFF7BE
:109D840097FF0028FBD101232B7070BD63685B79BA
:109D94001BB1236820469B6898471034EDE700BF49
:109DA400BD9B0020F4BF010004C0010000212DE987
:109DB400F0470846FFF776FE044658B340F267685A
:109DC4004FF0000911F008FE1B4B1C4A1B5813608E
:109DD40033B11B4B1B68092B02DD1A480BF00EFC38
:109DE4000025194FDFF85CA044B12046FFF7F4FDCD
:109DF400044618B94FF0FF384FF0FF39FFF758FF0A
:109E0400064628B9B5B942464B4650460BF030FCDD
:109E14003546E9E74FF0FF384FF0FF39D2E72B68BA
:109E24009B691BB100222846114698471035BD4254
:109E3400F5D3E8E7054DFAE7080000009495002003
:109E44009C9500202885002004C00100F4BF010077
:109E540013B518480EF08FF9174B1B7873B1EFF355
:109E64001184202383F31288BFF36F8FFFF720FF41
:109E740084F31188BFF36F8F02B010BD0F4B1B68C2
:109E8400002BF9D050B9002200230D48CDE900235E
:109E94004FF4004200230CF067FCEDE70928EBD1F6
:109EA400074811F04AFC074802B0BDE810400BF027
:109EB400A5BB00BF9C950020BD9B0020949500206D
:109EC400708F00202885002010B5064B04461B68BF
:109ED40098472146A06004480DF079FDBDE8104084
:109EE400FFF7B6BFB882002068840020044A054BFF
:109EF4009B1AB1EBD30F34BF52F8310000207047E6
:109F04000CBF0100F4BF01002DE9F04F8FB0C1F385
:109F14004A2804AF0D469146B8607B600C0DB8F139
:109F2400000F63D000264FF0040B4FF00A0A07F12C
:109F34001403C7F80C80C7E907667E620193CDF865
:109F440008B0CDF800A007F11C0332464846F96872
:109F5400FEF79AFEB0F5006F03461CD36C468AB038
:109F6400D9F8041004AB26481A46C3E9050140F2A7
:109F7400FF71D9614FF400711984224B42F8103FEC
:109F84004FF4125133462048FFF7BEFFA5462C3745
:109F9400BD46BDE8F08FC0F30A0804F11700184469
:109FA40020F0070080083B60FFF766FE68F3532546
:109FB400044690B13B6800F11001C7E9083607F187
:109FC4001403F961CDE900A3CDF808B048460F4A5F
:109FD400F96807F11C03FEF757FE68F353252A4678
:109FE40020467B68B9680EF001F9D0E704F1170048
:109FF40020F007008008FFF73FFE0446EDE700BFAE
:10A0040047CC010004000001A4BF0100C581010088
:10A014002DE9F04F87B00446DDE9105ADDE91279E5
:10A02400934698460391BFB13B4652461021002007
:10A03400CDF80090CDF81490FEF754FCB0F5006F05
:10A0440006460AD340F2FF730221174A174807B0A5
:10A05400BDE8F04F0EF023B93E4605F11700304439
:10A0640020F007008008FFF707FE04F007040BF058
:10A07400070BE40044EA8B1444EA462444EA0554FA
:10A08400054640B13FB13B4652463146CDF80090BB
:10A094001030FEF727FC434622462846039907B0B2
:10A0A400BDE8F04F0EF0A2B886CC0100A4BF0100B9
:10A0B400406820B1034BC01A40F3CF0070474FF003
:10A0C400FF3070470CBF01000EB403B503AB53F867
:10A0D400042B01460448019301F04EF802B05DF8E8
:10A0E40004EB03B0704700BF05830100CA0605D422
:10A0F4008B064CBF02490349FFF7E6BF704700BF18
:10A104006EF201006DF201002DE9F04F89B09B461B
:10A11400149B9DF84CA00693159B04460593169B2F
:10A124000D469046179E0493BAF1000F00F09D80EF
:10A1340006F4807307930EF038F806F0020902461D
:10A1440000283ED020469149FFF7BEFF0746B9F1EB
:10A15400000F08D016F0440F35D12A4620468C490A
:10A16400FFF7B2FF074406F0010353B1894B2046C1
:10A1740053F82A20884B8949002A08BF1A46FFF75A
:10A18400A3FF06F48073002B49D006F00803002BCC
:10A1940063D1B8F1000F66D0424620468049FFF7EC
:10A1A40093FF0546069B3D44002B6DD1049B002B79
:10A1B40073D1F30700F1E48031462046FFF796FFA0
:10A1C400D8E00746C3E7774B18680028CAD0764B17
:10A1D4004FF47A791B684FF03C0CB5FBF3F5B5FBF3
:10A1E400F0F14FF4616300FB115509FB05F5B1FB78
:10A1F400F3F2B5FBF0FE03FB121100FB1E55B1FB9D
:10A20400FCF309FB05F5B5FBF0F50CFB1311204637
:10A214000091CDE901E56549FFF756FFA2E706F095
:10A224000803EBB1624B204653F82A206149FFF73B
:10A234004BFF0546B8F1000F05D042462046584969
:10A24400FFF742FF0544BBF1000FABD05A4620464E
:10A254005949FFF739FF0544A4E74FF0000BE1E744
:10A2640006F00805E6E745469CE7BBF1010F069BAF
:10A2740006D1002B64D1049B002B7BD000250CE07D
:10A28400002BF8D04D485CE04D48069B22464D49D2
:10A294000DF084F9049B002B68D0DFF82C81DFF8E3
:10A2A4002C91049F3146102F204628BF10274FF0D1
:10A2B400000BFFF71BFF5D4545DC059B4946204627
:10A2C4001A78FFF701FF4FF0010B1BF0070F03D1C2
:10A2D40041462046FFF7F8FE5F453BD9059B4946BA
:10A2E400204613F80B20FFF7EFFE0BF1010BBBF137
:10A2F400100FEAD14FF0000B20463549FFF7E4FE7A
:10A304005A46059B20469A5CA2F120015F2928BF8A
:10A314002E223049FFF7D8FE0BF1010BBBF1100FD1
:10A324001DD01BF0070F03D141462046FFF7CCFE9A
:10A334005F455A46E5D841462046FFF7C5FEEBE7A0
:10A344001F485546A1E741462046FFF7BDFE0BF1E5
:10A35400010BB0E720462049FFF7B6FEC5E7059B91
:10A364003B440593049BDB1B04939AD1BAF1000F81
:10A374007FF41FAF204609B0BDE8F04F0DF0B3BF26
:10A384002046054A0549FFF79FFE15E7C3CC0100A7
:10A39400C7CC010010C20100BECC010069D7010086
:10A3A400ECCC0100A8950020A4950020D0CC01009D
:10A3B40024C20100F0CC0100F6CC0100338301007B
:10A3C400058301007DB1000039F20100FBCC0100DE
:10A3D40001CD010003CD010037F2010042F20F73F9
:10A3E40073B58B4228BF0B460568044605216846B1
:10A3F4000D4A0CF0E3FB0646636828460B225B68B3
:10A404000A490DF062FF63683246694628465B6874
:10A414000DF05BFF63681B2228465B6804490DF05E
:10A4240054FF02B070BD00BF38E8010022CD010026
:10A4340006CD010000210123064A904206D8064AAF
:10A4440001B901231360054B1860704701214008CE
:10A454005B00F2E740420F00A4950020A89500207D
:10A46400F8B50D460446064F4618B44201D12846B5
:10A47400F8BD14F8011BBB6801485B689847F4E712
:10A4840050BB0100014B0360002070476CC2010007
:10A4940008B504480DF0DCF8BDE8084002480DF0AA
:10A4A400D7B800BF68CD01009DCD01002DE9F0476C
:10A4B40006460C4600AF002936D0D1E90012E94621
:10A4C4008AB06D46A3684FF0050AA8461F48C5E93F
:10A4D4000723C5E9050148F810AF002342464FF4AD
:10A4E40021511B48FFF710FDD4E90312CD466369DF
:10A4F400AD461848C5E90723C5E90501C5F810A00C
:10A50400002342464FF421511148FFF7FDFCCD468C
:10A51400E3690121104A0E480DF0C1FEA36901212F
:10A524000E4A0B480DF0BBFE012E07D1EFF3058355
:10A534000B4A31460648103B0DF0B1FE2146304629
:10A544000AF076FDBD46BDE8F08700BFCBCD010023
:10A55400DCBF0100FACD010029CE010038CE010094
:10A5640066CE010030BFFFF7FDBF00BF2DE9F0410B
:10A5740005460B4EDFF82C80324606EB0807CC1B51
:10A584002046094911F076F9A01942460021083CF9
:10A5940011F07DF96C6707F10800BDE8F08100BF98
:10A5A400000000000400000004C00100054B5A69CB
:10A5B4009B689A421FBF044A536843F08053536018
:10A5C400704700BF5C9B002000ED00E070B52A4C92
:10A5D40006460D4629482A490DF030FFA36ADB06DA
:10A5E40047D5264827490DF029FF1120A36A1C07E7
:10A5F40004D5224824490DF021FF12201E4CA36AE1
:10A60400990712D521491D480DF018FF636BA26A02
:10A61400120609D501211E4A18480DF040FE1EB14C
:10A62400A36A23F08003A3621320134CA36ADE07FA
:10A6340004D5124817490DF001FF1420A36A9C06A3
:10A6440004D50E4814490DF0F9FE15200A4B9A6AF8
:10A65400D10658BF9A6A9A6A920642BF5A6A22F48D
:10A6640000525A629A6A42F0FF029A6200232B70E7
:10A6740070BD1020BAE700BF00ED00E0DCBF0100B0
:10A6840079CE01008FCE0100C2CE0100D5CE0100EB
:10A69400EDCE010003CF010022CF010010B5244C00
:10A6A400244925480DF0CAFEA36A99013ED52248E3
:10A6B40022490DF0C3FE1E20A36ADA0104D51E4808
:10A6C4001F490DF0BBFE1F20194CA36ADB0204D501
:10A6D40019481C490DF0B2FE0220A36A1C0304D5DC
:10A6E400154819490DF0AAFE2120114CA36A5903FB
:10A6F40004D5114815490DF0A1FE2220A36A9A033E
:10A7040004D50D4812490DF099FE2320084CA36A84
:10A71400DB0304D508480F490DF090FE2420A36AFA
:10A724006FEA03436FEA1343A36210BD1D20C3E71E
:10A7340000ED00E051CF0100DCBF010069CF010052
:10A744007CCF010096CF0100C0CF0100DECF010015
:10A7540003D001001DD0010070B5294C06460D46FA
:10A76400284829490DF06AFEA36AD9043CD5254836
:10A7740026490DF063FE1720A36A1A0504D5214863
:10A7840023490DF05BFE18201D4CA36A9B0512D5CE
:10A794001C4820490DF052FEA36BA26A100409D58F
:10A7A40001211D4A17480DF07AFD1EB1A36A23F456
:10A7B4000043A3621920124CA36A590504D5114819
:10A7C40016490DF03BFE1A20A36ADA050ED50D4892
:10A7D40013490DF033FE1B20094A936A43F47F4367
:10A7E400936200232B7070BD1620C5E7A36A9B04F7
:10A7F400F2D504480B490DF021FE1C20ECE700BF04
:10A8040000ED00E0DCBF010048D001005ED0010093
:10A81400C2CE01006FD0010088D001009DD001009C
:10A82400B8D0010022CF01002DE9F0478AB0694B6E
:10A834000446D3F804A089461646002500AFCAF39F
:10A84400080885F31188BFF36F8F02F07F43B3F1DB
:10A854007F4F1ED1D3071CD4500603D4110708D44C
:10A86400012508E05C495D480DF0E8FD16F004069A
:10A8740000D04C4600250023FB71A8F10303092BEB
:10A8840000F28680DFE803F0077C7F788484848488
:10A8940084822C46EFE7524950480DF0CFFD002347
:10A8A4004C4EFB71F36A9A0705D54E494B480DF09F
:10A8B400C5FD002329E0F36A002B01DA4A49F5E7D4
:10A8C400F36A5B00F5D5494944480DF0B7FD736957
:10A8D400A26943F480737361BFF34F8FBFF36F8F2B
:10A8E400736932F8022C23F480737361BFF34F8FC2
:10A8F400BFF36F8F4DF602739A4228D1236801216A
:10A904003B4A36480DF0CBFC2368FA79DAB907F1F3
:10A91400080604F1200C324620686168083403C23A
:10A9240064451646F7D17A6A002D4ED0C2F3080169
:10A9340021B96FEA52226FEA42227A62184607F17D
:10A944000801FFF7B3FD2837BD46BDE8F087B36AB9
:10A95400DBB223B10120F91DFFF738FE0EE0B36A24
:10A9640013F47F4F04D00120F91DFFF7F5FE05E035
:10A97400B36AB3F5803F9CD3FFF790FE0346C4E768
:10A984000020F91DE8E70020F91DEEE719498DE7DD
:10A99400194A6E461AF4F87F8AB0184B18BF13464A
:10A9A4006A461749C2E90513A8F11003D3614FF4AD
:10A9B40000731384134B42F8103F00234FF41151DA
:10A9C4000648FFF7A1FAB54673E722F4FF7222F0B6
:10A9D4000102B2E700ED00E0FED00100DCBF01009F
:10A9E40021D1010038D1010059D1010067D1010002
:10A9F40086D10100A2D10100E5D00100D0D0010030
:10AA0400C6D1010004000001064B5A6942F010024D
:10AA14005A615A6942F480625A615A6922F0080202
:10AA24005A61704700ED00E0EFF30880EFF309810D
:10AA340001B57246FFF7F8FE01BD00BF002080F3A8
:10AA44001488BFF36F8F002080F30A8880F30B888B
:10AA54000F4880F308880FF075FB00200D4908604B
:10AA6400BFF34F8F00F02CF8202080F311880A48A0
:10AA74004FF40061401880F30988EFF31480022139
:10AA8400084380F31488BFF36F8F00F0EFF80000E1
:10AA940018C7002094ED00E0D8B500200023184624
:10AAA4000649D1F89020C2F30722934200DB704795
:10AAB400C1F89830C1F8A0000133F6E700ED00E0DA
:10AAC40010B572B6002484F31388FFF7E7FF23461A
:10AAD4004FF0FF300C4A03F120010133102B42F8F0
:10AAE4002100F8D100234FF0FF30074A03F1600141
:10AAF4000133102B42F82100F8D162B6BFF34F8F17
:10AB0400BFF36F8F10BD00BF00E100E0084B9B68EE
:10AB140083420BD1EFF3058343B1064B5A6842F0ED
:10AB240080525A605A6A22F400425A620BF026BBE1
:10AB34005C9B002000ED00E016498A6882F881E001
:10AB44004FF030001044EFF3098C80E8F01F202010
:10AB540080F31288BFF36F8F0F4F4FF000664A697E
:10AB64008A603E60506F0D4C206092F981E0906FD6
:10AB74000023936780F3118802F1300090E8F01FFE
:10AB84008CF3098802F1000004B50DF061FCBDE806
:10AB9400044070475C9B002004ED00E0D895002041
:10ABA4001EF0040F0CBFEFF30880EFF309808169F6
:10ABB40011F8021C0229FFD001B572460DF033FCD6
:10ABC40001BD00BF40B2002807DB01234109034A4D
:10ABD40000F01F00834042F82130704700E100E09C
:10ABE40040B200280CDB01220649430900F01F0093
:10ABF4008240203341F82320BFF34F8FBFF36F8F80
:10AC0400704700BF00E100E0054B420953F82220E1
:10AC1400012300F01F0003FA00F01040704700BF4A
:10AC240000E100E040B2002801F10101ACBF00F1F5
:10AC34006040064B4FEA4111C9B2ABBF00F5614019
:10AC440000F00F0080F800131954704714ED00E071
:10AC5400044B054A23F07F039360BFF34F8FBFF388
:10AC64006F8F70470080000000ED00E008B5FFF72B
:10AC7400EFFF074AD2F8883023F47003C2F8883013
:10AC84000AF0C4FA0BF0AEFB00F04AF80AF0FEFA40
:10AC940000ED00E042F8203C009B0D4942F81C3CCA
:10ACA400019B21F0010142F8183C029B42F8081C68
:10ACB40042F8143C4FF0807342F8043C002383674D
:10ACC4004FF43C43203A0265C0F88030704700BF1F
:10ACD4006590000000B50B4B15469860426F0A4B17
:10ACE4000E461A60436E83F30B882C4686F309885C
:10ACF4000020064B98472046002100220023044CE4
:10AD0400204700BF5C9B0020D89500205D84010093
:10AD1400659000001022014B1A61704700ED00E0BD
:10AD2400002320210348C2180133452B82F8001365
:10AD3400F9D1704700E100E008B5EFF30583064A56
:10AD4400103B02EBC30152F8330049688847BDE861
:10AD54000840FFF72BBC00BFF0BB01001FB5094C36
:10AD6400094A23460121094800F012F900230393FC
:10AD7400074B0121E41A01A80193029400F012F98F
:10AD840004B010BD00000720008000206CC2010048
:10AD9400D086002010B50C7A0B6804F01F0223F053
:10ADA4001F031A43CB68640923F01F03054943EAD0
:10ADB400440343F00103C1F89800C1F89C20C1F892
:10ADC400A03010BD00ED00E010B50A4BD3F8903070
:10ADD400C3F30723013B984208D901210346064ADD
:10ADE40006480DF05CFA6FF0150010BDFFF7D2FFB6
:10ADF400FBE700BF00ED00E0DDD10100C4BF0100AE
:10AE04002DE9F04F8946144606464FF00008514D8F
:10AE140085B0C84527DAD6F804A0BAF1000F44D0AB
:10AE2400BAF11F0F17D91AF01F0F14D1D6F800B0BA
:10AE34001BF01F0F0FD158460DF04AFB07460AEBD3
:10AE44000B0001380DF044FB874210D06FF015075A
:10AE5400414A3B4601E04346404A012140480DF047
:10AE64001EFA6FF01504204605B0BDE8F08F17F107
:10AE7400160FEDD0BC42EBDDC5F89870D5F89C10E8
:10AE8400C5F89870D5F8A03021F01F0143F01F0BCE
:10AE9400D6E900321A44994202F1FF3A1DD1D34552
:10AEA40007D13146F8B20DF01CFB08F101080C364D
:10AEB400AFE73146C5F89870D5F89C3022F01F02F0
:10AEC40003F01F031343C5F89C30E0B20DF009FBF7
:10AED40010F1160FC5D0441CE7E7C5F89870D5F8F3
:10AEE400A020013B23F01F0302F01F021343D345AC
:10AEF4003146E0B2C5F8A030E8D00DF0F2FA10F116
:10AF0400160FAED0C5F89870D5F89C209DF808307F
:10AF14000BF1FF3B62F304038DF80830D5F8A03041
:10AF24009DF808205B0863F347128DF80820D6E9E2
:10AF340000321344009323F01F035B44A3EB0A0382
:10AF4400013023F01F036946C0B20393FFF73CFFAF
:10AF5400BEE700BF00ED00E026D2010003D20100ED
:10AF6400C4BF01000522044BC3F89420BFF34F8FE4
:10AF7400BFF36F8F704700BF00ED00E0BFF35F8F3A
:10AF84000022024BC3F89420704700BF00ED00E09C
:10AF940010B5034C2278FFF733FF207010BD00BFBB
:10AFA400BF9B00202DE9F74F294D8A4606464FF0F6
:10AFB4000008AB46274FD0451BDAD6F80490B9F108
:10AFC400000F3FD03168084601910DF081FA0199D4
:10AFD400044609EB010001380DF07AFA84424FF07F
:10AFE40014021D4B08D002FB08F36FF015024BF856
:10AFF400032003B0BDE8F08F14F1160F2C60F8D0D5
:10B004001978A142F5DD02FB08B0C7F89840C7F8EB
:10B014009840D7F89C4000F10801007B64F30400D9
:10B024000871D7F8A0000C79400860F347140C713C
:10B03400D7F89C1021F01F016960D7F8A01021F007
:10B044001F01296108F1010814350C36B3E700BF6C
:10B05400DC95002000ED00E0BF9B0020F0B54149E5
:10B06400414CD1F890302568C3F307239D4287B043
:10B0740075D80020FFF782FF3C4BC1F8C0308542F1
:10B0840016D13B4C01A82570FFF7FCF900250646B4
:10B09400384FAE4213D1002023783249D1F89020A2
:10B0A400C2F30722934254DBFFF75CFF00202FE03A
:10B0B400616801EB0011FFF76DFE0130DFE70199D4
:10B0C400280101EB0513DA683A40B2F5001F21D0DC
:10B0D400B2F5800F2BD0B2F5801F38D15A689B6827
:10B0E4000958013B22F01F0003440120844623F049
:10B0F4001F0340EA4C10CDE902218DF8100002A98B
:10B1040020780593FFF760FE00281DDA6FF0150024
:10B1140007B0F0BD5A689B680958013B22F01F0034
:10B1240003444FF0020C012023F01F03E1E75A68A7
:10B134009B680958013B22F01F0003444FF0000CA8
:10B14400062023F01F03D4E723780133237001354D
:10B154009FE7C1F89830C1F8A00001339EE74FF093
:10B16400FF30D5E700ED00E078C20100AAFF4400FB
:10B17400BF9B00200000F0FFF0B587B007460E46E5
:10B1840014460021102268461D4610F080FB02235D
:10B194008DF80230054B2A4621466846CDE90476EF
:10B1A40001930BF037FD07B0F0BD00BF1985010016
:10B1B40008B502480BF0E2FCFEE700BF58D20100DC
:10B1C40008B5024B1B689847002008BDF095002085
:10B1D400034B044A1860937843F00203937070475A
:10B1E400F0950020C482002008B50649064821F0E5
:10B1F4000701C1F1005202F5E0220CF077F90020BA
:10B2040008BD00BF0BEE0020F495002070B5416925
:10B214000446867A0A4D59B1437ADB0706D42C23B7
:10B2240003FB06535B6A1B689B68984700236361B2
:10B234002C20214606FB0050BDE870400FF0BABF39
:10B24400708500202C22024B02FB0030704700BFA7
:10B25400708500202C21827A054B01FB02339A6A07
:10B264001B7F801A1B3323F00303B0FBF3F07047FA
:10B274007085002038B52C24827A064B04FB0233F7
:10B284005B6AD3E901240C601568FFF7E3FF04FB54
:10B29400005038BD708500202DE9F04385B0054687
:10B2A400684690461C46039110F0F6F9DDE9006704
:10B2B400EFF31189202383F31288BFF36F8F6B8B15
:10B2C400002B41D02A8B9A4225D9002200232846FC
:10B2D4000AF062F90446F0B189F31188BFF36F8F65
:10B2E400039B002B41D032463B46684610F0F8F9E8
:10B2F4002C21A27A254B204601FB02335B6A03A969
:10B304001B681D68DDE90023A847606170BB204607
:10B31400FFF77CFF24E0698B4B1E6B8389F3118854
:10B32400BFF36F8F2B7F2A8BAC6A1B3323F003038D
:10B33400521A02FB0344154B154AEB1A9B10534354
:10B34400A3722B7FE372CBE789F31188BFF36F8F6E
:10B354002346424628460AF01FF904460028BFD176
:10B364000024204605B0BDE8F08363610123002575
:10B374002381039B29466382E27A656004F1180005
:10B3840010F085FA63692582E360EAE7708500209E
:10B39400A38B2EBA70B52C250B4C00B970BD037A63
:10B3A4004668013BDBB20372002BF7D1C3604360F4
:10B3B400837A05FB03431B6A13B198473046ECE7D5
:10B3C400FFF724FFFAE700BF70850020052370B55E
:10B3D400144D154E2C780134B4FBF3F303EB8303C3
:10B3E400E41A0EF01DFE114A137823B156F82430E6
:10B3F400C01A072813D90E4BD3F8141141B10021F8
:10B40400C3F81411D3F814312C700CB90123137040
:10B414002C780EF005FE46F82400012070BD0020B3
:10B42400FCE700BFC19B002000960020C09B0020C9
:10B434000050004007B50DF1070007F099FF0F4BCE
:10B44400984218D14FF480620D4B0E49C3F8B825C9
:10B454004FF40062C3F83C259DF807000EF07BFE14
:10B464009DF8070008490EF071FE01209DF8073091
:10B47400984007F077FF03B05DF804FB0000AD0BC4
:10B4840000A002402CA0024028A1024048B1054B74
:10B49400054A1B68B3FBF2F35843044B43F0010322
:10B4A40018477047E883002040420F0070C0010035
:10B4B400012270B50C460546054B0020C3F814263E
:10B4C4000DF0FBF828462346BDE8704000211847DC
:10B4D400005000402DE9F041064601200D460DF0D4
:10B4E400ECF8154B154CD3F83021D3F83431072A36
:10B4F4001ED1023B032B02D8114AD35CC3B14FF0D7
:10B50400010800270520C4F81886C4F814760EF044
:10B514001BFE4046C4F814860EF016FEC4F81476DA
:10B52400C4F8187630462B46BDE8F0410021184790
:10B534000023C4F81436F5E700F00720005000405B
:10B5440078D20100014902480CF057BBB0C2010097
:10B55400149600201FB578B10023019303930123AF
:10B564006946084802930CF05BFB029B9B0700D1E1
:10B57400039B05B05DF804FB024805B05DF804EBDD
:10B584000CF0A5BB1496002008B504480FF0B4FCD9
:10B5940000280CBF6FF01200002008BD30BB010072
:10B5A4000E4B402928BF402170B51D460C4C46184F
:10B5B400B04203F1020304D1002305F81130074817
:10B5C40070BD02781209A25C03F8022C10F8012B5A
:10B5D40002F00F02A25C03F8012CE9E7E09B0020D3
:10B5E400DBD2010030B503788BB0044607AD032BE2
:10B5F40021D8DFE803F0021A1C1E12492846FCF782
:10B60400CBFD059563781E210493A3780E4A03931A
:10B61400E3780E4802932379019363790093A37925
:10B624000BF0CCFA09480BB030BD0949E6E70949EB
:10B63400E4E70949E2E70A212846084A0BF0BEFA82
:10B64400DFE700BF96D20100B8D20100C29B002000
:10B654009DD20100A4D20100AED2010086E4010013
:10B6640030B50024094D0A4B85B028460293039453
:10B674000FF078FE02AB284600934FF4E1620A23F0
:10B6840004490AF093F9204605B030BDA88F002084
:10B69400ECD2010070A90020014601480AF002BA68
:10B6A400A88F0020037830B5012B13D0022B27D0AC
:10B6B4007BB90A46184B03F1100453F8045BA34208
:10B6C40042F8045BF9D11B78137043884B731B0A4F
:10B6D4008B7330BD0A46104B03F1100453F8045B1E
:10B6E400A34242F8045BF9D11B7813704368C3F397
:10B6F40007224B731B0CCB731B0A8A730B74E8E78A
:10B7040000F1100350F8042B984241F8042BF9D1AE
:10B7140003780B70DDE700BFF5D2010010B50446D5
:10B724000AF032FC044B1B680BB120469847BDE875
:10B7340010400AF03DBC00BF30960020022838B506
:10B74400054607D10E480CF0F6FE044698B90024CD
:10B75400204638BD0B480CF0EEFE04460028F6D017
:10B76400681EC0B21F2808D8074B195C04F10C00EE
:10B774000CF050FFECE70120F6E70021F6E700BFEC
:10B78400208600207085002006D301000F2810B504
:10B794000CD80D280CD90A480CF0CDFE044618B17B
:10B7A40004210C300CF036FF204610BD1328F2D0D3
:10B7B40009B10448F0E70220BDE81040FFF7BEBF1E
:10B7C400A4860020F4850020C36802211B78024A65
:10B7D40002480DF078B800BF35D301004CBF01001A
:10B7E40070B5C6683378B6F8014083B90F21204696
:10B7F40002F052FDF378054650B90A4A118831B96E
:10B804006FEA04506FEA10501080074A137070BD3D
:10B814004372012102F05EFC2846BDE8704002F04C
:10B8240033BC00BFA49B0020619C002070B5C3689A
:10B834001D78BDB9B3F801600F21304602F02CFD2C
:10B84400044638B93346BDE870400121064A07482A
:10B854000DF039B8294602F03DFC2046BDE87040A1
:10B8640002F012BC70BD00BF5DD301004CBF0100EB
:10B8740010B5C3680121B3F80140204602F00CFD65
:10B8840038B92346BDE810400121044A04480DF0AC
:10B894001AB8BDE8104002F0F7BB00BF83D3010023
:10B8A4004CBF0100012110B50C300CF0D4FEBDE8F2
:10B8B400104003780121024A02480DF004B800BF89
:10B8C400A7D301004CBF0100014610B508480CF095
:10B8D40036FE084908480FF01AFD031E06DABDE8D3
:10B8E40010400121054A06480CF0EDBF10BD00BF11
:10B8F4004C810020E482002050900020C9D3010034
:10B904004CBF010010B5084C0146062294F86F00A4
:10B9140002F09CFF38B994F86F000522BDE810408E
:10B92400024902F093BF10BD008000207CD20100C8
:10B934000121024A02480CF0C4BF00BFE6D3010053
:10B944004CBF01000B46B0B50D8A00AF0446294632
:10B95400D868FFF725FE8AB06A46094BC2E907504A
:10B96400C2E9053440F202439384064B4FF432514A
:10B97400054842F8103F0CF0B3FFBD46B0BD00BF10
:10B9840000D40100050000014CBF010070B5C5687A
:10B994000121B5F80160304602F07EFC044638B956
:10B9A4003346BDE8704001210B4A0C480CF08BBFB4
:10B9B4002B783BB9D5F80330C0F89530D5F807306B
:10B9C400C0F89930201D4FF480310CF07EFF2046E2
:10B9D400BDE8704002F058BB83D301004CBF0100A6
:10B9E400B0B53C28044600AF1AD101F093FE6FF0C5
:10B9F400800110300CF077FF0020FFF783FF05462D
:10BA040030B90121114A12480CF05BFFBD46B0BDAC
:10BA14004472002102F05EFB284602F035FBF5E794
:10BA24006D468AB06A460B4B4FF41251C2E9053099
:10BA3400094B0748D36140F201331384074B42F8A2
:10BA4400103F0CF04DFFAD46E0E700BF22D40100EB
:10BA54004CBF010043D401006FF201000400000157
:10BA64002DE9F74F0023804689461746DFF804A1E5
:10BA7400DAE8EF4FCAE8E23F002AF9D1264644B992
:10BA8400434601213C4A3D4803B0BDE8F04F0CF069
:10BA94001ABF2046FFF7DEFB4FF00C0B384D0BFBB3
:10BAA4000050438843451BD02046FFF7D3FB0BFBD4
:10BAB4000050438801210093324A43462F480CF03A
:10BAC400F8FBDAE8EF3FCAE8E26F002AF9D1002B6D
:10BAD4004DD01E46304603B0BDE8F04FFFF75ABCC8
:10BAE400A74208D020460CF021FD3A8AF96804F1F7
:10BAF4000C000CF086FD2046FFF7ACFB0C2707FB7F
:10BB040000504368ABB1B9F1000F12D12046FFF7E2
:10BB1400A1FB012107FB00504268D2E90003127A1D
:10BB240003F01F07B9405B09DAB100EB83000CF0A6
:10BB3400CCFE2046FFF78EFB0C2707FB00508368E2
:10BB4400002BC7D02046FFF785FB784305F800900B
:10BB54002046FFF77FFB07FB0055A86809F04EFD60
:10BB6400B8E7C94300EB83000CF0BDFEE1E703B086
:10BB7400BDE8F08F488100205FD401004CBF010074
:10BB84003496002087D4010037B50446084602EBFA
:10BB9400C3039A4202D16FF05E0010E0114611F81F
:10BBA400085BA54211D1038A5178994209D9084802
:10BBB4000121084A00940CF07CFB6FF0150003B0DF
:10BBC40030BD536898470020F9E70A46E1E700BF13
:10BBD4004CBF0100BAD4010073B540480CF0C4FC5A
:10BBE4000446002877D000F10C0528460CF03BFDF4
:10BBF4000228034603D0042848D0394A03E0238AA4
:10BC0400032B05D8374A012137480CF05CFE13E0BA
:10BC1400042128460CF01FFDFF2342880688237662
:10BC2400238AC6F30B009A42608309D00121009253
:10BC34002D482E4A0CF03DFB2046FFF7ABFB12E0EB
:10BC44000F2102F029FB054610B9638B284ADAE775
:10BC540002F062FB21462076320B284602F0F2F80D
:10BC6400284602F011FA234BD3F84C31002B32D082
:10BC7400214922480FF04BFB031E2CDA0121204AF4
:10BC8400194802B0BDE870400CF01DBE238A012B98
:10BC940001D81C4AB7E7284602210CF0DCFC054613
:10BCA40000780CF0FCFD10F002060DD140F60C43B8
:10BCB400154A164916480BF0D8FC86F31188BFF3D1
:10BCC4006F8F0323184602DF04232146114A287884
:10BCD4000CF011FEB0E702B070BD00BF4C81002033
:10BCE400DED50100DCD401004CBF0100FDD401000D
:10BCF40021D5010000800020E48200205090002023
:10BD0400C9D3010043D501005FD5010093D50100DB
:10BD1400C1D501005CC3010010B5012104460C30FB
:10BD24000CF099FC2146BDE810400623014A007836
:10BD34000CF0E1BD7CC30100F8B50121044600AF5D
:10BD44000C300CF088FC0678002321463046104A5B
:10BD5400FFF71AFF5F3018D1258AE0682946FFF7FC
:10BD64001FFC6C468AB06A460A4BC2E90750C2E916
:10BD7400053640F202439384074B4FF4325107488F
:10BD840042F8103F0CF0ACFDA546BD46F8BD00BF1F
:10BD9400ACC30100F2D50100050000014CBF010055
:10BDA4002DE9F04F83B00123D0F80C80018A98F874
:10BDB400004000AF03EB84038B425ED96D468AB02A
:10BDC4006A46C2E9073105232E484FF42151C2E9DE
:10BDD40005042D4842F8103F0CF082FDAD460C37A7
:10BDE400BD46BDE8F08F4B460121284A26480CF099
:10BDF4006AFD013598F800309D42F0DA08EB8503BE
:10BE0400B3F801900F214846B3F8036002F044FAF6
:10BE140004460028E7D000F1C00936B1636943B98C
:10BE24005A46012118480CF04CFD204602F02CF92A
:10BE3400DFE7A1691A688B422046626108BFA261EC
:10BE44007B6001F0A1FF09F0D9FB7B68C3F800A077
:10BE5400226A7AB9C4E90733D9E8EF3F013BC9E85C
:10BE6400E23F002AF8D100212046013E01F098FF6C
:10BE7400B6B2D2E713602362EEE70025DFF810B014
:10BE8400AA46B7E724D601004CBF01004FD60100F3
:10BE94006BD6010073B5C5680121B5F80160304661
:10BEA40002F0FAF9044640B9334601213A4A3B48C4
:10BEB40002B0BDE870400CF006BD2B78061D1A2BAD
:10BEC40019D1C378012B4ED14FF4804130460CF088
:10BED400FCFC42040FD4D4F8883069460093D4F8AB
:10BEE40090302046019302F08DFF204602B0BDE859
:10BEF400704002F0C9B82B78ABBB40F67A41B5F874
:10BF04000320A4F8862093B2B5F80520A4F88C2069
:10BF1400B5F80720A4F88E209A1F92B28A4204D959
:10BF240002211F4A1D480CF0CEFCB4F88C30B3F546
:10BF3400FA7F04D302211B4A18480CF0C4FC40F6D3
:10BF44007641B4F88E30A3F10A0292B28A4204D93F
:10BF54000221154A11480CF0B6FC6FF480513046AA
:10BF64000CF0C1FC14E0D6E8AF3FDB04F5D52B7828
:10BF7400202BF2D194F89430002BEED0013B84F8BE
:10BF840094304FF42032002304F1400009F0B4FD52
:10BF9400204602F045FBA8E783D301004CBF010013
:10BFA40082D60100AAD60100D1D60100054BD3E800
:10BFB400AF2F02F00B02D3E8EF1FC3E8E02F0028F5
:10BFC400F9D17047D480002010B5C1E900239DF851
:10BFD40008300C460B72FFF73DF90C22024B02FBB2
:10BFE40000335C6010BD00BF34960020F8B50246F3
:10BFF4000B4610480CF09FFA0446C0B104210C30E3
:10C004000CF0EEFA2046FFF725F90C2700260A4D1E
:10C0140007FB005046802046FFF71CF907FB005041
:10C0240086602046FFF716F907FB00556E60204630
:10C03400F8BD00BF788600203496002070B590B01B
:10C044006C4606460A4D0F2E0FCD0FC40FCD0FC4FC
:10C054000FCD0FC495E80F0084E80F009DBF10AB0F
:10C0640003EB860656F8400C024810B070BD00BFC2
:10C0740018C00100FDD60100034B0146D3F86C0142
:10C0840082689268104700BF008000202DE9F843C1
:10C0940000F10C06044630460CF0F5FA0121054681
:10C0A4003046B4F810800CF0CEFA238A012B09D85C
:10C0B4000121194A19480CF006FC2046BDE8F84352
:10C0C400FFF768B9304602210CF0C5FA074600783C
:10C0D4000CF0E5FB10F0010906460DD141F23603E0
:10C0E4000F4A104910480BF0C0FA89F31188BFF3C6
:10C0F4006F8F0323184602DF052321460B4A387845
:10C104000CF0F9FBB307D8D56369A4F8108013FACF
:10C1140085F5E560BDE8F88343D501004CBF010017
:10C124005FD5010005D70100C1D5010034C301006A
:10C1340038B50C4609F028FFE2681378022B1CD0AE
:10C14400042B0AD001210F4A0F480CF0BCFB2046F7
:10C15400FFF720F96FF015040BE050780CF09FFB0B
:10C16400C207054602D52046FFF790FFAB0704D46B
:10C17400002409F01DFF204638BD2046FFF7A4FB2C
:10C18400F6E700BF1ED701004CBF01002DE9F84FB0
:10C19400042100AF45480CF098FB6D4688B06A4610
:10C1A400434B4FF4E6515361424B434893614FF480
:10C1B40000739383414B424C42F8103F0CF090FBC8
:10C1C400AD46E2793F4B404E2046012A88BF1E46C9
:10C1D400FFF708FA8AB06A463C4BD061C2E90536DB
:10C1E4003B4B4FF4235113623A4B334842F8103F10
:10C1F4000CF076FBA346AD460125374EDFF8DC8014
:10C20400DFF8B490E3790BF1070B9D4238DB94F827
:10C2140070506E462846FFF711FF8CB06A46B4F89A
:10C224007210B4F87630C2E907514FF400755362C6
:10C23400DFF8ACC02B4BC2E905C015854FF4535150
:10C2440042F8103F1C480CF04BFBB54694F8716063
:10C254003046FFF7F3FE8AB06A46B4F874302249D8
:10C26400C2E90763214BC2E9051095844FF43351A9
:10C27400114842F8103F0CF033FBBD46BDE8F88F7F
:10C284005846FFF7AFF9EA468AB06A4640F20133EE
:10C29400C2E90565D06113844FF41351484642F84E
:10C2A400108F0CF01DFB0135D546ABE7D480002080
:10C2B40036D7010048D701004CBF0100030000013C
:10C2C4000080002032D701006FF201004CD701003A
:10C2D40000020103040000025BD701000400000116
:10C2E4006CD7010006000001AAD701000500000177
:10C2F40000487047B7C90100014809F051BB00BFAD
:10C30400D482002070B505460C4659B94FF0FF3071
:10C314004FF0FF31FFF76AFE044618B96FF0680565
:10C32400284670BD2046FEF795FF0C22184BA61830
:10C3340002FB003330465D800CF0A5F903280BD9CD
:10C34400032130460CF06EF90580238A0121033B5A
:10C35400837030460CF06EF940F635439D420FD1A0
:10C364002046FFF789FE05460028D9D0034601215F
:10C37400084A09480CF0A7FA2046FFF70BF8CFE764
:10C38400214606480EF00BFF0025FFF7B5FFC7E76F
:10C3940034960020D1D701004CBF01005481002005
:10C3A4002DE9F0410446458B077E807AFEF74AFF6B
:10C3B4006169064649B1637ADA0704D4436A2046C0
:10C3C4001B689B68984700236361214630460EF042
:10C3D400F1FE254B93F88A309B0642D5384602F08D
:10C3E4000BFB044638B93B46BDE8F04102211F4A25
:10C3F4001F480CF068BA837A073B012B09D91C4803
:10C4040002211C4A0CF05DFA2046BDE8F04101F01F
:10C414003BBE01F039FE4FF0FF304FF0FF31FFF724
:10C42400E5FD044630B9BDE8F0410121124A104847
:10C434000CF047BA00F10C07012138460CF0DBF888
:10C4440001260421067038460CF0D5F80023058037
:10C454008670C3702146BDE8F04140F63540FFF7D1
:10C4640051BFBDE8F08100BF008000203ED801002C
:10C474004CBF010067D8010093D8010073B5C368AD
:10C48400D9789A781E8842EA0122ADF800205979B9
:10C494001A79B4B242EA0122ADF80220D9799A7924
:10C4A400204642EA0122ADF804201A7A5B7A01217F
:10C4B40042EA0323ADF8063001F0EEFE054658B912
:10C4C40001211D4823461D4A0CF0FDF90221204696
:10C4D4000CF044FA02B070BD694602F0E7F838B9CE
:10C4E4001E2120460CF03AFA284601F0CDFDF1E772
:10C4F4004FF0FF304FF0FF31FFF778FD044600287E
:10C50400F2D00E210C300CF076F800230680C0F82F
:10C514000A30BDF8003021464380BDF802308380E4
:10C52400BDF80430C380BDF80630038142F2200018
:10C53400FFF7E8FED8E700BF4CBF010083D301003A
:10C5440038B502460B462B4DD5F8541109B90020D5
:10C5540038BD05F5987009F08BF80028F7D1002252
:10C56400002305F5AA7009F017F8044668B940F6E7
:10C574001B43214A214922480BF077F884F31188A0
:10C58400BFF36F8F0323184602DFD5F848315BB140
:10C5940001211C4A1C480CF094F9D5F84801FEF717
:10C5A400F9FE0023C5F8483120460BF0F3FFC5F827
:10C5B40048012046FFF760FD0346C8B10121134A34
:10C5C40011480CF080F9124809F018F82046FEF7DB
:10C5D40041FE0C220F4B02FB0033588818B122464F
:10C5E4001F21FFF73DFA2046FEF7D4FEFFF784FE35
:10C5F4000120ADE7008000205FD5010029D30100B0
:10C60400C1D50100B6D801004CBF0100D1D701004B
:10C6140030810020349600202DE9F04F87B0064683
:10C6240090460C4600AF71B94FF0FF304FF0FF3128
:10C63400FFF7DCFC044668B96FF0680528461C3730
:10C64400BD46BDE8F08F887AFEF7FCFD524B83426D
:10C6540040F09C800122002138460EF0B9FD2046AE
:10C66400FEF7F8FD0C23DFF834B103FB00B087605C
:10C6740020460BF08FFF01463046FFF743FE054688
:10C6840018B12046FEF786FED8E70FF0A5F9444B13
:10C694001A58444B9A421ED143480EF095FD00218E
:10C6A40082464FF4A020FFF74BFF814688B94FF430
:10C6B400F9733E4A3E493F480AF0D7FF31463E48A7
:10C6C4000AF0D3FF89F31188BFF36F8F0323184651
:10C6D40002DF5445E0D14FF4A0220023384608F08D
:10C6E400C7FF814698B14FF4FC73304A334931484F
:10C6F4000AF0BBFF4A46314631480AF0B6FF002330
:10C7040083F31188BFF36F8F0323184602DF20469B
:10C71400FEF7A0FD0C2358431BF80090B9F1000F5D
:10C724002DD06D468AB06A46264BC2F81C90C2E9E9
:10C734000536254B4FF43251136240F20243938481
:10C74400224B234842F8103F0CF0CAF82046AD466D
:10C75400A9F10909FEF71EFEB9F1090F0CD8DFE8AB
:10C7640009F0180B0B08050B0B0B0B156FF00B05E1
:10C7740064E76FF00C0561E76FF004055EE7B8F15C
:10C78400000F3FF47EAFC8F8004057E76FF015057F
:10C7940054E76FF06E0551E7788600203496002048
:10C7A40008000000E8930020548100205FD50100B8
:10C7B400D1D80100C1D50100D9D8010012D8010097
:10C7C400F9D801003ED901006FF201000500000113
:10C7D4004CBF01000022F0B585B0114640F603407D
:10C7E40002AFFFF719FF0446002840F0A480FFF7CA
:10C7F400DDFB214641F203003A1DFFF70DFF04461D
:10C80400002840F098807A68B84DD16805F1780323
:10C81400D1F80100D1F8051003C31046FEF7BAFDA4
:10C82400214641F201003A1DFFF7F6FE04460028B6
:10C8340040F081807868C3685A7885F870205A88F7
:10C84400A5F872201A7985F87120B3F80720A5F8A5
:10C854007420B3F80530A5F87630FEF79BFD214629
:10C8640041F202003A1DFFF7D7FE0446002862D1C8
:10C87400D7F804C005F18006DCF80C20531C4132C3
:10C88400344618685968083303C493422646F7D1DE
:10C894006046FEF77FFD01F06FF9044600284AD197
:10C8A40095F88A309E0610D40221914A91480CF0E2
:10C8B40008F895F87C30580641D401218E4A8D48F9
:10C8C4000BF0FFFF6FF0120435E04FF0FF304FF034
:10C8D400FF31FFF78BFB0646002800F0F9800721A3
:10C8E4000C300BF088FE1B2303700A23C0F80240AF
:10C8F4008471447004712246C370314640F633405B
:10C90400FFF78AFE0446B0B94FF0FF304FF0FF3115
:10C91400FFF76CFB0646002800F0DA8001210C309A
:10C924000BF078FE2246314640F63140FFF774FEA4
:10C9340004460028BDD020460C37BD46F0BD00217A
:10C9440042F203003A1DFFF767FE04460028F2D1C5
:10C954007A686A4BD168D1F80100D1F8051003C395
:10C964001046FEF717FD214642F202003A1DFFF77A
:10C9740053FE04460028DED17E68F468B4F8013022
:10C984009AB292B1E27882B1A5F80431E378032B2C
:10C9940006D00322022100925648594A0BF089FC22
:10C9A400E278584811460EF013FC3046FEF7F2FCCC
:10C9B4001F2395F87C60A5F8203116F0200618D1C5
:10C9C4004FF0FF304FF0FF31FFF710FB0446002813
:10C9D4007ED002210C300BF00EFE012321460370A1
:10C9E4004670324640F66D40FFF716FE04460028B6
:10C9F400A1D195F89C30190712D5002142F21C00F0
:10CA04003A1DFFF709FE0446002894D17868C368EC
:10CA1400D3F80120D3F80530C5E93823FEF7BAFC72
:10CA24004FF0FF304FF0FF31FFF7E0FA04460028E3
:10CA34004ED008210C300BF0DEFD95F8D83095F877
:10CA4400D92013F0020F14BF2F230F2312F0090F64
:10CA54004FF0000218BF43F4006303701B0A214621
:10CA640043708270C270027142718271C27142F26B
:10CA74000100FFF7D1FD044600287FF45CAF95F870
:10CA84007C30B5F804119A0625D4C9B941F20500E1
:10CA94003A1DFFF7C1FD044600287FF44CAFB5F8FA
:10CAA40004317C684BB9E368B3F80120A5F804218C
:10CAB4009A88144811460EF08BFB2046FEF76AFC58
:10CAC4004FF0FF304FF0FF31FFF790FA0446E8B91A
:10CAD4006FF068042FE70029F2D101210A4A0548C2
:10CAE4000BF0EFFE6FF0040425E700BF0080002088
:10CAF4005DD901004CBF01008BD90100D880002012
:10CB0400AFD9010008810020F5D9010008210C30BB
:10CB14000BF071FD1023037088230022437002265A
:10CB2400202321468270C670027142718271C371E2
:10CB340040F60140FFF770FD044600287FF4FBAE89
:10CB440001463A1D4FF60140FFF766FD98B1504A81
:10CB5400022150480BF0B5FE00F0C8FC0446002842
:10CB64007FF4E9AE01F050FF044600287FF4E3AE01
:10CB7400FFF70CFBDFE67B686E46DC688AB0B4F82E
:10CB84000130032B96BF444A444952F8231002AAA9
:10CB9400D3614FF4007342481384424BC2E9050148
:10CBA40042F8103F4FF413513A480BF099FEB4F891
:10CBB4000120B546022AB4F8033049D1052B47D8E1
:10CBC400394A52F823106E468AB002AAD3614FF450
:10CBD400007336481384334BC2E9050142F8103F11
:10CBE4004FF413512B480BF07BFEB546637994F850
:10CBF40006C0032B98BF2E4AB4F80760D4F8090086
:10CC04006C468CB094BF52F82310244902AAC2E99E
:10CC1400073C4FF40073DFF89CE09385264BC2E990
:10CC240005E1C2E909604FF4735142F8103F194815
:10CC34000BF056FEA5467868FEF7ACFB00214FF6D4
:10CC440002403A1DFFF7E8FC044618B11B4A7FE78F
:10CC54001249B8E77868C368B3F80130A5F8C13061
:10CC6400FEF798FB95F8C1305B077FF575AF214659
:10CC74004FF603403A1DFFF7CFFC08B1104A67E7AF
:10CC84007868C3685B7885F8C030FEF783FB63E798
:10CC940018DA01004CBF010024C30100FDD60100D5
:10CCA4003CDA0100040000010CC3010055DA010064
:10CCB400FCC201006DDA0100070000019ADA0100EC
:10CCC400C3DA010010B5FFF785FD034B1B6813B1F0
:10CCD400BDE81040184710BDC496002073B52A4D16
:10CCE4000646D5F86C010EF007F948B90121274A28
:10CCF40027480BF0E6FD6FF01204204602B070BD29
:10CD04006FF0020105F1D4000BF0EDFD01210BF0F1
:10CD1400DCFD10EA010434D11E4B1E600A4605F501
:10CD240098700EF055FA05F5AA700EF02CFA1A4810
:10CD34000EF018FB6FF007034FF49662174916487C
:10CD4400009408F033FE164913480EF066FBD5F83C
:10CD54006C01144983681B689847044630B1034644
:10CD64000121114A0A480BF0AEFDC6E726B902B00C
:10CD7400BDE87040FFF72EBD05F1C40008F010FEB9
:10CD8400BBE76FF07704B8E700800020ECDA01001D
:10CD94004CBF0100C49600205090002078B00020C1
:10CDA40004DB010035C100000DDB0100F7B5144BB5
:10CDB400054693F99B300C46002B1DDA14B9204626
:10CDC40003B0F0BD082C4FF0000142F2180001AA94
:10CDD400264628BF0826FFF71FFC0028F0D1019F34
:10CDE4003246F968284601310EF044FD3846FEF714
:10CDF400D1FA3544A41BE1E76FF08500E0E700BFFA
:10CE0400008000202DE9F04F85B00026624BB0F879
:10CE14000190198849F47042914204BF1E805F4B0F
:10CE240000F1040808BF1E78C3780546012B08BF2B
:10CE34005B4B404600AF14BF002493F86F400BF0E7
:10CE4400BEFC414668B34FF0010A07F108000BF03D
:10CE5400ABFCD5F81130C7F80130B5F81530A7F898
:10CE64000530EB78012B31D04046FEF7BBFB6C4616
:10CE740088B06A464B4B4FF4E251C2E905304FF497
:10CE840000739383484B494842F8103F0BF028FD48
:10CE94001321A54648460BF07DFD1437BD46BDE879
:10CEA400F08F20460BF0F6FD0346006895F804A0C9
:10CEB400B8609A889B796868BA81BB73B8F8042013
:10CEC40098F806303860BA80BB71CAE707F10800E9
:10CED400FEF718FDEB780446012B0AD100F01AFC8A
:10CEE40083466FF0800110300BF0FDFC58460BF0C8
:10CEF400D1FE002CB8D02346B5F8012023F8702BBE
:10CF0400BA7BB868B98920679A7100229980B5F80C
:10CF14001730A4F88630B5F81930A4F88C30B5F879
:10CF24001B30A4F88E30EB786272012BE37022D1AF
:10CF340087F800A0BA88BB793868A4F87B2084F805
:10CF44007D30C4F8770000F0E5FB237A144AC3EB84
:10CF5400C3039918D358C4F87E308B88A4F8823060
:10CF64008B7984F88430D2E9381303F03F031943F2
:10CF740001D000F091FD0721204601F0ABF826B165
:10CF840001212046667201F0A5F8204601F008FA56
:10CF9400204601F079F880E7A49B0020619C0020E2
:10CFA4000080002029DB0100030000014CBF0100C8
:10CFB40000B5C36889B0187820B109B05DF804EBF6
:10CFC400FEF70EBDB3F801208DF80000ADF8012086
:10CFD400DA788DF80320B3F80B20ADF81720B3F8F6
:10CFE4000D20ADF81920B3F80F20ADF81B205A7CA2
:10CFF4008DF81D20586801901A899B7AADF8082095
:10D004008DF80A30084B68461A689B88CDF80B20C7
:10D01400ADF80F30CDF81120ADF81530FFF7F2FE62
:10D0240009B05DF804FB00BF90D2010038B50421BB
:10D0340004460C300BF00FFB034640885D7818B1B2
:10D0440022461978FEF70CFD35B1044808F0D6FAEB
:10D05400BDE83840FFF750B938BD00BF308100202B
:10D06400B0B50446032100AF0C300BF0F4FAE368CA
:10D074000578197840F63543B0F80100984215D187
:10D084006C468AB06A460F4B0F48C2E905310F4B14
:10D094004FF41251D36140F2013313840C4B42F824
:10D0A400103F0BF01DFCA546BD46B0BD10B1224695
:10D0B400FEF7D6FC002DF7D0064808F09FFAFFF7DC
:10D0C4001BF9F1E745DB01004CBF01006FF20100E1
:10D0D4000400000130810020F8B506460024094D03
:10D0E400EF79E3B29F4202D86FF0010007E02946CE
:10D0F40030460BF0C5FC0735631C08B12046F8BD6B
:10D104001C46EEE70080002070B51A4E0622314618
:10D1140005460EF0C4FB38B34FF0FF304FF0FF313B
:10D12400FEF764FF044608B3062229460C300BF0D0
:10D1340068FA2146002242F20500FFF76DFA044620
:10D1440048B110F10D0F04D102210B4A0B480BF02A
:10D154009FFC204670BD33462A6843F86929AA8893
:10D16400B280012283F868200024F2E76FF068049B
:10D17400EFE700BF6980002088DC01006CBF01007C
:10D1840037B504460D4689B1284618490BF078FC9A
:10D1940060B9174A2968C4EBC4041151A318AA88BA
:10D1A4009A80AA799A71002003B030BD68460BF0CA
:10D1B400EDFA0028F8D16846FFF78EFF0028F5DA6B
:10D1C4000B4A0098C4EBC40410519DF80610BDF836
:10D1D4000400A31898809971002DE4D012592A6094
:10D1E4009A88AA809B79AB71DDE700BF83D20100E6
:10D1F4000080002070B50446B1B9C0B11F490BF0DE
:10D204003FFCA0B92046FFF767FF00282FDA2378F8
:10D21400012B04D1A37903F0C003C02B07D0012153
:10D22400174A18480BF034FC6FF0150070BD164D0A
:10D23400EB79012B1ED005F1D403D3E8AF3FDB0714
:10D2440007D4002CF0D020460C490BF019FC002820
:10D25400EAD1EE792146731C3046EB71FFF790FF5B
:10D2640008B93046E2E7EB79013BEB71DEE76FF09A
:10D274007700DBE76FF00B00D8E700BF83D2010033
:10D2840097DC01006CBF0100008000202DE9F34110
:10D29400044640B91A4A02211A480BF0F9FB00204F
:10D2A40002B0BDE8F081002141F2090001AAFFF7B4
:10D2B400B3F9054608B1144AEDE7019E0622D6F8F3
:10D2C4000C80124908F1010738460EF0E8FA28B13B
:10D2D400062238460E490EF0E2FA18B93046FEF737
:10D2E40059F8DCE7D8F801303046C4F80130BB887F
:10D2F4002570A4F80530FEF74DF80120D0E700BFF3
:10D30400C5DC01006CBF0100DEDC010090D201002D
:10D314008AD2010007B56846FFF7B8FF044BD871FD
:10D3240018B169460020FFF72BFF03B05DF804FB3A
:10D3340000800020F0B5304D89B0EC79002C53D139
:10D3440095F8C26016F0010610D12C4A02212C482F
:10D354000BF09EFBEC71162600240127EB79E0B25A
:10D3640098422CD3002B3FD000203BE06A46214654
:10D374004FF60940FFF750F908B1224AE6E7DDF815
:10D3840000C0DCF80C104B7823B96046FEF702F8B5
:10D394001D4ADBE78B1C02AA01F112041746186828
:10D3A4005968083303C7A3423A46F7D1186834468C
:10D3B40038609B886046BB80FDF7ECFFCAE708AB8A
:10D3C40006FB003353F8182C33F8143C6946CDF8A7
:10D3D4000120ADF805308DF80070FFF7D1FE01345F
:10D3E4000028BBD009B0F0BD0021084609B0BDE853
:10D3F400F040FFF7FFBE00BF00800020FCDC01000E
:10D404006CBF010028DD010048DD01002DE9F04179
:10D414000D4617461C46064650B14BB10A03037825
:10D4240011D56D0708D501212D4A2E480BF030FB8C
:10D434006FF01500BDE8F0810BF039FB0028F9D13D
:10D4440001232370F6E7E9072ED527480FB1AA0672
:10D4540008D4C3EBC302825C012A13D002B9227040
:10D464000020E7E790F8D820510635D5C3EBC30276
:10D47400825C012A06D002B92270237843F00203A9
:10D484002370EDE74FF00108072111FB03810144EC
:10D4940030460BF004FB0028CCD184F80080002F28
:10D4A400DED0AB06DCD5E8E76A0712D50E49C3EB3C
:10D4B400C3028E5C012E09D1072212FB03631944B7
:10D4C4000BF0EDFA0028B5D12670EAE7002EE8D17A
:10D4D400FAE70BF0ECFAB3E76FF08500AAE700BFB8
:10D4E40071DD01006CBF01000080002038B5104DD3
:10D4F400EB7913B10024204638BDFFF70BFF044637
:10D5040028B10C4A01210C480BF0C2FAF3E7EB797D
:10D51400002BEFD1FFF70EFF04460028F1D1681C61
:10D52400FFF7F2FD04460028E5D0044AEAE700BF0D
:10D534000080002090DD01006CBF0100AFDD010020
:10D544002DE9F74F0C4600904FF0FF314FF0FF30BC
:10D554009246FEF74BFD0546002855D020210C309D
:10D564000BF049F82022814600210EF090F90026A4
:10D5740009F1010B04EBCA0A0023D4F800806268A5
:10D5840093420CD30834A245F6D1002229460098D0
:10D5940089F8006003B0BDE8F04FFFF73DB898F894
:10D5A4000120B01C81181F2998F800C015D9BCF1BE
:10D5B400090FC0F11F0201D1002A0CDC0121144A19
:10D5C40014480AF063FE2846FDF7E4FE6FF01500E8
:10D5D40003B0BDE8F08F4FF0080CD7B2791C0BF8FC
:10D5E4000610711CC9B20BF801C0D8F804105BFA1C
:10D5F40080F0019302370EF03DF9019B3744FEB2EF
:10D60400013308F10808BAE76FF06800E0E700BFEB
:10D61400D2DD01001CBF0100072208B5034909300F
:10D624000EF03DF9003818BF012008BD83D2010077
:10D63400F8B5154B067804460D4683F86F60FFF77E
:10D64400EBFF70B93046114901F084F8044610B973
:10D654006FF00B00F8BD052100F03CFD00202C60AC
:10D66400F8E704F109073946304601F0B7F840B944
:10D674002078394601F06EF804460028E8D00621E7
:10D68400EAE76FF01500E5E7008000207CD2010096
:10D69400F8B545680646690535D4046914B115F032
:10D6A400010330D0194F3078FB7983422BD9C0EB7A
:10D6B400C0000722164938440EF0F1F8A8B115F05D
:10D6C400010306D197F87020082A02D8B2689F2A6D
:10D6D40019D915F0300F09D0ACB1EA060AD405F413
:10D6E4006035B5F5603018BF0120F8BDEB0601D4F4
:10D6F400002CF4D1D6E902239A4204D81F2A02D975
:10D70400B3F5804FEBD90020EFE700BF0080002085
:10D7140083D2010000487047188000202DE9F04FA3
:10D724009A460023D1F810908DB0B9EB0306054654
:10D73400944818BF0126059207930BF0E2F90C46B2
:10D74400410740F113812046FFF7A2FF28B96FF08B
:10D75400150B58460DB0BDE8F08F20460BF0BEF90E
:10D7640080460028F3D005F1100738460BF0C9F9BC
:10D774000206C0F3C01300F1FC80CDE90933CDF8F3
:10D784002B30A3686068ADF82030E3686FF48071D3
:10D79400ADF822300BF0A6F98DF82D0079480BF086
:10D7A400B3F92378784A2B7082F86F3028463246D2
:10D7B40061680DF12503FFF729FE83460028C8D1CF
:10D7C40005F10902B9F1000F18D021690868C5F8FC
:10D7D4000900888890808979204691710BF024FA99
:10D7E40062680646D0071BD4920503D4169B0BB976
:10D7F400022E5DD102238DF8243023E0634B2046B2
:10D804001968C5F8091099889B79918093710BF078
:10D814000BFA62680646D107E6D58DF8249011E02C
:10D8240012F0100F0CBF01220422D8468DF82420D8
:10D8340022691168CDF826109188ADF82A109279E2
:10D844008DF82C204FF0FF304FF0FF31FEF7CEFB68
:10D854008346002800F090800F2208A90C300AF0BB
:10D86400D0FE0022594642F20600FEF7D5FE0028FB
:10D8740040F08580B9F1000F20D06368DB072BD41A
:10D88400012128460BF0E0F98346002866D00121E7
:10D894003F4A40480AF0FAFC079C002C3FF459AF79
:10D8A4002046002100F016FC204600F0EDFB50E776
:10D8B4000323DDF858808DF82430C3E7179B5246C4
:10D8C40000932846CDE90186169B05990BF03AF999
:10D8D40083460028D1D03CE7284607A9FFF7A8FED5
:10D8E40083460028CCD010F10C0F7FF432AFB9F18D
:10D8F400000F7FF42EAF626890073FF52AAF63688C
:10D9040083F00203C3F3400B0BF001020E213846EF
:10D914000BF005F9731E5A425A41082138460BF0A0
:10D92400FEF8B11E4A424A41384609210BF0F7F885
:10D9340062680A21384602F001020BF0F0F8424610
:10D944000B2138460BF0EBF862680D213846C2F320
:10D9540080020BF0E4F84FF0000BFAE6079808B1E8
:10D9640000F092FBB9F1000FCED1C8E76FF00A0BBB
:10D97400EFE66FF0770BECE66FF0680BE9E68346B1
:10D98400E7E600BFD48000200080002083D201009D
:10D99400EBDD01001CBF010073B51546069A0C4669
:10D9A400CDE900322B460A4601461148FFF7B6FE80
:10D9B40021460646002340F201109D4202D1304622
:10D9C40002B070BD0A88824204D14A6812B112784A
:10D9D400D20702D401330831EFE7064906480DF0B7
:10D9E400C7FC4FF470220023034808F0B9F8E6E7B7
:10D9F4001880002079DA00003080002010B5194822
:10DA04000BF048F96FF4804117480BF07DF8164885
:10DA14000BF077F803461A06C0F3C01021D512485C
:10DA24000BF06FF8430513D50E48FFF7F5FD0346D9
:10DA34000E49087E93B905220D4900F007FF0446FC
:10DA440030B10021417200F045FB204600F01CFB80
:10DA5400BDE81040002103480BF0F6B8062221313E
:10DA6400EBE710BD188000202880002000800020F3
:10DA74007CD2010010B5FFF7C1FF034630B1BDE809
:10DA840010400221024A03480AF009BC10BD00BF3D
:10DA940006DE01001CBF010073B533480BF031F8FA
:10DAA40010F4804F304C38D020460BF02AF803068F
:10DAB40033D420460BF025F846052ED501A9A4F150
:10DAC4001000FFF7B5FD40BBA4F11000FFF7A4FD63
:10DAD400024620460BF015F8C0F3803120460BF0C7
