:10800000309C0020D5A0000049020100C1A0000062
:10801000C1A00000C1A00000C1A00000C1A00000DC
:1080200000000000000000000000000039A2000075
:10803000C1A0000000000000D1A10000C1A000000C
:10804000A5A30000A5A30000A5A30000A5A3000010
:10805000A5A30000A5A30000A5A30000A5A3000000
:10806000A5A30000A5A30000A5A30000A5A30000F0
:10807000A5A30000A5A30000A5A30000A5A30000E0
:10808000A5A30000A5A30000A5A30000A5A30000D0
:10809000A5A30000A5A30000A5A30000A5A30000C0
:1080A000A5A30000A5A30000A5A30000A5A30000B0
:1080B000A5A30000A5A30000A5A30000A5A30000A0
:1080C000A5A30000A5A30000A5A30000A5A3000090
:1080D000A5A30000A5A30000A5A30000A5A3000080
:1080E000A5A30000A5A30000A5A30000A5A3000070
:1080F000A5A30000A5A30000A5A30000A5A3000060
:10810000A5A30000A5A30000A5A30000A5A300004F
:10811000A5A30000A5A30000A5A30000A5A300003F
:10812000A5A30000A5A30000A5A30000A5A300002F
:10813000A5A30000A5A30000A5A30000A5A300001F
:10814000A5A30000A5A30000A5A30000A5A300000F
:04815000A5A30000E3
:1081540053B94AB9002908BF00281CBF4FF0FF31AA
:108164004FF0FF3000F00CB8ADF1080C6DE904CE0F
:1081740000F010F8DDF804E0DDE9022304B07047F4
:10818400704700BF034613F8012B002AFBD1181ACD
:10819400013870472DE9F04786468C460846089E0C
:1081A400154674461946002B40F0C1808542B2FA48
:1081B40082F245D94AB1C2F1200300FA02FC95408B
:1081C40094402EFA03F343EA0C0C4FEA154EA8B27E
:1081D400230CBCFBFEF80EFB18CC08FB00F943EAA9
:1081E4000C43994528D9EB1808F1FF3704D2994577
:1081F40002D9A8F102072B44A3EB0903A4B2B3FBF1
:10820400FEFC0EFB1C330CFB00F044EA0344A042CA
:1082140014D92C190CF1FF3304D2A04202D9ACF1C9
:1082240002032C44241A43EA07401EB1D44000231D
:1082340034607360BDE8F0874746DDE76346F1E7E5
:1082440092BB431B01214FEA154EAFB2200CB3FB86
:10825400FEFC0EFB1C330CFB07F840EA0343984575
:1082640061D9EB180CF1FF3004D2984502D9ACF176
:1082740002002B44A3EB0803A4B2B3FBFEFC0EFBE9
:108284001C330CFB07F744EA0344A7424DD92C19CD
:108294000CF1FF3304D2A74202D9ACF102032C44FF
:1082A400E41B43EA0040C0E7C2F120039540944038
:1082B40020FA03F12EFA03F34FEA154E9040AFB2C1
:1082C4000343B1FBFEFC0EFB1C10190C0CFB07F85E
:1082D40041EA0041884522D969180CF1FF3004D2E3
:1082E400884502D9ACF102002944A1EB08019BB2F4
:1082F400B1FBFEFC0EFB1C110CFB07F743EA014328
:108304009F420ED9EB180CF1FF3104D29F4202D9DF
:10831400ACF102012B44DB1B41EA004193E76046C8
:10832400E3E76146F7E76046A4E76346B8E78342BC
:1083340006D916B9002108467CE7C6E900E0F9E74A
:10834400B3FA83F78FB9834201D3724508D8BEEBE1
:10835400020460EB030301209C461EB9002169E777
:108364003846FAE7C6E9004CF8E7C7F1200CBB40F1
:108374000EFA07F522FA0CF42EFA0CF1BA401C435B
:1083840020FA0CF3B8404FEA144901431FFA84FE63
:10839400B3FBF9F809FB18300B0C08FB0EFA43EA9F
:1083A40000439A4540D9E31808F1FF3004D29A45B6
:1083B40002D9A8F102002344A3EB0A0389B2B3FB58
:1083C400F9F809FB183308FB0EFE41EA03418E4518
:1083D4002CD9611808F1FF3304D28E4502D9A8F1D3
:1083E4000203214443EA0040A1EB0E01A0FB0298E2
:1083F4004145CE46434602D306D14D4504D2013809
:10840400B9EB020E68EB0403002EA7D0B5EB0E0205
:1084140061EB030101FA0CFC22FA07F3F9404CEA80
:108424000303C6E9003199E74046C5E74346D9E767
:1084340038B50446C8070D4604D5E10702D50D48F2
:1084440007F03FFAAA0704D5A30702D50A4807F0A4
:1084540038FA680704D5610702D5084807F031FAED
:108464002A0706D5230704D5BDE83840044807F099
:1084740028BA38BD6C1501007E1501009015010065
:10848400A215010013B503F0FDFE034638B1012126
:10849400234A244807F00EFE012002B010BD2248F2
:1084A40003F020FF014618B1204807F00AFAF3E769
:1084B40000F042F878BB1E4C684600F06BF820468A
:1084C400BDF80430BDF80220BDF8001007F0F9F93A
:1084D40000214FF4004008F08BFB002008F035F930
:1084E400012008F032F9022008F02FF9032008F0E7
:1084F4002CF900214FF4004008F07AFB002008F02A
:1085040027F9012008F024F9022008F021F90320BA
:1085140008F01EF9D0E7074807F0D3F9BCE700BF1D
:10852400B41501007012010035840000CF1501005C
:1085340009160100EE15010038B50025124C54F857
:10854400060C08F01AFA28B9104807F0BAF94FF0E7
:10855400FF3038BD14F8013C63B154F8060C83684D
:1085640021461B689847021E07DA2946084807F087
:10857400A8F9ECE76FF08502F7E70135032D04F164
:108584001404DCD10020E4E7FE12010028160100E7
:10859400491601002DE9F04F142200268BB0314614
:1085A40007460DEB020008F0E6FB0DF10E030793FE
:1085B400022337480893B146B04607F082F935469E
:1085C400B2464FF0140B334C637953B10122237933
:1085D40002FA03F30693237C8DF82430637C8DF830
:1085E40025302068836805A95B689847011E10DA66
:1085F400294807F066F90135032D04F11404E3D189
:108604003846A7F800907E80A7F804800BB0BDE838
:10861400F08F45B9D1466279BDF90E3042B91F4891
:1086240007F04FF9E7E7012D0CBF5646D046F2E7B5
:10863400E2791848042A08BF22680BFB05000ABF28
:108644009268E1891189807A5943227C800644BF6B
:1086540002F1FF32D2B20491A07904A900930192ED
:1086640002F0D0F90028009B08D1049B019A134121
:108674009BB22DB9994601251434A5E7CFDBF7E762
:10868400012D03D11E46022514349DE79846B7E711
:108694006B160100F8120100791601008E16010014
:1086A4002DE9F04F91B0009302F004030293C2F35A
:1086B400C2030133840705460E46DDF86880039241
:1086C400059340F0BB81041D30B1072909D86FF030
:1086D4001B0011B0BDE8F08F01F007063444C6F169
:1086E4000806009B4FF000094FF0040A591E4FF092
:1086F400FF334F460193CB465346CDF810900DB14E
:10870400009A22600598002800F3E8809848009AAF
:10871400824203D397488242C0F0E080039AA4EBDC
:10872400050E92074FEA9E0000F103810F2F00F21D
:10873400B180002D00F0058107F140020DEB020C21
:10874400019A0CF8200C0CF8102C049801300490B9
:10875400E7E07A285DD84B280ED8472859D829282D
:108764002DD8252852D054D820287AD02338D0F1B7
:10877400000B4BEB000B74E04C382E2849D8DFE893
:1087840000F07048484848484848484848484B48DA
:108794004848484848484859484B4B595959704BE0
:1087A4006D487048184B184848827F4B48484B48DE
:1087B4007F0000204FF0000B4FF0040A38E0012244
:1087C4002A38C0B202FA00F010EA0E0F49D110F0B4
:1087D400625C2FD110EA020B43D06046013C544442
:1087E400B4FBFAF40AFB04F4002D61D0A3EB050CEE
:1087F400A444B4453FF66BAF002868D1042B47D19D
:1088040058F8043B2360042304342AE0019A013A13
:1088140001924FF0000B24E011F8010C6C2834D1C4
:10882400002011F8023C83466C2BC5D14FF0080A96
:108834005346D3E708F1070828F00708073424F063
:108844000704F8E802AB35B106982044B0423FF67D
:108854003EAFC4E900AB4FF0000B08344FF0080AF8
:10886400534611F8010F002878D0BBF1000F7FF4B4
:1088740070AF2528F5D14FF0010B019B0133019313
:108884004FF0040AECE7584694E700208346A5E736
:10889400082B02D06FF015001BE708F1070828F039
:1088A4000708F8E80223C4E9002308230834D8E7BA
:1088B40068B9042B02D108F10408A4E7082BE9D114
:1088C40008F1070828F0070808F10808EDE7059AF9
:1088D400013A059258F8042B009210E7039A900786
:1088E40020D54FF0010CA4EB050E4FEA9E00BEF517
:1088F400007FCFD20F2FCDD8F5B107F140020DEB99
:10890400020E019AC0B20EF8200C0EF8102CBCF125
:10891400000F3FF41AAF60F07F000EF8200C09F14D
:1089240001090137C5F108024FF6DA7E04340692D4
:1089340097E74FF0000CDAE7BCF1000F01D00136E5
:10894400EFE7029802360028EBD10098CDE9063112
:10895400FFF718FCDDE906310644E2E7631BB3F5D3
:10896400806F97D245B9A6F10804E018B1E600BFBC
:10897400740E0100E0240100029A9B0828602B7009
:108984009DF81030C2B1EB7085F80290B9F1000F78
:1089940005D0002208A8C5F1010C97420ED14FF072
:1089A400000AC5F101030DF1200801930DF1300B0C
:1089B400574512D1601B8CE66B70E5E710F8013B5C
:1089C400190608D50CEB040EB64503F07F033FF6F9
:1089D4007EAE04F8013B0132DFE7B9F1000F03D0AA
:1089E40098F90020002A17DB029BD3B11AF80B2058
:1089F40004F8012B0022019B18191044B0423FF6E1
:108A040066AE98F80000009904F8010B2046039222
:108A140008F0A4F9039A14440AF1010A08F10108C0
:108A2400C6E798F8002055F822300093029B00987E
:108A340045F82230FFF7A6FB421CDCE76FF00D007F
:108A440047E600BF2DE9F04F97B000AFD7F880B0EC
:108A54003B62CBF3C0030446894690F802A0FA6255
:108A6400BB6141B9457800780AEB800020444D454C
:108A740017D8A0EB0409E378FB61BAF1000F02D028
:108A84001BF0010F16D1FB6953BBFB6A1BB14946AE
:108A940020463A6A98474D4628465C37BD46BDE8AD
:108AA400F08F461C3046FFF76DFB0130304409F16E
:108AB4000109DCE7626823787A62FA6A99007961CD
:108AC40004EB8301002A40F001810E464FF00008B8
:108AD4004D4601EB0A094E454CD101EB0A0610E064
:108AE4001BF0020FD1D023789A007A61626804EBFC
:108AF40083017A62FA6A002A77D14D46904601EBE7
:108B04000A061BF0050F0CBF02230123FB62FB695D
:108B140006EB430A0BF00203BB625645BCD016F8C1
:108B2400021B16F8013C54F82390994B994502D343
:108B3400984B994536D3BB69002B40D0786A06F030
:108B440099FE00283BD0E9468AB06A46924B5361AD
:108B54007B6AC2E906314FF4007313848F4B42F8E9
:108B6400103F00234FF412518D4800F017FD023DD1
:108B7400CD46D2E716F8013BF96254F82300FFF71B
:108B840001FBD7F88430F96A01304BB1D7F888304B
:108B940098453EBFD7F8843023F8180008F101083F
:108BA400054498E7BB6923B1786A06F063FE0028A0
:108BB400C9D11BF0010F05D1FB6AED1AADE7BB6A01
:108BC400002BAAD04846FFF7DDFAD7F8843053B11A
:108BD400D7F8883098453FBFD7F88420431C22F843
:108BE400183008F10108054497E7BAF1000F73D073
:108BF4001BF0040673D0D046002607F14800524605
:108C04003B61B96208F0AAF8B96A3B6901EB0A0250
:108C1400BA62FA69F9695200FA60BA6A02EB41026F
:108C24003A610BF00202BA603A69B96A8A4258D1D1
:108C340062781BF0020F18BF00217A6208BF4FEA66
:108C44005801B2181BF0010FD2B240F09F801BF004
:108C5400040F14BF40460020BB616270A070E17035
:108C640020463A6A7969FB6A9847051EFFF614AFF5
:108C7400BB69414623707B6A3A6A6370FB6984F876
:108C840002A0E37007F14800FB6A9847B0F10008BE
:108C9400C0F2BA807B69A9EB0A01C91AFB683A6A77
:108CA400C91AD7E90A0398470028C0F2AF804FF0E9
:108CB400000BA84408EB000507F1380AB34571D34B
:108CC40000213A6A0846FB6A9847E5E656464FF0A3
:108CD400000807F1380092E75646D04696E7B046BA
:108CE40094E7BA6A12F8021B12F8015CBA6254F8EB
:108CF4002500274A904202D3264A90421ED3BA69DD
:108D040032B1786A7B6006F0B5FD7B6800288BD1B0
:108D1400BA6802BB08F1280207F1300C08F101001F
:108D2400944407F1580208F1020852FA80F00CF852
:108D3400101C5FFA88F800F8105C75E7BA693AB15C
:108D4400786A7B6006F096FD7B6800287FF46CAF40
:108D54001BF0010F09D006F1280207F13000711C45
:108D6400161806F8205CCEB25EE71BF0040F3FF441
:108D74005BAF08F1280207F1300008F1010102EBB2
:108D8400000808F8105C5FFA81F84DE7002063E7FB
:108D9400740E0100E0240100AC160100040000017F
:108DA400801201001BF80A3054F8239087F83730FA
:108DB400D7F884302BB3D7F888309B4521D2D7F825
:108DC400843033F81B8001213A6AFB6A07F13700CB
:108DD400984700281ADB0544B8F1000F06D148462D
:108DE400FFF7D0F900F101081FFA88F84146484618
:108DF4003A6AFB6A9847002808DB05440BF1010B2B
:108E04005CE74FF00008DEE7454645E6054643E6E5
:108E1400014B1860704700BFA080002080B5054654
:108E24000E461746984605F041FE034608F016F82C
:108E34000446DFF81890424649F800303946304677
:108E4400A84754F8090001F0ABF900BF080000007E
:108E54002DE9F047058B04462807904611D40229D2
:108E640005F0070540F0CC80204606F0A3FF78B15A
:108E74000138218B042811D8DFE800F0C2106D8579
:108E8400950001290CBF45F0100545F02005258308
:108E940088F31188BFF36F8FBDE8F08701F0070AEC
:108EA400AA4500F0A5800027B9463E46A368002BDA
:108EB40000F0BC8041F00801218388F31188BFF3DE
:108EC4006F8FA168002900F0BA800D68002900F0B6
:108ED400B680334652462046D1F80480C047002D60
:108EE40076D02B6829461D46F0E701F007035A1F88
:108EF400012A1BD8002221F00701062B276889B21A
:108F0400C4E9002209D13B4603E0628B013262834B
:108F14001B68002BF9D141F002012046218306F0A1
:108F240049FF00287AD041F0200176E0042B0AD1D1
:108F340021F0070189B22046218306F03BFF10B1DE
:108F440041F020012183218B01F0070AAA454FD06B
:108F54000027B946AAE7236921F0070141F0060179
:108F6400062DD3F8009021832DD1B9F1000F3FD005
:108F740041F00801218388F31188BFF36F8F2046E5
:108F84003949C84729E021F00701236941F0040168
:108F940089B2042DD3F804902183E6D000274FF042
:108FA400040A3E4682E721F00701236941F00501E6
:108FB40089B2052DD3F808902183D6D000274FF02D
:108FC400050A3E4672E700274FF0060A3E466DE763
:108FD4002B4687E7B9F1000FD1D1EFF31188202395
:108FE40083F31288BFF36F8F238B23F0080323834B
:108FF400258BEA062ED525F01003238305F00705FB
:109004006669218B002EBFF670AF00232768C4E980
:10901400003321F0070141F001012183218B4FF03E
:10902400000901F0070AAA457FF440AF002F9CD045
:1090340041F00801218388F31188BFF36F8F002F5B
:10904400C8D03D68394633465246204606F0DEFE17
:109054002F46F4E7AB067FF51BAF25F020032383EF
:1090640005F0070500E700BF3DFE00002DE9F047CD
:10907400044607464FF00109DFF8508014B938461A
:10908400BDE8F08794FAA4F5B5FA85F509FA05F375
:109094002E0108EB05156FEA030A24EA03042B7B6F
:1090A400002BEBD058F806301B694BB94644736863
:1090B40004222846196807EA0A0706F083FFDDE759
:1090C400284698470028D9D1F0E700BFE0120100F4
:1090D40030B5002289B00F490F4807F017FE00226F
:1090E40000230024CDE906230E230C4DCDE90334DF
:1090F4004FF440722846CDE90144094B09490094D4
:1091040005F014FA0849284607F0DCFC204609B0AB
:1091140030BD00BF31910000E8850020608100204F
:1091240045940000F08B002060170100014804F012
:10913400BFBF00BF4C8100202DE9F0478046214885
:109144000F4606F023FF0646002833D000252846A4
:10915400BDE8F087237B83B12368DB680BB120462D
:109164009847636883F8069023681B69D3B96368DA
:1091740004222046196806F025FF013610345445B0
:10918400E8D3B8F1000FE2D0002DDFD02846FFF776
:109194006DFF0546002FF7D000214FF4A47007F0AF
:1091A40027FDF1E7204698470028E0D009FA06F3A6
:1091B4001D43E2E705464FF00109034CDFF80CA01C
:1091C400DDE700BFC0880020E0120100F0120100BA
:1091D400014B53F8200070474813010008B50346BB
:1091E40008462BB1044A136000F06EFC002008BD51
:1091F4006FF01500FBE700BFA480002010B5044CFD
:10920400237813B9034804F053FF0123237010BDDE
:10921400E08B00204C81002010B50446094806F07C
:10922400B5FE3CB1084BD3E8EF1F0139C3E8E21F98
:10923400002AF8D1054807F075FDBDE81040044840
:1092440004F036BFB8880020BC880020E8850020E0
:109254004C81002000200146034BD3E8EF0FC3E804
:10926400E21F002AF9D17047B888002070B5FFF7D3
:10927400F1FF0546074C084EB44200D370BD636845
:109284005B792BB123685B6813B129462046984764
:109294001034F1E7E0120100F012010010B5044CA3
:1092A4000449204606F01FFC034B1C6010BD00BFA0
:1092B400FC80002034130100B088002000230D4AF4
:1092C40010B513700C4A4FF4004113600B4A0C485C
:1092D4001360FFF783FFFFF7E1FF0A4B0A491846C3
:1092E4008B4200D310BD1A1A5C681211013222712C
:1092F4001033F5E7E18B0020B8880020BC880020FB
:109304008DFF0000E0120100F0120100014600226E
:109314000023014806F008BCFC800020014806F048
:10932400A1BC00BFFC800020024B0146186806F077
:10933400EDBC00BFB0880020014806F022BD00BF8C
:10934400FC80002070B5274B1878002849D0FFF71F
:10935400E5FF0546002841D1234B244C1B68002B14
:1093640019DD07F0D1FC4FF47A72A0FB020302FB73
:109374000131C30B43EA4143D4E900209B1A40F274
:10938400E9324FEAD13161EB0001934271F10001FE
:1093940001D3FFF76BFFD4E9003213F57A7342F17E
:1093A4000002C4E90032BDE87040FFF7C5BF63683E
:1093B4005B7923B12368294620461B6898471034FB
:1093C400B442F4D32846FFF7AFFF094BD3E8EF1FAD
:1093D4000139C3E8E21F002ABED0F7E7054C064E68
:1093E400EEE770BDE08B0020B8880020E085002007
:1093F400BC880020E0120100F012010070B50D4D90
:10940400297861B90120FFF797FE0B4C0B4EB4424B
:1094140006D3FFF797FF0028FBD101232B7070BD03
:1094240063685B791BB1236820469B6898471034B6
:10943400EDE700BFE18B0020E0120100F012010013
:1094440000212DE9F0470846FFF776FE044658B39D
:1094540040F267684FF0000907F000FD1B4B1C4AFF
:109464001B58136033B11B4B1B68092B02DD1A48D0
:1094740004F01EFE0025194FDFF85CA044B120461D
:10948400FFF7F4FD044618B94FF0FF384FF0FF39E9
:10949400FFF758FF064628B9B5B942464B46504631
:1094A40004F03AFE3546E9E74FF0FF384FF0FF3954
:1094B400D2E72B689B691BB10022284611469847C6
:1094C4001035BD42F5D3E8E7054DFAE70800000082
:1094D400B4880020BC8800204C810020F0120100D8
:1094E400E012010013B5184806F050FD174B1B7825
:1094F40073B1EFF31184202383F31288BFF36F8FCA
:10950400FFF720FF84F31188BFF36F8F02B010BD03
:109514000F4B1B68002BF9D050B9002200230D48D3
:10952400CDE900234FF40042002305F0BBFDEDE735
:109534000928EBD1074807F0F5FB074802B0BDE85E
:10954400104004F0B5BD00BFBC880020E18B0020B2
:10955400B4880020E88500204C81002010B5064B1B
:1095640004461B6898472146A060044806F05BFB4C
:10957400BDE81040FFF7B6BFA4800020FC800020A7
:10958400044A054B9B1AB1EBD30F34BF52F8310098
:109594000020704770120100E01201002DE9F04F25
:1095A4008FB0C1F34A2804AF0D469146B8607B6082
:1095B4000C0DB8F1000F63D000264FF0040B4FF0F0
:1095C4000A0A07F11403C7F80C80C7E907667E622C
:1095D4000193CDF808B0CDF800A007F11C03324682
:1095E4004846F968FFF72EFAB0F5006F03461CD31E
:1095F4006C468AB0D9F8041004AB26481A46C3E96D
:10960400050140F2FF71D9614FF400711984224BB6
:1096140042F8103F4FF4125133462048FFF7BEFF83
:10962400A5462C37BD46BDE8F08FC0F30A0804F107
:109634001700184420F0070080083B60FFF766FE1F
:1096440068F35325044690B13B6800F11001C7E963
:10965400083607F11403F961CDE900A3CDF808B089
:1096640048460F4AF96807F11C03FFF7EBF968F362
:1096740053252A4620467B68B96806F0C2FCD0E729
:1096840004F1170020F007008008FFF73FFE0446AE
:10969400EDE700BF7517010004000001A0120100EE
:1096A400DBFF00002DE9F04F87B00446DDE9105AD6
:1096B400DDE91279934698460391BFB13B46524681
:1096C40010210020CDF80090CDF81490FEF7E8FFAB
:1096D400B0F5006F06460AD340F2FF730221174A21
:1096E400174807B0BDE8F04F06F0E4BC3E4605F16C
:1096F4001700304420F007008008FFF707FE04F04D
:1097040007040BF0070BE40044EA8B1444EA4624F4
:1097140044EA0554054640B13FB13B465246314602
:10972400CDF800901030FEF7BBFF43462246284692
:10973400039907B0BDE8F04F06F063BCB41701000D
:10974400A0120100406820B1034BC01A40F3CF00BF
:1097540070474FF0FF307047701201000EB403B52C
:1097640003AB53F8042B01460448019301F038F885
:1097740002B05DF804EB03B0704700BF1B010100A9
:10978400CA0605D48B064CBF02490349FFF7E6BF5E
:10979400704700BFED170100EC1701002DE9F04FF1
:1097A40089B09B46149B9DF84CA00693159B0446D8
:1097B4000593169B0D469046179E0493BAF1000F2D
:1097C40000F09D8006F48073079306F0F9FB06F021
:1097D4000209024600283ED020469149FFF7BEFF09
:1097E4000746B9F1000F08D016F0440F35D12A46C8
:1097F40020468C49FFF7B2FF074406F0010353B13A
:10980400894B204653F82A20884B8949002A08BFEF
:109814001A46FFF7A3FF06F48073002B49D006F025
:109824000803002B63D1B8F1000F66D042462046EE
:109834008049FFF793FF0546069B3D44002B6DD1FD
:10984400049B002B73D1F30700F1E48031462046DA
:10985400FFF796FFD8E00746C3E7774B1868002860
:10986400CAD0764B4FF47A791B684FF03C0CB5FBA9
:10987400F3F5B5FBF0F14FF4616300FB115509FBFF
:1098840005F5B1FBF3F2B5FBF0FE03FB121100FB8F
:109894001E55B1FBFCF309FB05F5B5FBF0F50CFB1C
:1098A400131120460091CDE901E56549FFF756FF04
:1098B400A2E706F00803EBB1624B204653F82A20D6
:1098C4006149FFF74BFF0546B8F1000F05D042464A
:1098D40020465849FFF742FF0544BBF1000FABD0C7
:1098E4005A4620465949FFF739FF0544A4E74FF08B
:1098F400000BE1E706F00805E6E745469CE7BBF107
:10990400010F069B06D1002B64D1049B002B7BD056
:1099140000250CE0002BF8D04D485CE04D48069B38
:1099240022464D4905F075FF049B002B68D0DFF8F3
:109934002C81DFF82C91049F3146102F204628BF3C
:1099440010274FF0000BFFF71BFF5D4545DC059B1F
:10995400494620461A78FFF701FF4FF0010B1BF030
:10996400070F03D141462046FFF7F8FE5F453BD978
:10997400059B4946204613F80B20FFF7EFFE0BF139
:10998400010BBBF1100FEAD14FF0000B2046354913
:10999400FFF7E4FE5A46059B20469A5CA2F120019B
:1099A4005F2928BF2E223049FFF7D8FE0BF1010BA7
:1099B400BBF1100F1DD01BF0070F03D14146204609
:1099C400FFF7CCFE5F455A46E5D841462046FFF7EF
:1099D400C5FEEBE71F485546A1E741462046FFF781
:1099E400BDFE0BF1010BB0E720462049FFF7B6FEA0
:1099F400C5E7059B3B440593049BDB1B04939AD169
:109A0400BAF1000F7FF41FAF204609B0BDE8F04F54
:109A140006F074BB2046054A0549FFF79FFE15E78B
:109A2400F4170100F817010058130100EF170100A3
:109A34001A1E01001D180100C8880020C4880020D7
:109A4400011801006C1301002118010027180100FE
:109A5400490101001B010100E5A7000034180100C1
:109A64002C180100361801003818010032180100C2
:109A740042F20F7373B58B4228BF0B460568044648
:109A8400052168460D4A05F05DFB064663682846D5
:109A94000B225B680A4906F023FB63683246694679
:109AA40028465B6806F01CFB63681B2228465B683B
:109AB400044906F015FB02B070BD00BF4C1E010046
:109AC400571801003B18010000210123064A904267
:109AD40006D8064A01B901231360054B1860704784
:109AE400012140085B00F2E740420F00C4880020D7
:109AF400C8880020F8B50D460446064F4618B442FF
:109B040001D12846F8BD14F8011BBB6801485B6805
:109B14009847F4E7540F0100014B0360002070479D
:109B2400B413010008B5044805F0CBFEBDE80840B5
:109B3400024805F0C6BE00BF9D180100D2180100FE
:109B44002DE9F04706460C4600AF002936D0D1E98E
:109B54000012E9468AB06D46A3684FF0050AA8468C
:109B64001F48C5E90723C5E9050148F810AF0023DC
:109B740042464FF421511B48FFF710FDD4E903126C
:109B8400CD466369AD461848C5E90723C5E9050113
:109B9400C5F810A0002342464FF421511148FFF7A5
:109BA400FDFCCD46E3690121104A0E4806F082FA15
:109BB400A36901210E4A0B4806F07CFA012E07D155
:109BC400EFF305830B4A31460648103B06F072FA60
:109BD4002146304604F00AF8BD46BDE8F08700BFD0
:109BE40000190100C81201002F1901005E190100BB
:109BF4006D1901009B19010030BFFFF7FDBF00BFC5
:109C04002DE9F04105460B4EDFF82C80324606EB79
:109C14000807CC1B2046094907F0A0F8A0194246C2
:109C24000021083C07F0A7F82C6707F10800BDE8FD
:109C3400F08100BF0000000004000000F0120100E9
:109C4400054B5A699B689A421FBF044A536843F004
:109C540080535360704700BFAC8B002000ED00E0E0
:109C640070B52A4C06460D4629482A4906F0F1FAF1
:109C7400A36ADB0647D52648274906F0EAFA1120ED
:109C8400A36A1C0704D52248244906F0E2FA1220EC
:109C94001E4CA36A990712D521491D4806F0D9FA2A
:109CA400636BA26A120609D501211E4A184806F000
:109CB40001FA1EB1A36A23F08003A3621320134C9C
:109CC400A36ADE0704D51248174906F0C2FA142025
:109CD400A36A9C0604D50E48144906F0BAFA152066
:109CE4000A4B9A6AD10658BF9A6A9A6A920642BF88
:109CF4005A6A22F400525A629A6A42F0FF029A6245
:109D040000232B7070BD1020BAE700BF00ED00E007
:109D1400C8120100AE190100C4190100F7190100AD
:109D24000A1A0100221A0100381A0100571A010008
:109D340010B5244C2449254806F08BFAA36A9901EE
:109D44003ED52248224906F084FA1E20A36ADA018D
:109D540004D51E481F4906F07CFA1F20194CA36A3B
:109D6400DB0204D519481C4906F073FA0220A36AE1
:109D74001C0304D51548194906F06BFA2120114C2F
:109D8400A36A590304D51148154906F062FA222042
:109D9400A36A9A0304D50D48124906F05AFA2320FF
:109DA400084CA36ADB0304D508480F4906F051FAAE
:109DB4002420A36A6FEA03436FEA1343A36210BD2E
:109DC4001D20C3E700ED00E0861A0100C81201005F
:109DD4009E1A0100B11A0100CB1A0100F51A010004
:109DE400131B0100381B0100521B010070B5294CE4
:109DF40006460D462848294906F02BFAA36AD904D9
:109E04003CD52548264906F024FA1720A36A1A05EA
:109E140004D52148234906F01CFA18201D4CA36AD6
:109E24009B0512D51C48204906F013FAA36BA26ABD
:109E3400100409D501211D4A174806F03BF91EB14B
:109E4400A36A23F40043A3621920124CA36A5905A0
:109E540004D51148164906F0FCF91A20A36ADA055C
:109E64000ED50D48134906F0F4F91B20094A936AEC
:109E740043F47F43936200232B7070BD1620C5E723
:109E8400A36A9B04F2D504480B4906F0E2F91C20AE
:109E9400ECE700BF00ED00E0C81201007D1B0100EB
:109EA400931B0100F7190100A41B0100BD1B010055
:109EB400D21B0100ED1B0100571A01002DE9F047E8
:109EC4008AB0694B0446D3F804A089461646002597
:109ED40000AFCAF3080885F31188BFF36F8F02F04F
:109EE4007F43B3F17F4F1ED1D3071CD4500603D454
:109EF400110708D4012508E05C495D4806F0A9F97A
:109F040016F0040600D04C4600250023FB71A8F18E
:109F14000303092B00F28680DFE803F0077C7F78D7
:109F24008484848484822C46EFE75249504806F0A6
:109F340090F900234C4EFB71F36A9A0705D54E49FC
:109F44004B4806F086F9002329E0F36A002B01DA76
:109F54004A49F5E7F36A5B00F5D54949444806F0F8
:109F640078F97369A26943F480737361BFF34F8F07
:109F7400BFF36F8F736932F8022C23F4807373611B
:109F8400BFF34F8FBFF36F8F4DF602739A4228D100
:109F9400236801213B4A364806F08CF82368FA7995
:109FA400DAB907F1080604F1200C3246206861682A
:109FB400083403C264451646F7D17A6A002D4ED0A0
:109FC400C2F3080121B96FEA52226FEA42227A628F
:109FD400184607F10801FFF7B3FD2837BD46BDE871
:109FE400F087B36ADBB223B10120F91DFFF738FE15
:109FF4000EE0B36A13F47F4F04D00120F91DFFF77C
:10A00400F5FE05E0B36AB3F5803F9CD3FFF790FEFD
:10A014000346C4E70020F91DE8E70020F91DEEE738
:10A0240019498DE7194A6E461AF4F87F8AB0184B1D
:10A0340018BF13466A461749C2E90513A8F110036D
:10A04400D3614FF400731384134B42F8103F002381
:10A054004FF411510648FFF7A1FAB54673E722F40D
:10A06400FF7222F00102B2E700ED00E0331C0100B0
:10A07400C8120100561C01006D1C01008E1C010059
:10A084009C1C0100BB1C0100D71C01001A1C010010
:10A09400051C0100FB1C010004000001064B5A6969
:10A0A40042F010025A615A6942F480625A615A6954
:10A0B40022F008025A61704700ED00E0EFF30880D7
:10A0C400EFF3098101B57246FFF7F8FE01BD00BF49
:10A0D400002080F31488BFF36F8F002080F30A8878
:10A0E40080F30B880F4880F3088806F08BFB002070
:10A0F4000D490860BFF34F8F00F02CF8202080F347
:10A1040011880A484FF40061401880F30988EFF37E
:10A1140014800221084380F31488BFF36F8F00F08A
:10A12400DBF80000309C002094ED00E0F08E00206D
:10A13400002318460649D1F89020C2F3072293421F
:10A1440000DB7047C1F89830C1F8A0000133F6E78E
:10A1540000ED00E010B572B6002484F31388FFF715
:10A16400E7FF23464FF0FF300C4A03F1200101338F
:10A17400102B42F82100F8D100234FF0FF30074A9A
:10A1840003F160010133102B42F82100F8D162B6CB
:10A19400BFF34F8FBFF36F8F10BD00BF00E100E02E
:10A1A400084B9B6883420BD1EFF3058343B1064B05
:10A1B4005A6842F080525A605A6A22F400425A6243
:10A1C40004F07ABCAC8B002000ED00E016498A68EC
:10A1D40082F87DE04FF030001044EFF3098C80E802
:10A1E400F01F202080F31288BFF36F8F0F4F4FF0C2
:10A1F40000664A698A603E60106F0D4C206092F9D7
:10A204007DE0506F0023536780F3118802F1300022
:10A2140090E8F01F8CF3098802F1000004B506F001
:10A2240022F8BDE804407047AC8B002004ED00E048
:10A23400F08800201EF0040F0CBFEFF30880EFF34A
:10A244000980816911F8021C0229FFD001B5724608
:10A2540005F0F4FF01BD00BF40B2002807DB012375
:10A264004109034A00F01F00834042F8213070473F
:10A2740000E100E0054B420953F82220012300F0DD
:10A284001F0003FA00F01040704700BF00E100E037
:10A2940040B2002801F10101ACBF00F16040064B5F
:10A2A4004FEA4111C9B2ABBF00F5614000F00F00A5
:10A2B40080F800131954704714ED00E0044B054A6C
:10A2C40023F07F039360BFF34F8FBFF36F8F70470B
:10A2D4000080000000ED00E008B5FFF7EFFF074A3B
:10A2E400D2F8883023F47003C2F8883003F06CFD90
:10A2F40004F016FD00F048F803F0A6FD00ED00E0C0
:10A3040042F8203C009B0C4942F81C3C019B21F084
:10A31400010142F8183C029B42F8081C42F8143C24
:10A324004FF0807342F8043C002343674FF43C43EE
:10A33400203A0265C3677047218E000000B50B4BBD
:10A3440015469860026F0A4B0E461A60036E83F33B
:10A354000B882C4686F309880020064B9847204634
:10A36400002100220023044C204700BFAC8B0020B6
:10A37400F088002073020100218E00001022014B9E
:10A384001A61704700ED00E0002320210348C21841
:10A394000133452B82F80013F9D1704700E100E046
:10A3A40008B5EFF30583064A103B02EBC30152F8EC
:10A3B400330049688847BDE80840FFF741BC00BF47
:10A3C400B40F01001FB5094C094A2346012109486D
:10A3D40000F012F900230393074B0121E41A01A8AA
:10A3E4000193029400F012F904B010BD000007209C
:10A3F40000800020B41301006081002010B50C7AA5
:10A404000B6804F01F0223F01F031A43CB6864098E
:10A4140023F01F03054943EA440343F00103C1F851
:10A424009800C1F89C20C1F8A03010BD00ED00E0F8
:10A4340010B50A4BD3F89030C3F30723013B98427D
:10A4440008D901210346064A064805F033FE6FF099
:10A45400150010BDFFF7D2FFFBE700BF00ED00E0E1
:10A46400121D0100B81201002DE9F04F894614466F
:10A4740006464FF00008514D85B0C84527DAD6F896
:10A4840004A0BAF1000F44D0BAF11F0F17D91AF083
:10A494001F0F14D1D6F800B01BF01F0F0FD1584670
:10A4A40005F021FF07460AEB0B00013805F01BFFFE
:10A4B400874210D06FF01507414A3B4601E04346FE
:10A4C400404A0121404805F0F5FD6FF0150420468F
:10A4D40005B0BDE8F08F17F1160FEDD0BC42EBDDEF
:10A4E400C5F89870D5F89C10C5F89870D5F8A030C8
:10A4F40021F01F0143F01F0BD6E900321A449942A0
:10A5040002F1FF3A1DD1D34507D13146F8B205F027
:10A51400F3FE08F101080C36AFE73146C5F8987030
:10A52400D5F89C3022F01F0203F01F031343C5F833
:10A534009C30E0B205F0E0FE10F1160FC5D0441CCB
:10A54400E7E7C5F89870D5F8A020013B23F01F0376
:10A5540002F01F021343D3453146E0B2C5F8A030E0
:10A56400E8D005F0C9FE10F1160FAED0C5F898700A
:10A57400D5F89C209DF808300BF1FF3B62F30403EF
:10A584008DF80830D5F8A0309DF808205B0863F3F7
:10A5940047128DF80820D6E900321344009323F0C3
:10A5A4001F035B44A3EB0A03013023F01F03694636
:10A5B400C0B20393FFF73CFFBEE700BF00ED00E02D
:10A5C4005B1D0100381D0100B81201000522044B77
:10A5D400C3F89420BFF34F8FBFF36F8F704700BF52
:10A5E40000ED00E0BFF35F8F0022024BC3F894201C
:10A5F400704700BF00ED00E010B5034C2278FFF770
:10A6040033FF207010BD00BFE38B00202DE9F74F0E
:10A61400294D8A4606464FF00008AB46274FD045E1
:10A624001BDAD6F80490B9F1000F3FD03168084620
:10A63400019105F058FE0199044609EB0100013827
:10A6440005F051FE84424FF014021D4B08D002FB6A
:10A6540008F36FF015024BF8032003B0BDE8F08F48
:10A6640014F1160F2C60F8D01978A142F5DD02FB25
:10A6740008B0C7F89840C7F89840D7F89C4000F154
:10A684000801007B64F304000871D7F8A0000C797A
:10A69400400860F347140C71D7F89C1021F01F0197
:10A6A4006960D7F8A01021F01F01296108F10108A1
:10A6B40014350C36B3E700BFF488002000ED00E049
:10A6C400E38B0020F0B54149414CD1F89030256826
:10A6D400C3F307239D4287B075D80020FFF782FF9C
:10A6E4003C4BC1F8C030854216D13B4C01A82570C3
:10A6F400FFF712FA00250646384FAE4213D1002068
:10A7040023783249D1F89020C2F30722934254DBD4
:10A71400FFF75CFF00202FE0616801EB0011FFF7F9
:10A724006DFE0130DFE70199280101EB0513DA68BA
:10A734003A40B2F5001F21D0B2F5800F2BD0B2F50C
:10A74400801F38D15A689B680958013B22F01F00CA
:10A7540003440120844623F01F0340EA4C10CDE952
:10A7640002218DF8100002A920780593FFF760FEFE
:10A7740000281DDA6FF0150007B0F0BD5A689B6819
:10A784000958013B22F01F0003444FF0020C012042
:10A7940023F01F03E1E75A689B680958013B22F044
:10A7A4001F0003444FF0000C062023F01F03D4E7DE
:10A7B40023780133237001359FE7C1F89830C1F83D
:10A7C400A00001339EE74FF0FF30D5E700ED00E035
:10A7D400C0130100AAFF4400E38B00200000F0FF37
:10A7E400F0B587B007460E4614460021102268468D
:10A7F4001D4606F0C0FA02238DF80230054B2A46A6
:10A8040021466846CDE90476019304F0C7FC07B0FD
:10A81400F0BD00BF2F03010008B5024B1B68984729
:10A82400002008BD08890020034B044A186093786F
:10A8340043F002039370704708890020B080002021
:10A8440008B50649064821F00701C1F1005202F596
:10A85400E02204F086FF002008BD00BF37A00020DE
:10A864000C890020052370B5144D154E2C78013445
:10A87400B4FBF3F303EB8303E41A05F039FF114A45
:10A88400137823B156F82430C01A072813D90E4B75
:10A89400D3F8141141B10021C3F81411D3F81431C1
:10A8A4002C700CB9012313702C7805F021FF46F8A5
:10A8B4002400012070BD0020FCE700BFE58B0020D0
:10A8C40018890020E48B00200050004007B50DF1EA
:10A8D400070001F0C9FF0F4B984218D14FF4806272
:10A8E4000D4B0E49C3F8B8254FF40062C3F83C255C
:10A8F4009DF8070005F08FFF9DF80700084905F053
:10A9040085FF01209DF80730984001F0A7FF03B0B0
:10A914005DF804FB0000AD0B00A002402CA0024037
:10A9240028A1024048B1054B054A1B68B3FBF2F36A
:10A934005843044B43F0010318477047C08000207C
:10A9440040420F00F0120100012270B50C4605468A
:10A95400054B0020C3F8142605F000FD28462346C5
:10A96400BDE8704000211847005000402DE9F04137
:10A97400064601200D4605F0F1FC154B154CD3F8A5
:10A984003021D3F83431072A1ED1023B032B02D8DD
:10A99400114AD35CC3B14FF0010800270520C4F865
:10A9A4001886C4F8147605F02FFF4046C4F81486C0
:10A9B40005F02AFFC4F81476C4F8187630462B46FE
:10A9C400BDE8F041002118470023C4F81436F5E728
:10A9D40000F0072000500040911D01000149024889
:10A9E40005F037BAE81301002C890020044B00203D
:10A9F400D3F80425D20744BF0022C3F804257047C6
:10AA040000F0024014280ED8084A12F8103053B14E
:10AA140002EB4002527832B10868434393FBF2F3ED
:10AA240000200B6070476FF015007047B51D0100E2
:10AA340008B502F0E7FE094A034690420DD00848E3
:10AA44000121084A05F036FB6FF00403064843620F
:10AA5400BDE80840143005F09CBC08BD0000AD0BF7
:10AA640078120100DF1D010000800020044B93F8E0
:10AA74003A3013B1034802F075BFFFF7D9BF00BFE6
:10AA8400008000203DAB0000074BD3E8EF2F511CA2
:10AA9400C3E8E01F0028F8D10AB9FFF7E7BF6FF059
:10AAA4000F025A62704700BF0080002080B500AFDB
:10AAB40088B06A46094BC2E905304FF400739383AA
:10AAC400074B42F8103F00234FF4E2510548FEF7CC
:10AAD40065FD6FF00400BD4680BD00BFFD1D010093
:10AAE400030000017812010010B500220E4904464B
:10AAF4000E4806F00BF9002002F054FD0C4B98426E
:10AB040004D02068BDE81040FFF7D0BF0022012127
:10AB14000E20FFF7BDFB0748C36813B9043005F0E6
:10AB240038FC002010BD00BF8DAA0000608000200A
:10AB34000000AD0B008000202DE9F0410778002FC4
:10AB440040F08E80514CE26A94F850C025461CEACD
:10AB5400020F0AD100224E4BC3F80025A36A6BBB37
:10AB64004C48BDE8F04105F014BC0123B0F808E0FE
:10AB7400A66D4FEA4E0ED0B218420AD094F898202F
:10AB84000CEA030192B121B132460EEB0601914267
:10AB940004D15B009BB26345EED9DBE732F9028B4B
:10ABA400B8F1000FB8BF22F8027CF0E721B1B6F982
:10ABB40000100029B8BF32800236EAE7236CB4F8EB
:10ABC4004C2033B1344935489847012828D002280D
:10ABD4003BD0B4F84C30B4F848209A4235D901330C
:10ABE400A4F84C3094F89830F3B9A36D94F851203C
:10ABF40003EB4203A36594F85110A06D02F0BCFD71
:10AC0400274A034690420FD00121264A264805F0E0
:10AC140051FA6FF004031F48636205F0BAFB03E0C6
:10AC240094F89830002BE6D0E36B1BB9BDE8F041F3
:10AC3400FFF71CBFD5E8EF3F5A1EC5E8E12F0029F6
:10AC4400F8D1012BF2DCBDE8F081E36B002B87D057
:10AC540094F89830002B83D1144806F063F87FE70A
:10AC6400022F10D102F0CEFD0D4A03469042EAD0E5
:10AC74000D4801210E4A05F01DFA6FF00403034844
:10AC8400436214306DE7052FDDD169E700800020B1
:10AC940000E000401480002028800020740F010090
:10ACA4000000AD0B1D1E0100781201006080002021
:10ACB400DF1D0100002330B50A7987B0CDE90333E5
:10ACC4008DF8143002F01F030C46072BC2F3040165
:10ACD4008DF8151008D90121524A534805F0EAF9B4
:10ACE4006FF0150007B030BD61798DF8131012F0C4
:10ACF40020010CBF0A46A2798DF8142022780C2A70
:10AD04001ED8DFE802F00A07111D131D151D1D17BB
:10AD1400191D1B0001228DF80E206278032A15D01C
:10AD2400042A16D0414A0CE00222F4E70322F2E797
:10AD34000422F0E70522EEE70622ECE70722EAE721
:10AD44003B4A0121384805F0ACF9C9E701228DF8E6
:10AD54000F2044F20A006288824227D843F6FE702C
:10AD6400824203D8002A52D0324AEAE7A2F57F523F
:10AD74003F3A0B2AF8D801A050F822F01BAE00008D
:10AD84006DAD00006DAD00006DAD0000D3AD0000F1
:10AD94006DAD0000CDAD00006DAD00006DAD0000E7
:10ADA4006DAD00006DAD000013AE000044F2140060
:10ADB40082422ED044F2280082422CD044F20F006A
:10ADC4008242D1D1032200E001228DF81020012516
:10ADD400194A05FA03F392F85000DBB2E9B1A179FC
:10ADE40009B18DF8115020EA030303A882F850300A
:10ADF40002F022FC114B984211D0237903F01F0377
:10AE0400012100900E4A084805F05EF968E7022225
:10AE1400DBE70422D9E70522D7E70343E5E700206F
:10AE240060E700BF381E0100781201006E1E0100A9
:10AE34004F1E0100921E0100008000200000AD0B97
:10AE4400BD1E01002DE9F0430E4685B04FF0FF33DF
:10AE54004FF0FF327C4803F05FF977687B1EFE2BCE
:10AE640005D97A4A01217A4805F01BF910E000253A
:10AE74002C4627FA05F3DA0715D502F0EDFBE84076
:10AE8400C3070ED42B46734A0121714805F012F909
:10AE94006FF015046C4805F07CFA204605B0BDE857
:10AEA400F0830134E4B20135082DE2D10CB96A4AC9
:10AEB400D8E7337CA3F10802062A0FD8DFE802F0B2
:10AEC400100E120E040E0C000221012C727C0BD009
:10AED400002A45D0614AC5E70321F6E7604AD3E773
:10AEE4000021F2E70121F0E7082A06D8DFE802F0A2
:10AEF400080808080808080808001346594AC3E760
:10AF040033686BB3186801387F2829D88DF8082076
:10AF140000228DF809201B68534A1B01013BADF840
:10AF24000A300123384682F898308DF80C3002AA92
:10AF34004E4B02F0C7FB4E4B9842A9D133686200D6
:10AF440013B19B8903FB0222F368934211D20121BE
:10AF540000923F48474A05F0B7F86FF00B0499E7B1
:10AF64000020414B83F898003846404B02F07AFBAE
:10AF7400E1E73D4D214685F85140B06895F8983099
:10AF8400A946A8652BB133689B89013313FB04F4EC
:10AF9400A1B202F0F1FB364B8046984202D0364A09
:10AFA400034671E73746354C0FCF0FC43B68002783
:10AFB40023606F623368002B42D00FCB261D86E8D6
:10AFC4000F00EB6BAE62A5F84C70002B38D0D9E8BB
:10AFD400EF3FC9E8E27F002AF9D195F89810E9B962
:10AFE4004FF40047E86B264E0023E0FB0761254A37
:10AFF4003046FDF7ADF80022CDE90001002304F14D
:10B00400280004F04FF84FF0FF324FF0FF331E4892
:10B0140003F082F800B168626C6A3BE702F0F2FB6D
:10B0240040450346EFD00121184A094805F042F88B
:10B034006FF00403A4F124006B6205F0AAF9E2E7BF
:10B04400FFF714FDDFE700BF04800020DD1E0100D0
:10B0540078120100FB1E0100151F0100501F0100A2
:10B064002B1F0100821F0100008000203DAB000067
:10B074000000AD0BA51F01001D1E0100288000204B
:10B084003F420F0040420F0014800020CA1F0100FD
:10B09400084B70B5C31A0D4607499B100446594323
:10B0A4004022064805F080F92B4601462046BDE8BB
:10B0B400704018475C890020B76DDBB6F40E0100C0
:10B0C400402373B50B4C0093041B0B460D460A49F1
:10B0D400A41061430646094A094805F090F9011E87
:10B0E40005DA30462B4602B0BDE87040184702B07E
:10B0F40070BD00BF5C890020B76DDBB66B04010036
:10B10400F40E010010B5EFF31184202383F31288A9
:10B11400BFF36F8F074A136823F00201DB07116046
:10B1240002D4012005F083FB84F31188BFF36F8FF1
:10B1340010BD00BFFC8900202DE9F8430022012145
:10B1440006460520FFF7A4F8114801F011FC114B45
:10B15400984219D101F01CFC00244FF01C090C2763
:10B16400DFF834803569414609FB045004F071FE70
:10B17400002807DB012307FB04551C44042CAB67A0
:10B18400F0D10020BDE8F8836FF00400FAE700BFB7
:10B194009DB200000000AD0BF41301001FB50022A6
:10B1A4000123CDE902236B46084ACDF800D0CDF83F
:10B1B40004D005F051F9002805DB4FF48042002348
:10B1C400684602F0A9FF05B05DF804FBA104010084
:10B1D4000C22104B014602FB0033002030B4D3E9AB
:10B1E4001C521867EFF31180202484F31288BFF3F4
:10B1F4006F8F9C6F04F0C00444F002049C6780F3DA
:10B204001188BFF36F8F1DB12B4630BC024818471D
:10B2140030BC70475C890020F40E010010B4EFF3D9
:10B224001182202383F31288BFF36F8F17480168BC
:10B2340041F002040460C80707D482F31188BFF305
:10B244006F8F012010BC01F0BBBB1149D1F80C0475
:10B25400D1F80C14C907F0D5EFF3118083F31288E9
:10B26400BFF36F8F0B498B6F03F0C00343F00203EE
:10B274008B6780F31188BFF36F8F82F31188BFF35C
:10B284006F8F002010BCFFF7A3BF00BFFC89002014
:10B29400005000405C890020092813D8DFE800F042
:10B2A40005101212121212120E0C074B986F10F0A6
:10B2B400070007D1FFF78CBF0220FBE70320F9E763
:10B2C4000120F7E7704700BF5C8900202DE9F041B9
:10B2D400012207463449D1E8EF3FC1E8E02F0028B6
:10B2E400F9D133B9314932484B60CB608A6004F0FC
:10B2F400C3FD7B1E012B28D8012F06D12D4BD3F87B
:10B304001C3403F00303022B1FD005F0D5FB0546C4
:10B31400E8B9294B1B78D3B102220646254BC3F862
:10B324000823244CDFF89480D4F81824D4F8183473
:10B33400D20315D503F00303022B01D0012F0FD143
:10B344006DB386F31188BFF36F8FBDE8F081EFF31F
:10B354001186202383F31288BFF36F8F0125E0E762
:10B36400C5B1304604F0A3FFD4F81835DBB2012B85
:10B37400DAD1D4F80421002AD6D00022C4F804215A
:10B38400D4F804210222C4F818252022C8F8802108
:10B39400A360C9E70021212005F02AFCE4E702228A
:10B3A400044BC3F80423D0E75889002048890020BF
:10B3B4007889002000500040EA8B002000E100E082
:10B3C40008B5074805F0D9FA38B10648FFF72CFA52
:10B3D4000448FDF71DFD002008BD6FF01200FBE7D7
:10B3E400540F0100EDB300000A2838B50446074D98
:10B3F40004D1AB680D2128465B689847AB680348C5
:10B404005B68E1B29847204638BD00BF540F010085
:10B41400F0B51646426801F01F04107B87B044EA79
:10B4240040141069002871D0B6F5001F02F1100510
:10B4340006D12146284605F07AFA002007B0F0BD6F
:10B444000027B6F5800F01A80197476039D1B3F101
:10B45400007F14BF052304238DF804300023CDE9B5
:10B464000403039393680DF1030723FA01F111F028
:10B4740001013DD1B6F1A07F3AD104F01F03620966
:10B4840003F1800328D0012A46D1254A52F82330FB
:10B49400DB072DD43A462146284601F0A5FD214B71
:10B4A40098421BD002972146284603AA01F054FC77
:10B4B4001D4B98422DD101222146284601F0ECFD76
:10B4C400BBE7B3F1C06F05D0B3F1007F14BF012314
:10B4D4000223C1E70323BFE7144AD7E739462846C6
:10B4E40001F0D2FD104B9842DCD06FF00B00A5E7C1
:10B4F4003A462146284601F077FD0B4B9842D2D1BB
:10B5040028469DF8031001F0B7FDCCE76FF08500E5
:10B5140094E76FF0150091E751F82330FFDE00BF88
:10B52400002884400400AD0B0000AD0B00258440CE
:10B534004209034670B502D0012A17D070BD0D4EE2
:10B54400326951680029F9D0012503F01F030C6802
:10B554009D400029F2D08A682A4002D030464B68C8
:10B5640098472CB1236821461C46F2E7024EE7E7D0
:10B574002346F8E7340F0100140F010038B545687D
:10B584002B69B3B11035284601F06CFD044680B92F
:10B594000146284601F042FD084B98420BD1224651
:10B5A4002846074901F01AFD224605212F20FEF7FF
:10B5B4006FFE002038BD6FF00400FBE70000AD0B08
:10B5C40035B500002DE9F04340F206354668D00653
:10B5D40048BF0320337B02EA050558BFC2F340107D
:10B5E40087B001F01F07B5F5837F144647EA431778
:10B5F4008DF8030043D00FD8062D18D007D8B5B165
:10B60400022D3ED06FF0150007B0BDE8F083B5F50C
:10B61400807FF7D101250AE040F20222954232D020
:10B62400B5F5407F31D0B5F5007FEBD1022522037B
:10B634002DD5012372688B409360326982BB07F079
:10B644001F037F092AD0012F77D13E4A02EB8302E0
:10B6540084F48033D2F80012C3F30043C4F34044AB
:10B6640044EA430421F4706144EA800421F00F01A8
:10B6740044EA05230B43C2F800320020C4E707253F
:10B68400D5E70425D3E70525D1E70325CFE76303F1
:10B6940041BF012372688B40D360CEE72A4AD5E7C5
:10B6A4001036394630460DF1020201F09DFC14F4C7
:10B6B400403F80460CD13946304605F036F9234BDD
:10B6C4009845DAD130469DF8021001F0D5FCD4E754
:10B6D4004FF0000901AB3946304603AACDE90439DD
:10B6E400CDE90199CDF80C9001F036FB174B984247
:10B6F40088D114F4003315D09DF8033084F48034D9
:10B70400C4F300448DF80E3039464B46304603AA44
:10B714008DF80C508DF80D4001F0DEFB0B4B984278
:10B72400CDD06FE7CDE9043339460DF1030330463C
:10B7340003AA039301F010FBF0E7803352F823309F
:10B74400FFDE00BF00288440002584400000AD0BCC
:10B75400B0B500AF224D284605F00FF9034678BB7B
:10B764006C4688B029686A461E48C2E905014FF450
:10B77400007191831C4942F8101F4FF4E2511B4899
:10B78400FDF70CFFA5466FF012042046BD46B0BD80
:10B794002B686D468AB06A461549C2E9051315231C
:10B7A400C2E907344FF400739384124B42F8103FFC
:10B7B40000234FF431510D48FDF7F0FEAD46E4E7A8
:10B7C4002A69A9681368284623F4001313600B68D8
:10B7D4004FF4C02215219847041ED9DB0024D4E776
:10B7E400340F01004E2001000300000198120100F3
:10B7F4006520010005000001036803F01F025B09D6
:10B80400026004D0012B034818BF0020704702488F
:10B81400704700BF00288440002584402DE9F04F84
:10B824001546834640F2FF18DFF87C91DFF87CA1CF
:10B8340085B000EB8101594503D1002005B0BDE876
:10B84400F08FDBF80030C3F3C322082AC3F30804E3
:10B8540000F2A4801B0E444508BF4FF0FF3419F8D2
:10B864000270192B00F29D80DFE803F00D141A1DFD
:10B8740020261D9B9B9B9B356265686B6E7174775C
:10B884009B9B7A8F9295C5F80C45601C72D10BF185
:10B89400040BD0E7C5F81445621CF8D0002672E00A
:10B8A400C5F80845F1E7C5F81045F5E7631CC5F888
:10B8B4000845ECD0002604E0C5F80C45661CE6D02B
:10B8C400012603A80394FFF797FF0122039B02FAC2
:10B8D40003F3C36008E0C5F80845002FDCD1601C01
:10B8E400D5D0002606273246DBF80030039403F453
:10B8F4000040002818BF002203A818BF01260193A6
:10B904000092FFF779FF039C019B00EB8400D0F8C1
:10B914000042C3F3412C009A3B0243EA8C031343D5
:10B9240004EA0A04234343EA4603C0F80032AEE7BC
:10B93400C5F80C45D1E7C5F86445BFE7C5F86445CB
:10B94400AAE7C5F86845B9E7C5F86845A4E7C5F8A6
:10B954006C45A1E7C5F87045B0E7C5F86045ADE7AB
:10B96400C5F86045621CDBF8003090D0C3F3004397
:10B97400002BA5D0012603A80394FFF73DFF039BEA
:10B9840006FA03F383603246AEE7C5F86445E9E797
:10B99400C5F86845E6E7C5F86C45E3E76FF01500C0
:10B9A4004CE76FF0850049E7A8200100F0F0FCFFA8
:10B9B4002DE9F04104460D46476805F07DF84FF047
:10B9C400200888B9264B1B7873B16426606804F09C
:10B9D40043FEF0B9012004F017FF013EF6D1002127
:10B9E400212005F005F9F0E7EFF31186314688F3DD
:10B9F4001288BFF36F8F606804F02EFEA8B986F337
:10BA04001188BFF36F8FEFE786F31188BFF36F8F51
:10BA1400E5E7EFF31186314688F31288BFF36F8FA1
:10BA2400606804F019FE0028EED0FB6900201D7048
:10BA34006368FA691B68C3F844250122C3F84825E2
:10BA4400C3F82001D3F82041C3F85801D3F85801B2
:10BA54009A6081F31188BFF36F8FBDE8F08100BF56
:10BA6400EA8B0020F8B50546002201210820FEF7E4
:10BA74000FFC0820FEF7F0FB6C680121E06804F07D
:10BA84001CFE6B6819682369C1F82435A27D637DA7
:10BA9400207D1343228B02431343C1F86C356E6837
:10BAA400D6E9004313F001034AD02F6907F10800D7
:10BAB40000F0DAFE2F4B984207D02F4801212F4A7D
:10BAC40004F0EFFA6FF00400F8BD387A04F10C02C8
:10BAD40004F5907104F0A4FE387A012707FA00F007
:10BAE40000F0BCFE0823C4F80035F369C4F84435FB
:10BAF4000023C4F84835A760D4F85831002BFBD094
:10BB04000026C4F800656B683146D86804F0D5FD9A
:10BB14006D683146E8682C6804F0CFFD0823C4F84A
:10BB240000352A7A52B92B6AC4F834350123C4F893
:10BB34003835C4F81021D4F8102123600020C3E75D
:10BB44000822C4F80025F269C4F84425C4F848352D
:10BB54000123A360D4F82031002BFBD00023C4F8C8
:10BB64002031D4F820310123E3604FF48073C4F80A
:10BB74000433C1E70000AD0BD8120100B620010068
:10BB84000123834070B5DC430B4AD2E8EF1F01EA7E
:10BB94000405C2E8E65F002EF7D14FF480328240FC
:10BBA4000648C0F80823BFF35F8FBFF36F8F0B42C3
:10BBB40014BF0120002070BD288A002000500140DD
:10BBC40070B40E4922F07F46D1E90034D01AC3186C
:10BBD40044F10004C1E90034A6F50013B3F5400FA5
:10BBE40009D2074B1B681A0A1B069C19054B42F124
:10BBF4000005C3E9004570BC03F06EB9308600202F
:10BC04002C8A002038860020D9B101230D4A8340B4
:10BC1400D2E8EFCF4CEA030CC2E8E1CF0029F7D118
:10BC24004FF48033084A8340C2F80433074BD3E807
:10BC3400AF3FC340DB0742BF4FF40012044BC3F8CD
:10BC440000217047288A002000500140248A0020E7
:10BC540000E100E00D4B1868010A0006BFF35F8F96
:10BC64000B4BD3F80435181841F10001B3F5801FCC
:10BC74000AD2084BD3E90023904271EB030303D2A9
:10BC840010F1807041F10001704700BF2C8A002040
:10BC940000500140388600202DE9F04F85B016464B
:10BCA4001F4604469DF840A0FFF76AFF0190FFF786
:10BCB400D1FFB04271EB070352D23B4B301A67EB12
:10BCC4000101984271F100014DD2384B03EB04138A
:10BCD400D3E902239F4208BF964258D04FF48038DC
:10BCE400334908FA04F8204626F07F4BC1F848830C
:10BCF40004F0F2FC4FF00309584604F15005AD007E
:10BD0400ADB205F1804504F5A87305F5A835029395
:10BD1400029A20F07F4341F82230C1F84483D1F8DD
:10BD24000435244AC01A033820F07F4090422ED9AB
:10BD3400286868B1D1F80435A3EB0B0020F07F40EC
:10BD4400B0F5000F039322D9204604F0C5FC039BF1
:10BD5400BAF1000F07D109EB030009F10109D7E794
:10BD6400BAF1000F09D06FF0150520460199FFF7CD
:10BD74004BFF284605B0BDE8F08F01230E4AA340CF
:10BD8400D2E8EF0F1843C2E8E10F0029F8D10749C0
:10BD94000E982301C8500F9B01EB04120025C2E941
:10BDA40002675360E1E700BF0100800020860020A5
:10BDB40000500140FDFF7F00248A00207FB500254C
:10BDC4004FF0FF304FF0FF31194C1A4B0226C4F8E4
:10BDD4000833C4F84833184BC4F80855C3E90201C2
:10BDE4004FF480334FF40012C4F80433134B012191
:10BDF400C4F804631520C3F880212A46FEF748FAE4
:10BE04001520FEF729FA01230D4AA360236013606D
:10BE14000C4B0D4A009328460023CDE90155FFF74A
:10BE24003BFF3046FFF752FA284604B070BD00BF0E
:10BE34000050014003000F002086002000E100E0D4
:10BE4400288A0020C5BB0000FFFF7F002DE9F743CF
:10BE54002E4BD3F8042390070BD5D3F8042142B119
:10BE64000022C3F804212A4AD3F8043113680133A9
:10BE74001360264AD2F80433D90326D5254BD3E8D8
:10BE8400EF1F21F00100C3E8E40F002CF7D1CB072A
:10BE940002D4D2F84031C3B100251C4CC4F840513F
:10BEA400D4F84031FFF7D6FEEFF31182202383F359
:10BEB4001288BFF36F8F184BD3E90267B042B941C0
:10BEC40006D282F31188BFF36F8F03B0BDE8F0830D
:10BED4004FF0FF38D3E900104FF0FF391D60C3E97C
:10BEE40002894FF48033C4F84833C4F84051D4F87D
:10BEF400403182F31188BFF36F8F0029E5D00090A1
:10BF040032463B4628468847DFE700BF00500140E1
:10BF14002C8A0020248A00202086002030B5431C6F
:10BF2400124C85B005D08442A8BF0446012CB8BF8A
:10BF34000124FFF78FFE0E4B0C4DD3E90013401A7A
:10BF4400B0F5000F0FD22218AA4228BF2A460020BB
:10BF540052180849CDE90100009143F10003FFF7AD
:10BF64009BFE05B030BD2A46F1E700BFFFFF7F000E
:10BF740030860020C5BB000008B5FFF76BFE024BFE
:10BF84001B68C01A08BD00BF3086002008B50349ED
:10BF9400034804F0D6FB6FF0150008BDEF20010044
:10BFA4009012010008B50349034804F0CAFB0020BD
:10BFB40008BD00BF0A210100901201002DE9F743DA
:10BFC40000244FF001082546124E30683779D0F826
:10BFD4001090836801A95B68984700280CD014DB93
:10BFE40008FA05F31C430135052D06F10806ECD1CA
:10BFF400204603B0BDE8F083D9F80020019B08FA7D
:10C0040007F753403B42EED0EAE703B0BDE8F04304
:10C01400FFF7C8BFF81401002DE9F0410746884630
:10C024000025104E27FA05F212F0010210D128FA69
:10C0340005F3DB070ED53179306804F072FB044652
:10C0440040B10949094804F07CFB2046BDE8F08171
:10C054000122F0E70135092D06F10806E2D100249A
:10C06400F3E700BFB01401001F210100901201008A
:10C074002DE9F04707460026204DDFF88480DFF8DD
:10C084008490DFF884A0286847B3404529D0484508
:10C0940014BF4FF0E8624FF0986229798368D0F8B2
:10C0A40010C09C6904B3130208D50123DCF800C056
:10C0B4008B4013EA0C0F18BF82F0C06202EA0A0335
:10C0C40002F0B072A047044688B1012123460F4A0A
:10C0D4000F4803F0EFFF2046BDE8F0874FF400124D
:10C0E400DBE74FF09862D8E76FF05704EDE70136CD
:10C0F400052E05F10805C6D1EDE700BFF8140100CF
:10C10400340F0100140F0100400000063521010026
:10C114009012010038B5EFF31185202383F31288C0
:10C12400BFF36F8F0F4C2378BBB90F4B984202D0EB
:10C134000E4B98420AD10020FFF79AFF18B10C4920
:10C144000C4804F0FEFA00220B4B1A700123212242
:10C1540023700A48002302F0A5F985F31188BFF380
:10C164006F8F38BDE98B0020340F0100140F0100DC
:10C174005521010090120100E88B00204086002028
:10C184002DE9F041334F3B7853B10020FFF770FFA6
:10C1940028B131493148BDE8F04104F0D2BA3870D1
:10C1A400FFF70CFF04462E4BD3E8EF2FC3E8E14F13
:10C1B4000029F9D12B4BDFF8B0801A7842BBD8F8AC
:10C1C4000060A64219D0294B66401B680BB131466A
:10C1D40098474FF0FF334FF0FF32254801F0A0FE9F
:10C1E400244B1D6835B1043D2B68314620469847E1
:10C1F4006D68F7E71E4801F00BFFC8F8004054B122
:10C20400BDE8F0414FF4A47200231B4802F04AB980
:10C2140000221A70F1E7EFF31186202383F31288CA
:10C22400BFF36F8F154B1D78012D05D086F3118850
:10C23400BFF36F8FBDE8F08128461C70FFF718FF2D
:10C244003D7086F31188BFF36F8F0028F2D00C493C
:10C25400A0E700BFE88B00207121010090120100CB
:10C26400608A0020EC800020348A0020648A002048
:10C27400388A00204C8A002040860020E98B002068
:10C284008A21010070B500250B4E4FF40031304671
:10C2940004F032FA044648B90135092D06F10806BE
:10C2A400F3D1BDE870400F21FFF7B6BE034904483F
:10C2B40004F047FA204670BDB0140100A221010029
:10C2C40090120100054BD3E8AF3F00B1036004486E
:10C2D40011B102685A400A6003607047608A002006
:10C2E400308A00202DE9F843384B1860384D39481E
:10C2F40004F084FB2E460027A846F388304613F04A
:10C30400010F0CBF2021102141F4803104F0F4F915
:10C31400044630B13049314804F013FA2046BDE8F0
:10C32400F8830137052F06F10806E6D106460746CD
:10C334004FF001092868297983689C693CB100237E
:10C344004FF40012A047044620B12549E3E76FF0FB
:10C354005704FAE72B79013709FA03F3052F46EA64
:10C36400030605F10805E5D105461E4F1E4BC7E936
:10C37400013658F835008368DB6933B10122394648
:10C384009847044620B11949C5E76FF05704FAE706
:10C394000135052DEDD11649164804F081FB012223
:10C3A400154B14481A700023002202F047F8214666
:10C3B4002046FFF787FFFFF701FE104BD3E8EF2F6E
:10C3C400C3E8E10F0029A9D0F8E700BF648A002080
:10C3D400F8140100388A0020BC21010090120100E9
:10C3E400D9210100548A002019C10000F421010060
:10C3F40085C1000040860020E98B0020608A00206F
:10C4040008280A4610B503D9BDE81040FFF7BEBDA1
:10C41400074B03EBC001097953F8300004F081F9AC
:10C42400044618B10349044804F08BF9204610BDB2
:10C43400B01401001F2101009012010010B507493A
:10C44400074804F09BF9044628B101210346054A34
:10C45400054803F02FFE204610BD00BFBDC60000F6
:10C46400688A00201C220100C81201002DE9F04155
:10C47400DFF8D4810D46D8F8704000AF072C00F0E7
:10C4840008065BD0132C00F0A080052C40F0B98086
:10C49400D8F854806D496E4804F06CF918F4805F44
:10C4A40041D06C496A4804F065F9172418F4006F08
:10C4B40004D06949664804F05DF9182418F4007F33
:10C4C4000ED06649624804F055F9654B18F4004FE4
:10C4D4009B6B04D00121634A5D4803F0EBFD1924F2
:10C4E40018F4806F04D06049594804F043F91A24C1
:10C4F40018F4807F19D05D49554804F03BF91B249A
:10C50400EB69002E40F09B80C3F3080222B96FEA66
:10C5140053236FEA4323EB6129462046FDF710FBC2
:10C52400BD46BDE8F0811624C0E718F4005FE7D0EB
:10C534004F49474804F01EF91C24E1E7D8F85C4051
:10C5440043484C4904F016F9600606D5D8F868301B
:10C554000121494A3E4803F0ADFDE10705D54749AD
:10C564003B4804F007F92624CAE7A20705D5444945
:10C57400374804F0FFF82724C2E7630705D541498B
:10C58400334804F0F7F82824BAE7200705D53E49D4
:10C594002F4804F0EFF82924B2E7E10605D53B491A
:10C5A4002B4804F0E7F82A24AAE7A20605D538495F
:10C5B400274804F0DFF82B24A2E723063DD53549AC
:10C5C400234804F0D7F82C249AE7D8F86C80324931
:10C5D4001F4804F0CFF818F0020F03D02F491C486D
:10C5E40004F0C8F818F0010F03D02D49184804F0DE
:10C5F400C1F818F0040F83D02A49154804F0BAF89A
:10C604007EE7294A294BE8468AB00F2CC8BF134657
:10C614006A462749103CC2E905134FF4007313849A
:10C62400244BD46142F8103F00234FF411510848C1
:10C63400FCF7B4FF0024C54662E7252460E723F431
:10C64400FF7323F0010366E7688A00207D1B010065
:10C65400C8120100931B0100F7190100A41B01007B
:10C6640000ED00E0BD1B0100D21B0100ED1B010029
:10C67400571A0100562201006F2201007F22010097
:10C6840095220100B3220100CE220100EB22010019
:10C69400002301001A2301002D2301004723010078
:10C6A40077230100A52301001A1C0100051C0100C9
:10C6B400FB1C01000400000100B5104B89B05A6A4C
:10C6C400D86C00929A6A20F005000192DA6A6946F1
:10C6D40002921A6B03925A6B04929A6B0592DA6B6C
:10C6E40006921A6C1B6D07929B0748BF40F004002A
:10C6F400FFF7BCFE09B05DF804FB00BF688A0020A8
:10C704002DE9F041A2B005460E461746984604F0BE
:10C71400D3F970B9114B1B785BB14FF0FF324FF076
:10C72400FF330F4801F0FCFB044618B16FF083059A
:10C7340010E00124684603F090FD42463946304635
:10C74400289BA8470546684603F088FD14B90448A9
:10C7540001F05EFC284622B0BDE8F081EA8B00209F
:10C7640038810020002300B589B0CDE9063303AB3E
:10C774000493042303900593A9B10B6806934B68B3
:10C7840007930223111E18BF01210848CDE9002197
:10C7940040F2F53104AA00F00BF80028B8BF0120DC
:10C7A40009B05DF804FB0123ECE700BF050100407C
:10C7B40010B4B1F5004F029C0ED2042B0CD8042CFB
:10C7C4000AD8240444EA0364134644EA01020146F5
:10C7D40010BC0348FFF794BF6FF0800010BC704793
:10C7E400217C000030B50468ACB1B4FA84F30122B2
:10C7F400C3F11F03DBB29A4024EA0202D0E8EF5FE0
:10C80400A54204D1C0E8EC2FBCF1000FF6D1EAD167
:10C8140002480B7030BD0248FCE700BF0000AD0BBE
:10C824000200AD0B10B50368CB40DB0710D4012325
:10C834008B40026843EA0201D0E8EF4F944204D1EE
:10C84400C0E8EC1FBCF1000FF6D1F2D1014810BDD5
:10C854000148FCE70000AD0B0400AD0B014BC3F82D
:10C8640004057047007001400146014800F04EB9CC
:10C87400C48000200328F7B5064631D8384B39491F
:10C8840033F810000025C1F80803012142F21074A6
:10C89400354B364A33F81630925D03F1804302F18A
:10C8A400804203F5A04302F5A04211601D608E4250
:10C8B4001B682C4F8DF8071008BF0DF10705022ED9
:10C8C40032D0032E40D0012E1CD0D7F8183403F4F4
:10C8D40080333DB923B1012003F096FF013CF0D130
:10C8E40003B0F0BDD7F8182402F003022A70002B1D
:10C8F400F6D09DF807000128F2D103F085FF013C32
:10C90400DDD1EDE7D7F80C3403F480333DB9002BC7
:10C91400E6D0012003F078FF013CF3D1E0E7D7F83B
:10C924000C2402F00102E1E7D7F85C3403F480330D
:10C934003DB9002BD4D0012003F066FF013CF3D1B4
:10C94400CEE7D7F85C24ECE7D7F85434DB03C7D53B
:10C95400002DCED1012003F057FF013CF4D1BFE7F5
:10C9640064150100005000405C150100D92301004A
:10C97400044B1A7922B9012218601A7102487047CF
:10C9840002487047DC8A00200000AD0B0C00AD0BA0
:10C9940008B5094B1B6833B10520FDF76BFC10B9D2
:10C9A4000520FDF759FC0122044BC3F81825C3F8F0
:10C9B4001425C3F8802508BDDC8A002000500040FF
:10C9C40010B5032846D8DFE800F01B0256500022B9
:10C9D4004FF480730121002003F1804303F5A04349
:10C9E40018601C68012402F1804202F5A042146020
:10C9F400274A1268002A44D0264BC3F8041329E0BE
:10CA0400244BD3F81814D3F81824C90311D502F011
:10CA14000303022B05D0012B02D00020FFF72AFFCD
:10CA240001231C4A0221C2F8183508224FF48273EC
:10CA3400D1E7D3F81424D207F2D5D3F81C2402F09A
:10CA44000302013A012AE8D8114A12681AB10222F3
:10CA5400C3F8042310BDD3F80421002AFBD000221C
:10CA6400C3F80421D3F80431F4E718224FF4907387
:10CA74004FF48071AFE720224FF492734FF40071AA
:10CA8400A9E71A68002AFCD018601B68E2E700BF17
:10CA9400DC8A002000500040F8B50126194C1A4FDA
:10CAA400D4F8045305B9F8BDB5FA85F0C0F11F00F8
:10CAB400830003F580739BB203F1804303F5A04325
:10CAC40006FA00F2196892B225EA02050029E9D0B3
:10CAD4000021022A19601B68C4F808230DD1D4F878
:10CAE4001834D4F8183403F00303012B05D1C4F827
:10CAF4001825C4F80423A360D4E73B68C0B2984760
:10CB0400D0E700BF00500040DC8A00200079024BCF
:10CB140003EB0010FFF766BECC800020036803F02F
:10CB24001F025B09026004D0012B034818BF0020D8
:10CB340070470248704700BF0028844000258440A5
:10CB4400034A4309D35C00F01F001844C0B2704785
:10CB5400DD23010070B50546FFF7F2FF0C4C0830E9
:10CB640034F810300E46DA0508D5C3F3432304EB3A
:10CB7400C302284654F8333052689847A3682BB14F
:10CB840031462846E268BDE87040184770BD00BFD2
:10CB9400E48A002008B5FFF7D3FF034B083033F8CD
:10CBA4001000400B08BD00BFE48A002008B5FFF761
:10CBB400C7FF034B083033F81000C0F3400008BD32
:10CBC400E48A002008B5FFF7BBFF034B083033F8B5
:10CBD4001000C0F3401008BDE48A0020034611F0A1
:10CBE400010010B5CCB20BD1A207C4F340000DD59F
:10CBF400074A106A58601062003818BF012005E027
:10CC040004490A6A1A600A62002AEDD010BD00BF06
:10CC1400002884400025844010B5FFF791FF124A94
:10CC2400083032F81030D9051CD5C3F3432123F45E
:10CC3400F85322F81030002002F10E0434F8023FB9
:10CC440013F4807F03D0C3F3432399420AD0013005
:10CC54003028F3D1002342F831300448BDE81040B5
:10CC6400FFF7E0BD10BD00BFE48A00205C8B00200C
:10CC7400F0B50446002001260746124B124D0B4422
:10CC84009900124B8B420BD1114BD3F87C2132B15A
:10CC94000022C3F87C21D3F87C3140F00040F0BD81
:10CCA4005A19920806FA02F2144208D0D3F800C0C6
:10CCB400BCF1000F03D01F60D3F800C0104304334D
:10CCC400E0E700BF40BC0010000FFDBF00F10240D0
:10CCD40000F00240F7B506460846FFF731FF1A4F49
:10CCE40000F1080537F815300C46DB072AD5304625
:10CCF40003F0F7FD2046FFF765FF58B12046FFF724
:10CD040049FF0022316800B201EB8003C3F810250B
:10CD1400C3F810252046FFF77FFF002301A827F85A
:10CD240015300194FFF7FAFE019B00EB8300D0F865
:10CD34000022064B134043F00203C0F800320448BB
:10CD440003B0F0BD0348FBE7E48A0020F0F0FCFFE9
:10CD54000000AD0B0400AD0B2DE9F04316468046F0
:10CD640085B00846FFF7ECFE0C463168054609B36A
:10CD74002046FFF71BFF18B12046FFF723FF10BB27
:10CD840000230DF10F02CDE900338DF80E308DF83C
:10CD94000F3020460B460DF10E0103F04AFD4A4ABE
:10CDA40005F1080132F8113023F0020343F00103C6
:10CDB40022F8113073687BB320461F785968FFF757
:10CDC400F5FE10B1E9B1414829E03F4A05F10800F8
:10CDD40032F8103023F02003DB04DB0C22F810308F
:10CDE40079B1032FEFD87168D1F804E0D8F80010B6
:10CDF4009EF800C001EB8C01A7B9C1F81075C1F809
:10CE04001075314A05F1080132F8113023F01C0382
:10CE140043EA870322F81130B3685BBB2C4805B0A2
:10CE2400BDE8F083D1F810E543EA4C332EF0030E4D
:10CE3400C1F810E5D8F8001043F0200301EB8C0E84
:10CE4400DEF8101522F8103021F44F3121F440712E
:10CE5400CEF810152102DEF8108501F47C5141EA68
:10CE6400074141EA0801CEF8101502EB4C01A1F884
:10CE74007C40C6E72046D3E90067FFF7CDFE002ECD
:10CE8400CCD0114CD4E90023964203D19F4201D166
:10CE9400002209E00F480DF10F01FFF7A3FC0C4B32
:10CEA4009842BCD19DF80F2004EBC20308355F60A3
:10CEB40034F8153044F8326043EA422343F4807373
:10CEC40024F81530AAE700BFE48A00200400AD0B63
:10CED4000000AD0B5C8B00202DE9F0430C4680462E
:10CEE40085B0204611461D46FFF72AFE064629B3A3
:10CEF4002046FFF75BFE18B92046FFF763FE18BB18
:10CF0400334F06F1080937F8193013F01C0F02D01B
:10CF14004B78012B18D001238DF80F3000234A1CC5
:10CF2400CDE9001320468B1C0DF10F0103F081FCA9
:10CF340037F8193043F0030327F81930002D44D093
:10CF44002046FFF733FE18B9224805B0BDE8F08348
:10CF5400002295F800C0D8F800301D4F03EB8C0375
:10CF6400C3F81025C3F8102506F1080237F812108B
:10CF74004FEA8C0E21F02001C904C90C27F81210C5
:10CF84006E7816B3D8F80000AD787044D0F8103538
:10CF9400360423F4991323F4F853C0F8103523020C
:10CFA40003F47C5306F440362D05D0F810E53343E2
:10CFB40005F480152B4341EA4C3143EA0E0341F05A
:10CFC4002001C0F8103527F812100348BDE700BF50
:10CFD400E48A00200400AD0B0000AD0B014BC3E953
:10CFE40002127047E48A002010B508461446FFF781
:10CFF400E9FD50B10846FFF7A3FD054B083033F8AF
:10D00400103004485B0B237010BD0348FCE700BFDD
:10D01400E48A00200000AD0B0400AD0B70B50E4C8B
:10D02400064694F88C50A5B96022294604F11000F4
:10D0340003F0A1FE3068C0F87C51D0F87C3140F395
:10D044000730FDF709F90123044884F88C30A367FD
:10D0540070BD0348FCE700BFE48A00200000AD0B6C
:10D064000C00AD0B034B93F88C00003818BF012063
:10D07400704700BFE48A00200079024B03EB800074
:10D08400FFF7D0BBDC8000200079024B03EB80006B
:10D09400FFF7A8BBDC800020F7B505460846164616
:10D0A400FFF790FD0C462968F0B12046FFF77EFD9E
:10D0B4000746C8B92046FFF76DFD04B2A40004F585
:10D0C40080728F508A5829682144D1F8102542F083
:10D0D4000102C1F810252EB10122296802FA00F3D9
:10D0E400C1F8043303B0F0BDD1F804332046002B5B
:10D0F400A4BF4FF00043C1F80433FFF721FD0F4BE9
:10D10400083033F81030C3F38203042B11D0052BFD
:10D1140011D001A80194FFF701FD019A0369D340DE
:10D1240003F00103991C204603B0BDE8F04003F06E
:10D13400C9BB0321F7E70221F5E700BFE48A002019
:10D144002DE9F04F634B0821D3F8040387B0C0B234
:10D1540040F00040FFF78CFD051E2BDA002303216D
:10D1640004A8CDE90433FFF739FD4FF000094FF06F
:10D17400010BDFF864A10DF110081AF8013B5749BF
:10D18400DA088A5C03F0070322FA03F3DA071CD4F3
:10D1940008F10408B9F1000F14D000214FF0004049
:10D1A400FFF766FD032104A8FFF718FD0028DCD172
:10D1B40025F000450124474E494F002D75D107B095
:10D1C400BDE8F08F4FF00109D7E7464B4B4400937D
:10D1D400D8F800100029DBD091FAA1F1B1FA81F15D
:10D1E400009B1C7841EA44142046FFF7A9FC3C4B01
:10D1F400083033F81070C80818F8002001F007014F
:10D204000BFA01F122EA0102BB0808F8002003A886
:10D2140001930394FFF782FC039A019B803250F838
:10D224002220C7F382065B073746C2F3014221D5A9
:10D2340020463946D6B2FFF78DFC03A80394FFF7C6
:10D244006DFC039B803350F82330C3F301439E42AB
:10D2540007D10021204603F035FB3146204603F078
:10D2640031FB03A80394FFF759FC039B0BFA03F368
:10D274000362ADE7022A0CD10321204603F022FB0E
:10D2840006F00503012BECD139462046FFF762FC7A
:10D29400E7E702212046019203F014FB032EF3D0AA
:10D2A400019A032ADDD1022EEDE795FAA5F3B3FA2C
:10D2B40083F304FA03F225EA020503F5A27256F891
:10D2C400221007EB4303B3F87C00C1F30141FFF7DD
:10D2D40041FC72E700F00240ED2301002415010037
:10D2E400E48A0020ED23010030B50A4B082493F8AA
:10D2F400305001220023104203D0154208D00133DC
:10D30400DBB2013C4FEA4202F5D103480B7030BD59
:10D314000248FCE7748B00200000AD0B0400AD0B49
:10D32400054B93F82E00431E012B03D9043818BF74
:10D334000120704700207047748B0020002010B536
:10D34400154A1649C2F8000591F82F40D2F8043363
:10D3540081F82E400C6823F033030CB143F023030F
:10D36400C2F81C01D2F81C41C2F81801D2F81841C5
:10D37400C2F80801D2F8082191F83320D00791F8B7
:10D38400342048BF43F08003D207034A48BF43F028
:10D394004003C2F8003310BD00E00040748B00204D
:10D3A400002370B501251E460B4A92F8301018B9B7
:10D3B4000BB182F8301070BD90FAA0F3B3FA83F386
:10D3C40005FA03F40C3302EB4303DE8020EA040085
:10D3D400012321EA0401EAE7748B002073B50023DA
:10D3E400044601AA0E464FF48071019303F0A1FA9A
:10D3F4004FF48A71204603F09CFA4FF4827105467B
:10D40400204603F096FA20B11EB115B1144BD3F89F
:10D41400343601AA4FF48471204603F08AFA4FF49B
:10D424008671204603F085FA4FF48871204603F094
:10D4340080FA0C4B234083B14FF48E75294601AA20
:10D44400204603F076FA291F0835204689B2ADB28A
:10D4540003F06FFAB5F5AE7FF0D1019802B070BD5C
:10D4640000E00040C0FF3F0010B5C37882781B0382
:10D47400120202F4E06203F4805313430278417A07
:10D4840002F0030213430279120402F4E02213436C
:10D494004278120102F0300213438279120602F03C
:10D4A400807213434279120502F4801213430A0175
:10D4B40002F1804202F56042C2F81835084AC47984
:10D4C40001F10C0302EB43039C71007AD871012330
:10D4D40003FA01F192F830300B4382F8303010BD7A
:10D4E400748B00202DE9F843904620221E462B4BD6
:10D4F400089FC3F808230122054689469A60002143
:10D504002020FFF76BFF0028F9D00023244C84F877
:10D51400333084F83430A3602361A3831F4B276026
:10D5240084F83150C3F8F095C3F8F4852FB323225F
:10D53400C3F8002300244FF0010C1948174F0CFACC
:10D5440004F22A404FEA04111AD101F1804303F591
:10D554006043C3F81025C3F814253944D1F81835AD
:10D56400013423F0807343EA0262082CC1F81825C1
:10D5740000F10200E3D1BDE8F883C3F80073D9E7F2
:10D58400C27F90F81EE001F1804303F56043C3F8C5
:10D5940010E5C3F814253246DFE700BF00E0004081
:10D5A400748B002070B51F4D95F82E40002C37D198
:10D5B4000126FF2085F82E60FFF7F2FE1A4B1B4967
:10D5C400C3F80041D3F80021C3F80441D3F804217F
:10D5D400C3F81041D3F81021C3F81441D3F814311F
:10D5E4001C239A0806FA02F212F0330F1FBF03F14C
:10D5F400804202F56142146012681A1F920806FA0A
:10D6040002F212F0330F1CBF5C505A5808335C2BE3
:10D61400E7D10E20FCF720FE002305482B6070BDE7
:10D624000448FCE7748B002000E00040FCE000406C
:10D634000000AD0B0C00AD0B08B50246FFF770FE01
:10D6440020B91046FFF710FF014808BD0148FCE768
:10D654000000AD0B0B00AD0B014B93F8300070478D
:10D66400748B00202DE9FF4105460F461646984667
:10D67400FFF756FEF0B928460DF10F01FFF734FE0F
:10D684000D4B0446984211D1331E18BF0123324674
:10D6940039462846CDF80080FFF724FF074B9DF854
:10D6A4000F2083F83220022283F82E20204604B073
:10D6B400BDE8F081024CF9E70000AD0B748B00204B
:10D6C4000B00AD0B2DE9FF4707469946FFF728FEEF
:10D6D4008A461446064600283FD138460DF10F010C
:10D6E400FFF702FE1F4B0546984227D163889DF839
:10D6F4000F803BB3B8F1010F31D8B9F1000F2ED030
:10D704002278637812B1B3FA83F676095146384623
:10D71400CDF80090FFF7E6FE6388134A0BB143F49B
:10D724008053C2F8F835114B83F83280227983F89C
:10D73400366083F83520042283F82E20284604B06E
:10D74400BDE8F08722786378002ADFD0002BDDD192
:10D75400B8F1010F03D80126D8E7054DEEE7054DD2
:10D76400ECE700BF0000AD0B00E00040748B00202C
:10D774000B00AD0B0300AD0B10B51B4B1A696ABB54
:10D7840000F06042B2F1005F2AD193F83220B1FB7D
:10D79400F2F402FB14142CBB0CB2002C22DD93F81F
:10D7A4002E40052C05D8032C0AD8022C0DD00F4886
:10D7B40010BD062CFBD10E4AC2F82C06C2F8301656
:10D7C4009A6842B1C3E9040103E08A420AD1C3E979
:10D7D40002020848ECE7C3E90201FAE70648E7E772
:10D7E4000648E5E70648E3E7748B00200500AD0B27
:10D7F40000E000400000AD0B0C00AD0B0A00AD0BC7
:10D804000600AD0B2DE9F3414F4CA368002B00F04B
:10D81400998094F82E20022A05D0042A30D04B484F
:10D8240002B0BDE8F0810126494DC5F800652168C4
:10D83400E26849B1032184F82E10C5F82C36C5F8E6
:10D8440030262E604348EBE7C5F82C36C5F8302661
:10D854002E6003F085F808346E6021460220FFF73D
:10D86400BDFD0028F9D00022394BC3F80821D3F8B4
:10D874000811C3F80C21D3F80C11C3F80025E1E713
:10D884004FF00108324DC5F80085276857B10522CD
:10D8940084F82E20E268C5F82C36C5F83026C5F881
:10D8A4000080CFE7A18B94F8322003EB410300936F
:10D8B4000192C5F82C36C5F83026C5F8008003F06F
:10D8C4004FF894F836305BBB0123214D6B606946F9
:10D8D4000220FFF783FD0028F9D00022C5F80821B3
:10D8E400D5F80831C5F80C21D5F80C31A18B94F882
:10D8F40032300B44E1689BB28B42A38321BF164BA9
:10D90400A283D3E9020122614FF0000228BFC3E9D8
:10D9140000010F4B2CBF0F481048C3F800257FE7C8
:10D92400D5F8F465F6B208FA06F6013EBE42CBD944
:10D93400C5F8048000210420FFF750FD0028F9D029
:10D944000137F3E706486BE7748B00200500AD0B45
:10D9540000E000400000AD0B7C8B00200B00AD0B01
:10D964000200AD0BF8B50246FFF7DAFC002851D1EE
:10D97400294E2A4C96F82E30726086F82F300723F1
:10D9840086F82E300123C4F80035D4F80453C4F8C3
:10D994000003E3603AB125F0C00545F03305C4F84F
:10D9A40000531F48F8BD00211020FFF717FD002881
:10D9B400F9D00023C4F80431D4F80431194B0127F9
:10D9C400C4F82C360223C4F83036276002F0C8FFAE
:10D9D400A76000212020FFF701FD0028F9D00022D4
:10D9E4000E4BC3F80421D3F80411C3F80821D3F86B
:10D9F4000811C3F8002596F82F1086F82E10C3F8E6
:10DA04001C21D3F81C11C3F81821D3F81821C3F82A
:10DA14000053C6E70448C5E7748B002000E00040CB
:10DA24000000AD0B8C8B00200B00AD0B7FB53320B9
:10DA34006149FFF7D3FC10F0100F05465E4E0BD082
:10DA440010225E4BC3F80823B218C3F82C26022216
:10DA5400C3F8302601221A60594CAA0694F82E30D5
:10DA64000ED5072B554A05D0D2F834369BB2E36065
:10DA740000232361D2F80433DB0601D5FFF75EFCF3
:10DA8400A80718D50022A16894F82E300291E16805
:10DA9400062B8DF80420ADF80C1018D0072B35D0C8
:10DAA400032B08D1454BC3F80025022384F82E30FC
:10DAB400236801A89847E9074FD594F82E30033B13
:10DAC400042B4AD8DFE803F05A4929415E0094F850
:10DAD400353023B1236913B10122384B1A6023680E
