:10000000F80B0020B106000055070000155A00004B
:10001000355A0000555A0000955A0000755A0000E4
:10002000000000000000000000000000D52A0000D1
:1000300055070000000000005507000055070000AC
:10004000550700005507000000000000793300004C
:100050000000000055070000000000000000000044
:100060005507000055070000550700005507000020
:100070005507000055070000550700005507000010
:1000800055070000550700000000000000000000B8
:1000900055070000550700000000000000000000A8
:1000A00055070000550700005507000055070000E0
:1000B00055070000550700005507000055070000D0
:1000C00055070000550700005507000055070000C0
:1000D0005507000000000000550700000000000068
:1000E00055070000000000005507000055070000FC
:1000F0000000000055070000000000005507000048
:100100000000000000000000000000005507000093
:1001100055070000000000005507000055070000CB
:100120000000000055070000000000000000000073
:1001300000000000000000000000000000000000BF
:1001400000000000000000000000000000000000AF
:04015000550700004F
:1001540000015F5F02000000FE0B0000652B000041
:100164008006000000000000000000000000000005
:1001740000000000000000000100FFC3000000C4F4
:10018400201200200000000001015F5F0301000055
:100194001F010000D1040000000000000000000066
:1001A4000100000001000000000000000000000049
:1001B400000000000000000000000000000000003B
:1001C40070000000B85E000080000000000F000016
:1001D400010000001103000001015F5F0401000041
:1001E4001F0100003F0600000000000000000000A6
:1001F40000000000010000000000000000000000FA
:1002040000000000000000000000000000000000EA
:10021400C35E00004000000005070000010000006C
:040224002B050000A6
:1002400038B50025054C29462046D4F80024C4F8CA
:10025000045405F088FCC4F8005438BD200C00207C
:1002600037B511460022CDE9002242680346402AF4
:10027000046845D1228D150A032D17D0012D37D0E2
:1002800022482468D0F80404AA1ECDE90040082AB8
:1002900039D8DFE802F0050B0F14191E23283000AF
:1002A0006A46184600F037F903B030BD184600F032
:1002B00020F9F9E76A46184600F01EF9F4E76A46A5
:1002C000184600F013F9EFE76A46184600F017F9F0
:1002D000EAE76A46184600F015F9E5E76A46184667
:1002E00000F013F9E0E76A46184600F011F9DBE781
:1002F00000F014F9D8E76A46184600F013F9D3E77E
:100300006FF08000D0E76FF08500CDE7200C002073
:100310002DE9F04F05680446A3B0002D40F0B180F0
:100320002022294602A805F01EFC12AF20222946F1
:100330000AA805F018FC40222946384605F013FCAF
:10034000E26904F11C039846B2B10426E26A04F1A2
:100350002C03EAB10425EEB96FF08306304623B0D2
:10036000BDE8F08F002EF1D053F8041D3246013E57
:100370000029F7D01646E9E70326F5E7002DEAD075
:1003800053F8041D2A46013D0029F7D01546E2E73F
:100390000325F5E740233A460021606805F020FC7C
:1003A0004028D9D1CDE902700127DFF8DCA00DF19A
:1003B000080904F1100BBE421FD10AAF38460021D4
:1003C000314A08EB8509D2F80034C84533D109B168
:1003D000C2F80034A3683146C2F8043402A82B46A0
:1003E0000AAAFFF73DFF4FF000080646454507F112
:1003F00008073DD1FFF724FFB0E75BF8043F1A1D63
:1004000021D8DAF80004D91C21F00301C0F580627C
:10041000914218D8014400EB0A02CAF8001460683F
:100420003946019205F0DCFB019AC9F80C0001374E
:1004300049F8082FBFE758F804EF1EF1040F07D959
:1004400009B1C2F80034FFF7FBFE6FF08C0685E7B8
:100450000EF1030C2CF0030CC3F5806AD44500F1B7
:100460000800EDD8D11840E9021E63440121ACE731
:10047000414657E90223606805F0C7FB08F101080F
:10048000B4E76FF0850669E7200C002008B5282244
:100490000021024805F067FB002008BD281000205D
:1004A00010B5044C0F222046034905F037FB2046C7
:1004B00010BD00BF511000204206000008B5012108
:1004C000024803F017FB002008BD00BF50100020B9
:1004D00008B5FFF7DBFF40B9FFF7E2FFFFF7EEFFDC
:1004E00018B9BDE8084003F08FBB08BD6FF0850068
:1004F00070476FF0850070476FF0850070476FF0B0
:10050000850070476FF0850070476FF08500704779
:100510006FF0850070476FF085007047D1E90001EA
:1005200003F036BB6FF085007047F0B503680546F1
:10053000B3F57D7FA7B007D040F2F532934207D0E4
:100540006FF0850027B0F0BD01F090FC0020F9E7C6
:1005500000243C22214607A8CDE90244CDE9044409
:10056000069405F000FB3C22214617A8169405F0DE
:10057000FAFAEA69019405F11C0302B30426EA6A57
:1005800005F12C033AB30424731E012B52D8012C1D
:1005900050D80423002168680DEB030205F020FB0E
:1005A00004281AD06FF08000CCE7002EE7D053F873
:1005B000041D3246013E0029F7D01646DFE7032628
:1005C000F5E7002CE0D053F8041D2246013C002939
:1005D000F7D01446D8E70324F5E7022E16D16E694A
:1005E000402E29D806AF33463A460121686805F007
:1005F000F7FA8642D6D1CDE9027602A944B922465D
:10060000019801F001FE044620469BE70021F5E732
:100610002B6A402BC6D816AACDE90423019804AA58
:1006200001F0F2FDDDE9042304460021686805F0CD
:10063000ECFAE9E7012085E76FF0890082E7002006
:1006400070474D62656420544C5320332E362E344F
:10065000000000000000000000000000000000009A
:08066000C83000000100000099
:1006680009370000E1360000407C000080100020BF
:1006780049000000407C0000200C00200000000021
:10068800407C0000000C002000000000A4110020A5
:10069800C0050000200C002018010000000C0020FC
:1006A8000800000002F092BC08B572B61E4A1F4B43
:1006B8009A601F4B83F309881E4B83F30A8883F3E0
:1006C8000B881D4B16A1D1E90001C3E9000100F018
:1006D8005DF81A4B1A498B4212D30020194B1A495C
:1006E8008B4218D303F020F8186850F82240586855
:1006F80040F82240013298688242F5D30C33EAE789
:100708000022F8E71C6844F8220001325C68A24223
:10071800F8D30833E4E70022F8E700BFAFF300801E
:10072800A5EDF5FEA5EDF5FE0000000000ED00E0EA
:10073800F80B002000040020F80B002070060000D1
:100748009406000094060000AC060000EFF3088051
:10075800EFF309812DE9F00F6B46724600F004F9BA
:1007680008B0FFF79FFFFEE74FF47F03D3F830216F
:10077800D3F83431072A05D1023B032B02D8024AA9
:10078800D05C704700207047BC330000694A08B548
:10079800D2F8D03043F00203C2F8D030FFF7E4FFBC
:1007A80058B1654BD3F8202A3AB90D21C3F8201A5D
:1007B8000121C3F81C19C3F81C290022D30003F532
:1007C8007F03D3F80013013107D0D3F800130132A7
:1007D800D3F80433202A0B60F0D1FFF7C5FF0028B7
:1007E80040F0A080FFF7C0FF40B1544B544AC3F813
:1007F80030254FF050230122C3F858254FF47F03CA
:10080800D3F83021D3F83431072A09D1023B032B1E
:1008180006D84C4AD35C1BB100224B4BC3F84C257D
:10082800FFF7A2FF50B14FF05023D3F80024D107AF
:1008380042BF0022C3F81421C3F818214FF47F03E4
:10084800D3F83021D3F83431072A09D14FF0502397
:10085800D3F80024D20744BF6FF00102C3F8002484
:10086800FFF782FF18B16522334BC3F80C274FF40A
:100878007F03D3F83021D3F83431072A16D1324B0D
:10088800D3F82034002B11DA4FF050230322C3F899
:10089800182501229A60D3F80421002AFBD00022EF
:1008A800C3F804210122DA60C3F818254FF47F0346
:1008B800D3F83021D3F83431072A23D1023B032B54
:1008C80002D8224AD35CEBB17E221B4B1B49C3F8EA
:1008D8000C27C3F83C297F231D4AC2F8183100238E
:1008E800C1F8043EC1F8083E01F54821C1F81031AD
:1008F800C2F82431C2F82C3102F5FF1202F58052F9
:10090800C2F8A0320B4AD2F88C3043F44063C2F8E4
:100918008C30104A104B1168C3F84415D269C3F8DB
:100928004C2508BD2922044BC3F80C270322C3F821
:100938003C2757E700ED00E00040005000900350CE
:100948004400EFBEB833000000200350B433000069
:10095800002000500080FF00006000507C22014908
:1009680005F0D8B8BC18002038B51D46384B394CAE
:100978005B68C3F308032360EFF3038363655306DF
:10098800C4E90120E16039D502F00C020C2A08BF45
:1009980008460146206120222F4805F0BBF825B102
:1009A800202229462D4805F0B5F8294B9A6AA265F8
:1009B800D96AE165986B206602F400406066586B5E
:1009C800A06602F08000E0669A62D962D3F8E4205B
:1009D80023482267D3F8E810616702F04001A16755
:1009E800C3F8E4200E2101F0C3FA2268D31E042BB9
:1009F80022D8DFE803F00F15181B1E00EFF39483CD
:100A0800990704D5130702D5EFF38980C1E7EFF3FF
:100A18008880BEE70C211348BDE8384001F0A8BA29
:100A280012211148F8E70B211048F5E70D2110486D
:100A3800F2E70E210F48EFE70F2A98BF1421BDE80F
:100A4800384089BF25210C480C48103A01F032BCC7
:100A580000ED00E0BC180020D0180020F01800209D
:100A6800C0330000CE330000DA330000EC3300005E
:100A7800F73300000434000012340000263400006C
:100A88002DE9F34106460F460C4DD5F82C80C0479A
:100A980010F00104FBD1394630466B69984740B9DC
:100AA800C047C307FCD42B6A019302B0BDE8F041EC
:100AB8001847204602B0BDE8F08100BF4C34000062
:100AC80010B5094C0020A36898472369022098476D
:100AD8004FF4E131A46A0120A04701211520A04765
:100AE8000122024B1A6010BD4C3400003819002056
:100AF800064B82B01868002382B262F30F03000C21
:100B080060F31F43184602B0704700BF94340000DA
:100B1800014B1869704700BF84100020014B5869C9
:100B2800704700BF8410002010B5044C204600F028
:100B380025FF002084F8240010BD00BF8410002089
:100B480038B50C4D0C4695F8243013B94FF0FF30EA
:100B580038BD0A460146284600F0A0FF064B9842D9
:100B680005D00B3B9842F1D100206C61F0E76FF0A3
:100B78000100EDE7841000200B00AD0BF0B51B4E13
:100B8800054696F824300C4691B01BB94FF0FF305B
:100B980011B0F0BD00F06043B3F1005F21D1002334
:100BA8000A460146304600F00BFC114B98421AD019
:100BB8000B3B9842EAD1346111E0A71B402F28BFB4
:100BC8004027A9193A46684604F0A4FF3946684602
:100BD800FFF7D4FF0028DBD14036B442EDD800201F
:100BE800D6E70026F9E76FF00100D1E7841000206E
:100BF8000B00AD0BC3B2012B30B540F0A2804DF60F
:100C0800C023994276D028D8B1F5615F75D011D844
:100C1800B1F5965F73D008D8B1F5966F71D0B1F57C
:100C2800166F71D06FF0070063E0B1F5165FF9D168
:100C38004B4B33E047F61223994268D007D8B1F5F9
:100C4800964F67D0B1F5E14FECD1464B26E0B1F5B0
:100C5800164FE7D14FF41D0320E0434B99425BD078
:100C680011D8B1F5E13F5AD007D8B1F5614F59D045
:100C7800B1F5963FD6D13D4B10E0B1F5613FD1D1EA
:100C88004FF06C730AE0B1F5612F4ED0384B9942A2
:100C98004ED0B1F5E12FC5D14FF0E86310F4E06F05
:100CA80052D110F4404403D0B4F5804F4FD11024F2
:100CB800304900F44052B2F5805F8D8B3BD0B2F5DD
:100CC800005F3BD0002A45D110F4403003D0B0F586
:100CD800403F42D101204A7622432A430876024304
:100CE80000200B628C768D830968C1F82435C1F821
:100CF8006C2530BD4FF46503D0E71F4BCEE71F4B83
:100D0800CCE74FF49E23C9E74FF41D23C6E74FF401
:100D18000003C3E71A4BC1E74FF08063BEE74FF00B
:100D2800EB73BBE74FF46B03B8E74FF07063B5E7BD
:100D38004FF08053B2E700250E22C5E74FF48075C7
:100D4800FAE76FF00300D4E76FF00800D1E76FF01F
:100D58000A00CEE76FF00900CBE76FF00B00C8E799
:100D68000050270000C0750090D0030000903A01A1
:100D780040420F008410002000F03A0000B0130039
:100D880000A04E0010B58EB02822002104A804F05F
:100D9800E6FE4FF0FF33CDE90033CDE902334FF0E3
:100DA800EB7368460A930723104C8DF83530D4E965
:100DB800021201F0FBF801460022204600F052FA28
:100DC8000B4B98420ED1DDE90B0100230A9AA06172
:100DD800226201221846C4E90433A18384F824203E
:100DE8000EB010BD6FF00100FAE700BF84100020BC
:100DF8000000AD0B036803F01F025B09026004D01A
:100E0800012B034818BF002070470248704700BFF5
:100E180000288450002584507FB500250C46C0F872
:100E280008511646D0F80821D0F8002222F02002F6
:100E3800C0F80022104AC0F8082301F008F9A5609C
:100E4800256104F14C03D3E8EF1F21F47F0121F45D
:100E58007041C3E8E21F002AF5D1102229466846EE
:100E680004F07DFE042368468DF800300196D4E92D
:100E78000013984704B070BD10020A00044B054ADD
:100E88001B68B3FBF2F35843034B43F001031847C5
:100E98008010002040420F00A034000007B50190E8
:100EA80001A8FFF7A7FF019B00EB8300D0F8002201
:100EB800034B1340C0F8003203B05DF804FB00BFD9
:100EC800F0F0FCFF2DE9F04F804690F804A0502088
:100ED800664F0E4600FB0A70416885B049B113F0B1
:100EE800020304D0836B002B00F0B280012300932F
:100EF80000E000914FF0500909FB0A73DB6CD9063A
:100F080000F1A6804FF0010BB3180293029BB34285
:100F180000F0A78006F06043039398F80450D8F8CF
:100F2800004009FB05739A6B9AB9039BB3F1005F04
:100F380040F09980019200F0F3FD09FB0572D16C35
:100F4800204601F0010101F050F828B900F0F0FD49
:100F5800E3E701230193EEE7516C33460029BCBF58
:100F6800D4F84C155164019A42B109FB05713078E7
:100F7800D1E90E23D054D1E90E3213441BB1C4F881
:100F88004435C4F848B50022C4F82021D4F820110B
:100F9800C4F85821D4F85811C4F85021D4F8502175
:100FA8000822C4F80025009AE2B14FF48003C4F87F
:100FB8000433C4F808B000F0BBFD502303FB0A72E9
:100FC800516800294BD1D26C120748D503FB0A732C
:100FD8004C33D3E8EF1F21F00801C3E8E21F002AD1
:100FE80036D0F6E7C4F808B0019300F0A1FD09FB7C
:100FF8000572D16C019B01F001012046019300F0BC
:10100800F4FF8446019BD4F84C05D4F84425BCF180
:10101800000F0DD19342F0D005EB850507EB0515C0
:10102800D1B100F07DFD2946204601F022F8C2E743
:1010380005EB8505934207EB0515F1D10028EFD1A3
:1010480000F06EFD2946204601F013F800F070FD0F
:10105800074805B0BDE8F08FC4F80CB0E1E70136E9
:1010680054E70448F5E70448F3E700BF3C190020BB
:101078000800AD0B0000AD0B0400AD0B07B50190E7
:1010880001A8FFF7B7FE019B00EB8300D0F8002210
:10109800044B134043F00303C0F8003203B05DF87B
:1010A80004FB00BFF0F0FCFF07B5019001A8FFF7B3
:1010B800A1FE019B00EB8300D0F80022044B1340F3
:1010C80043F00203C0F8003203B05DF804FB00BF30
:1010D800F0F0FCFF2DE9F3470C4694F83330054651
:1010E80090F804800968002B36D150235A4F03FB2F
:1010F8000873DE6C46F00072DA644A1C0AD001A854
:101108000191FFF777FE0123019A93408360084617
:10111800FFF7B4FF6068431C01D0FFF7BFFE94F8E7
:101128002C30012B18D1502303FB0873E06846F0DC
:101138002066421CDE6401D0FFF7B0FEA668731C6F
:101148000AD001A80196FFF755FE0123019A9340A2
:1011580083603046FFF792FF94F832703FB950220F
:101168003D4B02FB0833DA6C42F08072DA6494F883
:101178002C6094F82D0094F82E90228E2B68D4F8C9
:1011880028A0324340EA09000243D4F80CC0D4E94D
:10119800018EC3F824A5C3F86C254FB9012EC3F8F6
:1011A8000C15C3F8148504BFC3F808E5C3F810C5C7
:1011B800D3F8682503F26457012A08BFDA60D3F828
:1011C8006425012A0FD1082149F64046C3F80015C5
:1011D8005A603B68A3BB2B68D3F88024C3F88024EB
:1011E8000022C3F8002500212B6894F83520C3F8A5
:1011F8001011D3F81001C3F82011D3F82001C3F857
:101208002411D3F82401C3F84411D3F84401C3F8D6
:101218005811D3F8581143F307335201002BD2B2B7
:1012280014DB0E49C81880F800230122580903F07E
:101238001F0302FA03F341F8203002B0BDE8F0873B
:101248000120FFF71BFE013EC3D1C4E7044903F0A8
:101258000F03CA54F1E700BF3C19002000E100E089
:1012680014ED00E02DE9F3479046502290F80490E1
:101278004E4C02FB09FA04EB0A070D4697F8481092
:10128800064600297ED109EB890004EB001004F022
:1012980066FC2B69AA6944F80A306B69BB6302B122
:1012A800013A502303FB0943DA632A6A042A81BFFF
:1012B800EA699A610022DA6195F83430B8F1000FD2
:1012C80034D083F001073F0233B1502303FB0943B5
:1012D800DA6C42F00102DA64502303FB094401236B
:1012E800C4F8048084F848303468D4F84C21FAB93A
:1012F80029463046FFF7EEFE0822002334688DF8B1
:101308000730C4F800250DF10702C4F84425C4F8D5
:10131800483501230A25A360E360D4F858319BBB04
:101328000120FFF7ABFD013DF7D125E04746CBE7AC
:1013380008224FF06409C4F800256360D4F84431EA
:10134800F3B9D4F82431DBB90A20FFF797FDB9F1D6
:101358000109F3D14B460022C4F84C21D4F84C11B2
:10136800C4F81021D4F81011C4F84421D4F8441159
:10137800C4F80025002BBBD10D4802B0BDE8F087AA
:101388000123E8E70B48F8E70023C4F82031984523
:10139800D4F82021C4F80035074B08BF00231F43A9
:1013A80033680648C3F80473E7E700BF3C19002018
:1013B8000100AD0B0C00AD0B10020A000000AD0BD4
:1013C8002DE9F04784460F469E4616460579002AC1
:1013D80051D04FF0500ADFF8AC80D0F800900AFBEB
:1013E800058ADAF8044074B96BB9DAF82C50002D84
:1013F80043D1CAF82C20FFF765FD0446CAF82C50E3
:101408002046BDE8F0871EF0030F07D0734632462A
:101418003946BDE8F0476046FFF754BD07F0604322
:10142800B3F1005F4FF0500414D104FB058400F0C1
:1014380077FBE26A1AB1144C00F07AFBE0E7C4E9E2
:101448000A7605EB8505484608EB051100F01CFEF9
:101458000E4CF1E704FB0584A36B83B100F060FB3D
:10146800E36A002BE7D1E36C012243F00203C4E9ED
:101478000A76E364E5E7064CC2E7034CC0E7054C8F
:10148800BEE700BF3C1900200B00AD0B0000AD0B00
:101498000600AD0B0A00AD0B2DE9F8435023067981
:1014A800284D046803FB0653D4F80473DA6AC4F8B9
:1014B800087322B92448C4F80473BDE8F88306EB1E
:1014C800860005F14C024FEA001802EB0012D2E840
:1014D800EFCF4CF0080CC2E8E0CF0028F7D101228A
:1014E800E26031B3D96C01EA02094946204600F0AE
:1014F8007CFD0028FAD000F013FBB9F1000F1CD1D5
:10150800D4F8203153B10123E360D4F85831002BCB
:10151800FBD0204605EB080100F0ABFD00F008FB0E
:101528000023C4F82031D4F82021502202FB0655AC
:10153800EB620648C4F80473BFE7D4F85831002BAF
:10154800E7D1EBE73C1900200500AD0B0000AD0B1F
:101558002DE9F84390F804804A4E08EB88073F01CC
:1015680007F14C0504683544D5E8EF3F43F4805251
:10157800C5E8E02F0028F7D1DA047FD44B0705D55A
:10158800502303FB08639B69002B79D03E4B3744FB
:10159800C4F808330823C4F800350023C4F8103110
:1015A800D4F81021C4F84C31D4F84C21C4F8443193
:1015B8000A03D4F844318B0303F4804302F4005245
:1015C8004903134301F400410B43D5E8EF2F1A43B5
:1015D800C5E8E12F0029F8D14FF0500909FB086947
:1015E800D9F80830EBB9D9F8043093B9502303FB84
:1015F8000863DB6CD8043FD5D5E8EF3F23F47F03BD
:1016080023F47043C5E8E23F002AF5D11F48BDE83E
:10161800F8830321384600F0F5FCD9F80830002B90
:10162800E4D0D4F80433590713D5502303FB0863D7
:101638005A6872B1DB6C1A030BD5D5E8EF3F23F477
:101648000023C5E8E23F002AF7D10621384600F01A
:10165800D9FC502303FB0863DB6CDB040CD5D4F8FE
:101668004C310BB901232360502303FB08667368D0
:1016780013B1054BC4F804330548C8E70548C6E765
:101688000548C4E73C19002010020A000200AD0B0F
:101698000000AD0B0B00AD0B0800AD0B2DE9F84FAA
:1016A800502390F804905B4E046803FB09631746C7
:1016B800DA6CD4F804A350038846C4F808A300F1F0
:1016C800A38001F06041B1F1005F40F09F8099680C
:1016D80059B15B68002B40F08380D4F810110029C1
:1016E8007ED0C4F81031D4F81031502505FB0965B7
:1016F800EA6909EB890BC5E902874FEA0B1B002A47
:1017080049D0974235D84FF000093A46A969404672
:10171800C5E9029904F0FEF9EA69A869D21BC11962
:10172800EA6104F0C1F96B6823B93B48C4F804A323
:10173800BDE8F88FEB6C5E44990414D5374B5B44D5
:10174800D3E8EF1F41F48021C3E8E21F002AF7D154
:101758003A464146304600F066FC4A463146204645
:10176800FFF75AFBE1E73A464146304600F05BFC9A
:10177800DBE74046A96904F0CDF9EB696B62002309
:10178800EB61264B5B44D3E8EF1F41F40021C3E82B
:10179800E21F002AF7D1502303FB0963586ADA686D
:1017A8009968DB6C121A0144C4F83415C4F838255A
:1017B800DA04BAD5194B5B44D3E8EF1F21F4802132
:1017C800C3E8E21F002AF7D101232360D4F844318B
:1017D800002BAAD00023C4F84431D4F84431A4E73C
:1017E800502303FB0966336993B95304C4F834855D
:1017F800C6E90487C4F8387597D5D4F8003243F0A1
:101808002003C4F8003290E705488FE705488DE7C4
:1018180005488BE73C1900200000AD0B8819002013
:101828000500AD0B0A00AD0B0B00AD0B50232DE9E5
:10183800F0414E4D90F80480046803FB0853D86CBF
:10184800D4F8007200F48220B0F5805F05D009B1A9
:101858000022DA614648BDE8F081D4F80463C4F890
:10186800086309B9BB0652D44FF4A111D4F8003269
:1018780023F02003C4F80032502303FB08574C37E9
:10188800D7E8EF0F0843C7E8EC0FBCF1000FF7D11A
:1018980022B903FB08535B68002B63D1354BC4F8AE
:1018A800083301236360D4F84431002BFBD00023B4
:1018B800C4F84C31D4F84C21C4F81031D4F81021B4
:1018C800C4F84431D4F84421502202FB0852D16CA8
:1018D80011F400411ED1D161204600F0B8FB50231D
:1018E80003FB08550023AB602B61D7E8EF3F23F4D7
:1018F8007F0323F47043C7E8E23F002AF5D126F4BA
:10190800202626F404761C48C4F80463A3E74FF4A1
:101918008031B1E79269C4F84C31D4F84C11C4F85D
:1019280034250522C4F83825C4F81031D4F810310C
:101938000123E362D4F81031002BFBD00023C4F854
:101948001031D4F81031D4F84C210AB1D4F83C2520
:10195800502303FB0853DA610023C4F84C31D4F850
:101968004C31B9E701236360CDE700BF3C19002083
:101978000500AD0B10020A000000AD0B2DE9F04187
:1019880003682E4A0579C3F8082343F30733002B6D
:1019980004460DDB01215A0903F01F03994002F1A7
:1019A8002003274A42F82310BFF34F8FBFF36F8FEE
:1019B800012220461146FFF739FF01212046FFF793
:1019C8006BFD2368227950241E49D3F80C0504FBCB
:1019D8000212D46CD3F81485E201D3F80865D3F861
:1019E800107509D54FF0FF32C3F80C25C3F814253C
:1019F800C3F80825C3F81025A20115D5431C01D04A
:101A0800FFF752FBB8F1FF3F02D04046FFF74CFB0F
:101A1800200109D57A1C02D03846FFF745FB731C14
:101A280002D03046FFF740FB5023002203FB05138A
:101A3800DA6483F848205A60BDE8F08110034A0050
:101A480000E100E03C19002010B5502402790E4B4B
:101A580004FB02335B689BB90368D3F80025082AA6
:101A680005D011B1D3F83C350B60084810BDD3F848
:101A780010213AB111B1D3F83C350B600448F5E7B1
:101A88000448F3E70448F1E73C1900200C00AD0BCB
:101A98000000AD0B0800AD0B0B00AD0B2DE9F341B9
:101AA80005461646FFF7FAFD184B0446984226D11C
:101AB8000321284695F80480FFF74AFD144FB842E1
:101AC80001D0A0421FD15022124B02FB08335B68A1
:101AD800ABB90193284601A9FFF7B6FFB842F9D080
:101AE8000D4B98420AD0019BB34207D301222846E6
:101AF800114602B0BDE8F041FFF798BE074C2046FA
:101B080002B0BDE8F0810446F9E700BF0000AD0B64
:101B18000B00AD0B3C1900200C00AD0B0800AD0B01
:101B280072B6024A13680133136070478C1900209B
:101B3800034A1368013B136003B962B6704700BFDC
:101B48008C190020003A18BF0122003918BF012162
:101B580003688900074841EA4201186359605A68D6
:101B680042F001025A60BFF34F8FBFF36F8F00201E
:101B7800704700BF04AAFF000722024BC3F80423E2
:101B8800704700BF00300050084BD3F80801D3F865
:101B98000021003818BF012080000AB140F0010080
:101BA800D3F804310BB140F0020070470030005008
:101BB8000022074BC3F80021D3F80011C3F8042111
:101BC800D3F80411C3F80821D3F80831704700BFCF
:101BD8000030005000231720094A03F5C071013373
:101BE800402B42F82100F8D100231720044A03F5BE
:101BF800E0710133402B42F82100F8D1704700BF53
:101C08000030005010B59DF80840800B43EA0423CB
:101C1800064C890B43EA0213884200D910BDC2B2B0
:101C280002F5C07244F822300130F5E70030005068
:101C380010B59DF8084000F1604043EA042301F123
:101C48006041074C400B490B43EA0213884200D914
:101C580010BDC2B202F5E07244F822300130F5E757
:101C680000300050C0F30D03C3F58043B3FA83F38B
:101C7800C3F11B03064AC0F38730DBB240F480701F
:101C880043F48073C2F80005C2F80435704700BFFA
:101C9800003000504303014818447047FF1FF81FE5
:101CA800054BC0F30730090241F0300100F5007020
:101CB80043F82010704700BF00300050044BC0F3B9
:101CC8000730090200F5007043F82010704700BF84
:101CD8000030005008B5FFF757FF044B1621186075
:101CE8000348BDE8084000F043B900BFD81F0020F2
:101CF800A63400000C22014903F00CBFD81F0020B5
:101D0800F8B501F01AFB044630BB01F0D9FF0446D0
:101D180020BB144A2721D368134823F008031B0467
:101D28001B0C43F0BF6343F40033D36000F020F989
:101D380001220C210D4800F0BDFA254601260C4F62
:101D480006FA05F39B0704D02A460621384600F018
:101D5800B1FA0135202DF3D12046F8BD45F22354C0
:101D6800FAE700BF00ED00E0BC340000E3340000F7
:101D7800EF340000024B1860024B002019607047D6
:101D8800E81F0020E41F00201FB5274C4269236884
:101D98005A6282699A62C269DA62026A1A63426A9C
:101DA8005A63826A9A63C26ADA63026B1A64426B84
:101DB8005A60826B9A60C26BDA60026C1A61426C7C
:101DC8005A61826C9A61C26CDA61026D1A62826D24
:101DD8005A65C26D9A65026FDA65026E1A66826E7E
:101DE8005A66426F9A66EFF388825A64EFF38982E3
:101DF8009A644268DA64EFF394821A65026801A86B
:101E08001A67FFF777FF2368019ADA6601221A70CA
:101E1800064B1C6864086400204621462246234677
:101E280003F05DFF04B010BDE81F0020E41F002090
:101E380000B5A1B001A8FEF791FD029B63B15B0656
:101E48000AD4019B23F00203052B05D1044B1B6820
:101E580013B101A8FFF798FF21B05DF804FB00BF9C
:101E6800E41F0020BFF34F8F0549064BCA6802F4F0
:101E7800E0621343CB60BFF34F8F00BFFDE700BFA5
:101E880000ED00E00400FA05F8B543680C2B26D1F4
:101E98004B68042B23D14FF0FF3304680E68216888
:101EA8003360E1B1A268D2B10623012001F097F9AD
:101EB800A8B961680B4BD3E9005CA9420AD3A268B0
:101EC80065448F18AF4205D8206803F023FE002030
:101ED8003060F8BD0130052803F10803EBD102207A
:101EE800F7E700BFF8340000436870B50C2B32D117
:101EF8004B68042B2FD14FF0FF3306680C6830680D
:101F0800236050BB7268550903D0012D1CD14FF6D0
:101F1800FF7302F01F02D340D90719D5B16807290A
:101F280016D88B23CB40DB0712D57DB1012D16D1F6
:101F38000D4B03EB8203D3F8002222F0E04242EA81
:101F48000172C3F800220023236070BD074BF0E73D
:101F58004FF0FF33F8E70220F7E70320F5E7002307
:101F6800803253F82230FFDE002884500025845048
:101F7800FEF786BD012070476FF00300704700230D
:101F880082B00193019802B070476FF00300704768
:101F9800002382B00193019802B07047022814BF51
:101FA8006FF0030000207047FEF7E8BD70B540F2FF
:101FB800FF1501EB8202914200D170BD51F8044B2C
:101FC800C4F30803640CAB4208BF4FF0FF33032C83
:101FD800F1D8DFE804F0020406080360EBE7436089
:101FE800E9E78360E7E7C360E5E70346D0F858010F
:101FF80030B931B9D3F82001003818BF0120704733
:102008000120704730B504460D4685B010220021E6
:10201800684603F0A4FDD4E9001368468DF8005023
:10202800984705B030BD7FB504460E4615460021D9
:102038001022684603F093FD012368468DF80030AE
:10204800CDE90165D4E90013984704B070BD10B517
:102058000446FFF765FDD4F8583133B1D4F804339A
:1020680013F4800308BFC4F80035BDE81040FFF73B
:102078005FBDD0F8583133B1CB6CC3F30032DB0409
:1020880058BFC0F80025704770B5CE6C0D4606F0F5
:1020980001010446FFF7A9FF38B94FF4800346F061
:1020A8000406EE64C4F8043370BDD5E90A365AB1A3
:1020B800296CEA6B761A964228BF164619443246AE
:1020C800A86B03F027FDAB6B4FF0FF326A641BB1BE
:1020D800C4F84435C4F848650023C4F82031D4F85E
:1020E8002021C4F85831D4F85821C4F85031D4F814
:1020F80050310823C4F800354FF48003C4F8043382
:102108000123A360D0E74B6830B513F01F052DD12C
:1021180002680C681068C0F30720844226D2506811
:10212800556094600C7C23F01F0304F001041C43E9
:102138008B7CDB0003F018031C434B7C5B0003F033
:1021480006032343D3608B68013B23F01F04CB684D
:102158005B0003F00E03234343F001031361506057
:10216800BFF34F8FBFF36F8F284630BD0120FCE7C8
:10217800036800205A68C9B258609960D86018612D
:102188005A60704770B50546002403681E68C6F398
:102198000726B44201D1002070BD21462846FFF72A
:1021A800E7FF0134F5E780037047800300F57F50AF
:1021B8003F307047002070473F2070474FF4804001
:1021C800704700F57F40C03040037047402070479B
:1021D8007F2070474FF4005070470020704708B5C3
:1021E800FFF726FE72B620BFFDE7034610B10020B8
:1021F800187070474AF2C530704700207047704722
:10220800034670B508461146042B3AD8DFE803F0B8
:1022180003070B390F00BDE87040FFF735BEBDE876
:10222800704000F030B8BDE87040FFF75DBE43680D
:10223800082B01D0022070BD4C68042CFAD14FF055
:10224800FF3305680E68296833600029F2D06B688F
:10225800002BEFD026237422012000F0C0FF0028B5
:10226800E8D1224623230120696800F0B8FF04461C
:102278000028DFD1D5E90001FFF77CFD306020465A
:10228800D9E70320D7E743680C2B01D00220704719
:102298004B68042BFAD10B68012102681960116898
:1022A8000131F3D10221906819600028EED118603D
:1022B8007047000030B50C46154685B038B139B1C5
:1022C800FFF756FE041E03DA204605B030BD04466B
:1022D80040F60D23ADF80E3009230B4901A805F08F
:1022E8000F028A5C2D091A54013B012BF7D147F6DE
:1022F80030030C21ADF80430FFF73AFE0028B4BFD4
:1023080004462418E0E700BF2035000007B51A4B43
:1023180083F30A88194800F0FBFF48B100F056FE25
:1023280000F008FC00F0D6F8002003B05DF804FBCC
:10233800FFF7E6FC0028F1D121211148FFF718FE2C
:10234800FFF74BFF0028E9D10DF10700FFF74DFF1C
:102358000028E3D19DF807301BB1FFF74EFF002896
:10236800DCD1FFF74CFF00F039FF35210548FFF7B6
:10237800FFFD00F0C7FDD3E70004002090190020FE
:10238800303500005135000030B5094C024661680F
:102398000023084640B105686D68954205D11BB118
:1023A800826860609A60816030BD03468068F1E7AA
:1023B800141A002038B504462AB10B689B68DB055F
:1023C80012D5002038BD0B4B1D680DB900F0FEFD7D
:1023D80000222B68996934338A4203D053F8040FDA
:1023E800A04204D19142ECD16FF0FC00EAE701323F
:1023F800F2E700BF1C1A002070B504460E461546C9
:10240800002130220C3003F0AAFB064B20461B6843
:10241800A6606360656100F0C5FE0023206123604B
:1024280070BD00BF1C1A0020034B186810B100686B
:1024380000B14068704700BF1C1A0020064B10B559
:102448001C680CB900F0C2FD23689B6813F4406F48
:1024580014BF0120002010BD1C1A00202DE9F843EC
:10246800904607460C46FFF7E9FF024624B96FF08D
:1024780080042046BDE8F8836300F8D5144B04F0C7
:102488001F0153F82150002DF1D02B6829465868B8
:10249800FFF790FFB0B9C4F30721284600F098FD74
:1024A80004460028E3D1EFF3108972B600F087FEE6
:1024B800064689F3108840B142462946FFF79CFF3B
:1024C8003E60D6E76FF08104D3E76FF08204D0E76F
:1024D800941900202DE9F04100F070FE0023134EFE
:1024E800134F73607B6000F0E5FADFF848803046F0
:1024F80000F022F80446A0B139468023424600F095
:10250800A1F80546204600F099FD2068211D00F03D
:102518003DFB08B100F05AFD2946204600F076FA46
:10252800E5E7BDE8F04100F087BA00BF201A0020B7
:10253800141A002094190020F8B5054608B900F0CF
:1025480045FD3B4E346814F1310F6ED8394B19688C
:1025580004F130038B4268D2E369A26903EB830379
:102568000E321344226A02EB42021344626AC2EB3F
:10257800C20213449B00E31801D2994201D200F031
:1025880025FD23682C4A1B0C1B04934201D000F044
:102598001DFD2388B3F5817F01D300F017FD636823
:1025A800002B01DA00F012FDD4E90A239A4201DD7A
:1025B80000F00CFDA36813F4406F22D11F4A17687E
:1025C80007F1200313601E4A1268934201D900F0F4
:1025D800FDFCE369A26903EB83030E321344226A0C
:1025E8003C6002EB42021344626AC2EBC20213442B
:1025F800326802EB83026B683260FB616F603846B9
:10260800F8BD6F68002FD9D03B689A6812F4406F04
:1026180009D0E16A9A6A914205DBA26ADB6A9A42AA
:1026280001DC00F0D3FCFF69ECE70027E7E700BF17
:10263800B41000209035000000005F5FB01000204B
:102648008C3500002DE9F74F0F469046064600935B
:1026580000B109B900F0BAFCD6F800A0DAF81820E1
:102668000AF1380303EB820BDAF81C40204B1D6893
:1026780054B10C2202FB04541C601E4B1B689C4284
:1026880001D900F0A3FC2C4625464FF00009DAF8E2
:102698001C204A4500D91CB9002003B0BDE8F08FC2
:1026A800142303FB09B20023C5E900269268AB6036
:1026B800930516D5B8F1000F02D0009B802B03D0EC
:1026C800019200F083FC019A12F0E00FD0B202D11F
:1026D80058F820201AB1019000F078FC019848F8C9
:1026E80020507A6809F10109AA607D600C35CEE7AF
:1026F800AC100020883500002DE9F04F93B000930E
:102708005E4B0746D3F800B00BB2002B0D461646B9
:10271800C1F30269C1F3024A04DA6FF0800013B012
:10272800BDE8F08F8B42C36001D10020F7E709EBC9
:102738000A03042BF1D8CC0F64014FEAC9083146CB
:102748004246DBF8040044F0020300F048FD01466D
:102758000028E2D1202202A803F001FA42463146BD
:1027680002A84FEACA0603F0D5F932460099DBF809
:10277800040044F0060300F032FD80460028CCD166
:10278800014620220AA803F0EAF9324600990AA86D
:1027980002AE03F0BFF9334608F10108C14514D968
:1027A8001A46C4460DE0D2F808E0D16818687144AA
:1027B800884203D2596808448645AED30CF1010C0F
:1027C8000832CC45EFD10833E6E715F0006F18BFA3
:1027D80020241022002107F11C0003F0C0F907F1A2
:1027E80018081022002107F12C0003F0B8F908EBB3
:1027F800890944F00203C84512D1202C27D1002DA5
:1028080002DBC5F3C0456C0107F128050AAE05EBEC
:102818008A0A44F0060455451BD1009BFB6784E7F0
:102828007268DBF8040056F8081B019300F0D7FC27
:1028380000287FF472AF56F8042C019B48F8042F47
:1028480056F8082CC8F83000C8F82020D3E7002430
:10285800DAE77268234656F8081BDBF8040000F034
:10286800BEFC00287FF459AF56F8043C45F8043FF5
:1028780056F8083C28642B63CDE700BF1C1A0020DB
:102888002DE9F0411F461A4B0D461646D3F8008035
:1028980000F0B0FB044608B900F098FBE368002B91
:1028A80001DA00F093FB032D01D900F08FFB04EB54
:1028B8008504E569E36CED1A16D006233A463146DD
:1028C800D8F8040000F08BFC08B100F07FFBBD4293
:1028D80028BF3D46E36CE16B2A461944304603F0B5
:1028E80019F9E36C2B44E3642846BDE8F08100BF86
:1028F8001C1A00202DE9F0411D461A4B0F461646BA
:10290800D3F8008000F076FB044608B900F05EFBBF
:10291800E368002B01DA00F059FB032F01D900F01E
:1029280055FB04EB8704E36AE26E9B1AAB4201D2C3
:1029380000F04CFB02232A463146D8F8040000F088
:102948004EFC08B100F042FBE36EE06D2A463146CA
:10295800184403F0DFF8E36E00202B44E366BDE87B
:10296800F08100BF1C1A00202DE9F04105464FF008
:1029780001080E4E0E4B37685C681CB92846376054
:10298800BDE8F0812268936813F400700CD1636984
:10299800012B09D0D368346023B19847002801DAA5
:1029A80000F014FBC4F81480E469E6E71C1A002060
:1029B800201A002070B50446D0B18368C3B11A68E4
:1029C800B2B15D68A5B10C4BA86168691D6020B9FA
:1029D8002B68DB684BB901236B61A36804F10C0019
:1029E8001B68BDE870401B69184798470028F2DA51
:1029F8006FF0800070BD00BF1C1A00204268024BB7
:102A080008461A60704700BF1C1A0020002203689D
:102A180010B5C0E905229A68044612F4406F07D041
:102A2800120503D5D3E90A0100F034F8014B1C6004
:102A380010BD00BF1C1A002038B5124B1B681C685B
:102A4800A36813F4406F01D100F0C0FA00F05EF9FA
:102A5800226B23690C49134423F00703A3F10805EB
:102A680043E9021185F30988073222F0070282F34D
:102A78000B88BFF36F8F054BE268054900F08AFCAD
:102A8800002038BD1C1A0020A5EDF5FEF80B00202B
:102A980071290000014BC3E900017047281A002082
:102AA800034BD3E900308342C8BF0020704700BF02
:102AB800281A002008B500F01DF9034B986000F0B3
:102AC8001FF980F3888808BD00ED02E0EFF3088065
:102AD8007146EFF30982EFF30B830CB406B400F0F0
:102AE80031FA8646009900F0080001F00801401A02
:102AF80002DC12DB04B070471EF020031CBF2DE976
:102B0800F00FBDF1080D0A4C254626462746A0467B
:102B1800A146A246A34630B4704704B030BC1EF0AC
:102B280020031CBF1DF1080DBDE8F00F04B070476D
:102B3800A5EDF5FE084BDA6882F07F4282F47F0249
:102B480042F48042DA6000221A765A76DA76DA7728
:102B5800602283F82220704700ED00E0009A0A4BBB
:102B68009A420FD101229043014602460346044689
:102B78000546064607468046814682468346844681
:102B880086460447FEE70000A5EDF5FE2DE9F04175
:102B9800044618B943F6DA30BDE8F0810029F9D0C7
:102BA8008368002513F4406F14BF01230023134FDB
:102BB80043F00203DFF848800B6000F13806236A0F
:102BC800AB4201D80020E7E71421A369E26906EBCC
:102BD800830301FB02330C226A43991889680907A9
:102BE80009D59B58BB4201D04345D3D1186810B1D1
:102BF8000121FFF755F80135E1E700BFC4100020B7
:102C0800BC10002070B5324C86B03248FFF7BAFAD3
:102C1800236801255A1C01932F4B2260DA681B692F
:102C28004FF44076039300232A4801A902920495A1
:102C3800ADF814608DF81630FFF765FA18B143F651
:102C4800DA3006B070BD23688DF816005A1C01935F
:102C5800224B20480293224B01A9CDE9033522607B
:102C6800ADF81460FFF74FFA0028E8D123688DF813
:102C780016005A1C01931B4B164802931A4B01A9C4
:102C8800CDE903352260ADF81460FFF73CFA00285F
:102C9800D5D123688DF816005A1C0193134B0D48A3
:102CA8000293134B01A903930223049340F20113E7
:102CB8002260ADF81430FFF726FA04460028BED18A
:102CC8002A4629460348FEF73DFF2046B9E700BFDC
:102CD800301A0020B810002094350000A0360000FB
:102CE800E05E00006006000060060000000C0020A6
:102CF800200C0020014B1868704700BF9435000075
:102D0800014B1B681868704794350000014B1B681D
:102D1800586870479435000008B5FEF7DBFFFEF7EA
:102D280047FF0A4B5A68103AD3B2120609D4012158
:102D38005A0903F01F03994002F16003044A42F85C
:102D48002310BDE8084000F041B900BF00ED00E0E5
:102D580000E100E00020034BD8765A6A42F4702262
:102D68005A62704700ED00E00349044BCA6800202E
:102D780092B21343CB60704700ED00E00800FA05FB
:102D8800054B03EB8000D0F8003223F0E04343F01A
:102D98004053C0F80032704700258450074A084B5A
:102DA80011680020C3F84415D269C3F84C250222E3
:102DB800C3F84025C3F84825704700BF0080FF00CE
:102DC80000600050064BD3F8D02022F00102C3F86F
:102DD800D020D3F8D02042F00202C3F8D0207047A8
:102DE80000ED00E037B50124FEF7F4FE134D22464E
:102DF800052347F6FF7100200094FEF703FF2246E3
:102E080007234FF000500E490094FEF711FFD5E953
:102E18000101072300220094FEF7F4FE0723002295
:102E2800084909480094FEF703FF2969E868013951
:102E3800FEF718FF002003B030BD00BF9435000036
:102E4800FF7F0020FFFF07200080002038B5002406
:102E5800134D002155F8040B0134FEF72FFF292CE0
:102E6800F7D10121002403230E4A2046C2F88044EA
:102E7800C2F88414C2F8C044C2F8C414C2F8C834F2
:102E8800C2F8CC14FFF77CFF0846FFF779FF064B22
:102E98002046C3F800154FF48073C2F8403438BD9B
:102EA800A8350000003000500010005000224FF0FC
:102EB800FF300D4B02F1A0010132102A43F8210026
:102EC800F8D1D3F88022002022F00802C3F880222B
:102ED800D3F88022D3F8802222F40072C3F880222B
:102EE800D3F88032704700BF00E100E008B5FEF774
:102EF80043FE0822024BC3F880211A60002008BD57
:102F080000E100E00122014B1A607047341A0020EA
:102F180010B50446094B2289186861680623406881
:102F280000F05DF928B9064B1B68012B01D1FFF7AA
:102F38007BFA6FF08603236010BD00BF1C1A0020C7
:102F4800341A002001F00C0370B50C2B0CBF154689
:102F580005464A060C461ED58B0658BF2835AB6970
:102F680013F8026C84F00803C3F3C003C6F380129D
:102F7800934201D000F02AF816F0A00F1CD176B1C8
:102F8800032E15D032461C210D48FFF793F96FF038
:102F980083032B600AE000F019F82026E2E7FFF728
:102FA80099FA04460146074800F0F0F9204670BD3A
:102FB8002846FFF7ADFFF9E732461F210248E4E74C
:102FC8004C360000F80B002068360000FFF707B900
:102FD80003689A68DB6812F4806F05D18B422CBFB6
:102FE80000206FF0FA0070478B420CBF00206FF092
:102FF800FA00704710B500F0D8F8044600F0E6F87B
:1030080050B9FFF711FAA3685B681B685B688342D5
:1030180018BF0024204610BD0024FBE738B505463C
:1030280048B1FFF73DFDB5EBD07F044601D0FFF76F
:10303800CDFF204638BDFFF7F7F9F4E77047823037
:10304800012808B506D8FFF7F9F918B9BDE808400E
:10305800FFF7BCBF08BDF8B505460E46FFF7CAFF27
:10306800044608B9FFF7B2FFA7680FB9FFF7AEFF2C
:10307800E368991C4BD05A1C26D1002E44D016F177
:10308800820F19D1022301252360EFF3108772B64E
:1030980031462046FFF7B2FC064687F310882368BE
:1030A800022B1CBF0023236025B100232046236088
:1030B80000F08EF83046F8BD16F1830FE2D0FFF726
:1030C80085FF00250026E0E7002BF8DB002304F14C
:1030D800280252F8041F19B1E16F106C19444860B6
:1030E8000833202BF5D13B689D6815F4007502D094
:1030F80002230125236016F1810FC6D16369002BD5
:10310800C3DBFFF763FFC0E72E460025F3E7012581
:10311800D8E708B5FFF763F86FF0830008BD2DE91D
:10312800F3410E46174698460546FFF787F9FFF71D
:1031380075FF2946024601A8FFF790F9044660B9D1
:1031480043463A4631460198FFF7D6FA044640B15D
:103158006B0002D5019800F03BF8204602B0BDE8AC
:10316800F0810198FFF726FC0122019B04461A60B2
:10317800F3E740F20110704770B50546FFF75EF9B6
:1031880006462846FFF700F9044608B9002070BD36
:10319800014632462846FFF70DF90028F6D1236884
:1031A800D868F4E74FF480507047B0F5805F03D1DA
:1031B800EFF30B8080387047002070477047EFF3BB
:1031C8000B8000F1800383F30B8870470020704761
:1031D800EFF30B83803B83F30B88704770472DE92F
:1031E800F0410F461546002A5BD0002900F08D807B
:1031F80003F00602062A57D09A0740F18680082471
:103208009B0648BF44F01204860758BF44F00404E4
:10321800C00709D5EFF39483D9074CBF44F00404E1
:1032280024F0040444F0120422462946384602F0E9
:1032380049FBB0BB47E800F205EB0708110E120284
:1032480008F1FF3646E800F34FEA13605AD51B022F
:1032580058D5884256D047E800F546E800F6FEF70C
:10326800A9FF2D0E85424FEA166628D3FEF7A4FF64
:10327800864224D82846FEF798FF2246C7F1010166
:103288000144384602F01EFBE0B30135AE420DD8CA
:103298003046FEF788FF2246A8EB000102F012FB39
:1032A80080B30020BDE8F0810124A9E72846FEF795
:1032B8007AFF0746FEF782FF22460146E1E7FEF75E
:1032C80085FF85421ED3FEF783FF86421AD828461B
:1032D800FEF7E0FC2246C7F101010144384602F03E
:1032E800F1FA78B10135AE4203D83046FEF769FFEE
:1032F800D1E72846FEF765FF0746FEF76BFF224633
:103308000146EBE76FF07F00CCE74CF2DA20C9E723
:1033180010B50446FFF756FDFFF764FD10B143F6FC
:10332800DA3010BDFFF792FD0028F8D1FFF76AFCEC
:103338000028F4D102232360F3E708B5FFF70AFD5C
:1033480010B143F6DA3008BDFFF70EFD0028F8D1BA
:10335800FFF724FD0028F4D162B6FDF7B1FBFFF7B3
:10336800A5FD0028EDD1FFF7C1FD0028EBD0E8E767
:10337800EFF30880EFF309812DE9F00F6B467246F1
:10338800FDF7F2FA08B0FFF7C7FCFEE704460D4662
:10339800A546284783F3088896460222EFF314834C
:1033A800134383F31488BFF36F8F084700000001AD
:1033B8000101000001000000464154414C204552E3
:1033C800524F523A2000486172644661756C740D20
:1033D8000A004D656D4D616E616765206661756CAB
:1033E800740D0A004275734661756C740D0A0055B8
:1033F800736167654661756C740D0A005365637582
:1034080072654661756C740D0A0052657365727653
:10341800656420457863657074696F6E2000506C30
:103428006174666F726D2065787465726E616C2068
:10343800696E7465727275707420284952516E29CC
:103448003A200000F90A00007D1F00008D0D0000E1
:10345800310B0000A51F0000B11F0000490B000040
:10346800811F0000190B0000250B0000FD0B000058
:10347800871F0000931F0000991F00002100000013
:103488000B000002200000010A00000303020202F0
:1034980000000000000000000338FDD87047506CA1
:1034A8006174666F726D20457863657074696F6EBC
:1034B8003A0D0A0050696E7320686176652062656E
:1034C800656E20636F6E66696775726564206173E7
:1034D800207365637572652E0D0A004750494F20A9
:1034E800706F72743A200050696E3A200000000034
:1034F8000002FF002C0000005004FF001000000034
:103508003001FF0008000000200CFF00040000004C
:103518000081FF0000030000303132333435363784
:1035280038394142434445461B5B313B33346D4295
:103538006F6F74696E672054462D4D2076322E3198
:103548002E321B5B306D0D0A001B5B313B33346D33
:103558005B536563205468726561645D20536563DD
:1035680075726520696D61676520696E6974696146
:103578006C697A696E67211B5B306D0D0A0000006B
:103588001C12002004120020280200000080000005
:1035980000800000FFFF0F00007C0000008000009A
:1035A80000000050004000500050005000800050C3
:1035B80000B0005000C0005000A0005000E00050D3
:1035C80000F0005000000150001001500040015070
:1035D80000500150007001500080015000900150CF
:1035E80000A0015000B0015000C0015000D00150AF
:1035F80000E0015000F0015000000250001002509D
:10360800002002500030025000400250006002507A
:103618000080025000A0025000B0025000D00250BA
:103628000000035000300350004003500060035076
:1036380000700350009003500025845000288450E7
:1036480000100850556E6B6E6F776E2053504D20EA
:10365800535643207265717565737465643A20002A
:10366800556E6B6E6F776E20535643206E756D6284
:0F3678006572207265717565737465643A200020
:1036A0000348044B834202D0034B03B118477047D1
:1036B000A4110020A4110020000000000548064BC2
:1036C0001B1AD90F01EBA301491002D0034B03B120
:1036D00018477047A4110020A4110020000000002A
:1036E00010B5064C237843B9FFF7DAFF044B13B14A
:1036F0000448AFF300800123237010BDA018002000
:1037000000000000D85E000008B5044B1BB104495E
:103710000448AFF30080BDE80840CFE70000000098
:10372000A4180020D85E0000A3F5803A704700BFBF
:10373000174B002B08BF134B9D46FFF7F5FF0021E9
:103740008B460F461348144A121A02F00CFA0E4B1D
:10375000002B00D098470D4B002B00D0984700203D
:10376000002104000D000D48002802D00C48AFF3E2
:10377000008002F023F920002900FEF7CBFD02F0C3
:1037800009F900BF00000800000000000000000070
:10379000F80B0020A4110020A42800200000000045
:1037A00000000000009A074B9A4208D110B502F0C1
:1037B000FDF902F029F906BC96460C46744702F062
:1037C00039FA0000A5EDF5FE009A074B9A4208D1A0
:1037D00010B502F0F7F902F017F906BC96460C4650
:1037E000744702F027FA0000A5EDF5FE0CB4029A2A
:1037F000084B9A420CD14FF0004319430CBC10B552
:1038000000F022F802F000F906BC96460C46744718
:1038100002F010FAA5EDF5FE009A044B9A4202D18F
:1038200003490868744702F005FA0000A5EDF5FEAB
:10383000385D0000009A034B9A4200D1744702F0B1
:10384000F9F90000A5EDF5FE2DE9F84304460D4613
:1038500016461F46EFF30583C3F308030BB1FFF7CA
:10386000B9FBDFF834903B46204632462946D9F86A
:103870000080FFF758FCD9F800300446984506D080
:103880009B6901461869BDE8F843FFF7E8BBFFF7FD
:10389000DAFB2046BDE8F8831C1A002001680E4AB6
:1038A0000346914215D1C169A2F11022A2F1EF1293
:1038B00091420ED18268012A0BD8C26812B1016907
:1038C0008A4206D0586928B19B691B1A5842584150
:1038D00070470120704700BF55AA00FF0D4B70B51F
:1038E0009E68A6B13046FFF7D9FF044678B9F36861
:1038F0006BB935690DB9204670BD2846FFF7CEFF7C
:1039000028B9EB68B34202D12E462D69F2E70124B3
:10391000F1E700BF381A00202DE9F041394E346834
:10392000F368D4B1B468C4B1002861D000295FD075
:1039300001FB00F5B5FBF0F0884259D1291D57D89D
:10394000AA070DD025F0030204321C4603E061688B
:1039500091424FD2A469002CF9D12046BDE8F081F4
:103960002A46F2E7891A232904F12007D4E9050C35
:103970001AD80123A360A0B1C0F818C0A36903B18D
:1039800058610023C4E905333369DB0702D5FFF72B
:10399000A5FFA0BB2A46002138463C4602F0E3F8CA
:1039A000DBE7C6F80CC0E9E702F1200804EB0803E6
:1039B0002039C3E9011E2169DFF84CE0DC601961A0
:1039C00044F808E0AEF1102EAEF1EF1EC3F81CE093
:1039D00001B1CB60C3E9050C40B18361996901B1C4
:1039E0004B6101212361C4E90121CAE7F360F5E7D6
:1039F0000024B2E7D4F808E0BEF1000FB2D00120F5
:103A000001F0C8FF381A002055AA00FFF8B5054696
:103A100000283AD0364E3368002B36D0B268002AE0
:103A200033D0834203D872681344984202D30120F2
:103A300001F0B0FFA0F120042046FFF72FFF00287F
:103A4000F5D155F8183C012BF1D145F8180C55E982
:103A50000570DFB1BB68CBB955F81C2C7B682032F0
:103A600013447B60386100B1C760202200212046EA
:103A700002F079F8386908B183682BB333699B0782
:103A800003D5FFF72BFF0028D1D1F8BD40B38368E1
:103A900033BB426863681344203363600369D4E92D
:103AA0000521236192B9B9B9426981696261A16155
:103AB000A2B19461A26902B1546103B1DC60202219
:103AC000002102F050F8D9E73C46E2E79161A16994
:103AD0000029E9D04A61E7E7F160F8E7F460E9E737
:103AE000F36845F8083C03B15C61F460C6E700BFC9
:103AF000381A002038B50D46142200210446124819
:103B000002F031F81149124800F02CF8232D1AD98F
:103B100014F003031FBF043DED18C3F10403E418C0
:103B20002A460021204602F01EF8074B094AC3E945
:103B300000459C602260A2F11022203DA2F1EF120C
:103B40006560E261DC6038BD381A00200D3A000083
:103B50001939000055AA00FF014B1B68184700BF28
:103B6000CC100020024B1860024B002019607047F7
:103B7000D0100020CC10002010B50A46044619B120
:103B8000024B00211B68984710BD00BFD4100020D5
:103B9000074B0A465978022906D11978072903D11B
:103BA0000146181D02F08CB86FF08800704700BF06
:103BB0004C1A002010B5124C2378590744BF23F04B
:103BC0000403237023789A0705D500F063F823785F
:103BD00023F002032370637813B10A4802F081F8DE
:103BE0000023042107486370FFF7C6FF2378DB0733
:103BF00005D502F062F8237823F00103237010BD8D
:103C00004C1A0020501A002038B51C4D6A782B78C9
:103C1000022A01D1072B12D0D80713D52B78990788
:103C200007D400F02FF82B78044643F002032B70E2
:103C300088B96A782B788AB12B785A0719D500246D
:103C4000204638BD02F037F82B78044643F00103D4
:103C50002B700028E2D0FFF7ADFFF1E7DB07EBD5D3
:103C6000074802F02BF8022304466B700028F2D1BB
:103C7000E2E743F004032B70E1E700BF4C1A002099
:103C8000501A00200122024B002083F88025704743
:103C9000541A00202DE9F0410A4C002526464FF029
:103CA000010803272046C4F820802777013501F05A
:103CB000E5FF202D04F12C04F4D1002386F8803593
:103CC000BDE8F081541A002010B50C4C236813B1E4
:103CD0000B4B1B682BB900F093FC30B90122084B49
:103CE0001A6001232360002010BD0138072801D984
:103CF000044810BD044B53F8200010BDF01F0020F5
:103D0000EC1F0020FE8FFFFF3C5D0000144B2DE9EF
:103D1000F043002814BF04461C46124F236883B0AA
:103D2000BB4219D016460D4620464FF4147104F1DB
:103D3000040900F047F804F58E78484600F0CEF804
:103D4000404600F019FA2B464A464046064900967E
:103D500000F034FB08B92760002003B0BDE8F08311
:103D6000F41F0020A5BCC95A613F000070B50D4C7E
:103D70001D46002814BF064626460B4B306882B00D
:103D800098420DD106F58E700026334600961446F3
:103D900000F03EFB002818BF34462C6002B070BD16
:103DA0000248FBE7F41F0020A5BCC95AE88FFFFFBB
:103DB00038B131B1002201440346013081421A700A
:103DC000FAD1704738B131B10022014403460130C5
:103DD00088421A70FAD170472DE9F043202B1D4616
:103DE0000646884691468BB026D8DBB202AF8DF8E6
:103DF0000480B04658F8041B8DF8053021B94046C0
:103E000001F026F9044640B90123022240463360FE
:103E100001A901F031F9044638B138462021FFF7F5
:103E2000D1FF20460BB0BDE8F0832A464946404604
:103E300001F022F90446F0E702AF194610460023CC
:103E40003A4601F09FFA04460028E6D12023B946FD
:103E50001D46CCE72DE9F041D0F8F830A6B0002B94
:103E6000D8BF02AE31DD05460027D0F80C4102AEC6
:103E7000A4F101089022D5F8FC403146D0F80001A9
:103E800001AB0197B8FA88F8A0474FEA58180446E2
:103E900020B9019B53B9B8F1000F16D030469021DC
:103EA000FFF790FF204626B0BDE8F081014632467C
:103EB0002846FFF791FF58B9D5F80431019A134409
:103EC000C5F80431B8F1000FE8D16FF03C04E5E724
:103ED0000446204626B0BDE8F08100BF70B500253D
:103EE0000446142204F588762946C0F8F850FC30C0
:103EF00001F039FE08222946304601F034FE144B09
:103F000030461B689847204640F8045B01F086F86D
:103F1000104B30461B689847C8B9D4F8F830AB420C
:103F20000FDC03EB830204EB82022021C2F80001C4
:103F30000120C2E9421008490133C2F8FC10C4F85C
:103F4000F830064B3046BDE870401B68184770BD1E
:103F5000F4100020F0100020194F0000EC10002099
:103F60002DE9F047202A88B07AD83F4B00F58879B0
:103F700004461B6848461746884698470546F8B9E0
:103F800040F20116D4F8F830002B65D02046FFF738
:103F900061FF054638B9D4F8F830002B14DC013E37
:103FA000F2D16FF03B056E4620213046FFF70AFF45
:103FB0002E4B48461B689847002818BF6FF01D0518
:103FC000284608B0BDE8F087D4E94132934203D3D4
:103FD000D4F80C21012A02D0013ED7D1E1E71F2BF2
:103FE000FAD96E4601462022304604F1040A01F057
:103FF000BAFD3146504601F069F805460028D3D194
:10400000504601F01FF8504601F008F82946504686
:1040100001F01EF805460028C6D150462022314640
:1040200001F02AF805460028BED103463246202179
:10403000304601F0A7F905460028B5D1D4F8F8308C
:104040003A46002BC8BF002340463146C8BFC4F8DB
:10405000043101F063FDA7E76FF03F056E46A3E76B
:104060006FF03B05ACE700BFF0100020EC10002023
:1040700070B590B000287AD03E4C0D4640223621D3
:104080000646204601F06FFD40225C21A01801F099
:104090006AFD2B1DA34203D904F144039D4252D370
:1040A0002B682268534023602B68226C53402364A2
:1040B0006B686268534063606B68626C5340636412
:1040C000AB68A2685340A360AB68A26C5340A36482
:1040D000EB68E2685340E360EB68E26C5340E364F2
:1040E0002B69226953402361226D2B69534023655C
:1040F00062696B69534063616B69626D53406365CC
:10410000AB69A2695340A361AB69A26D5340A3653B
:10411000EB69E2695340E361EB69E26D5340E365AB
:104120000021304600F094FF044628B94022304672
:10413000104900F0A1FF044640216846FFF742FE07
:10414000204610B070BD631E04F13F01013D1F34D5
:1041500015F8010F13F8012F42401A7011F8012FC2
:104160002878A34282EA00020A70F1D1D8E76FF002
:104170007304E5E74422002010B54FF49A72002141
:10418000044601F0F0FC42F21072044BC4F8202106
:1041900004F596701B68BDE810401847F410002025
:1041A0002DE9F04F04468846914695B0002900F06D
:1041B000A780002A0CBF0126022600238DF80C30B0
:1041C000002C00F09F80DFF844A104AF0AF1400BFF
:1041D0000021204600F03CFF034648B1384620212C
:1041E0000193FFF7EFFD019B184615B0BDE8F08F76
:1041F00040225146204600F03FFF03460028EDD103
:1042000004F1F40520222946204600F035FF03463C
:104210000028E3D10122204603A900F02DFF034628
:104220000028DBD1022E62D020460CA900F04EFF00
:1042300003460028D2D10146204600F009FF03467C
:104240000028CBD140225946204600F015FF0346F6
:104250000028C3D1202220460CA900F00DFF034600
:104260000028BBD13946204600F030FF0346002825
:10427000B4D139462046FFF7FBFE03460028ADD1F6
:1042800020222946204600F0F7FE03460028A5D14B
:1042900020460CA900F01AFF034600289ED10146D3
:1042A000204600F0D5FE0346002897D1402259460B
:1042B000204600F0E1FE034600288FD12022204650
:1042C0000CA900F0D9FE0346002887D129462046D4
:1042D00000F0FCFE0346002880D19DF80C2001323E
:1042E000D2B2B2428DF80C20FFF472AF76E74A46A4
:1042F0004146204600F0C0FE0346002894D06DE7FA
:1043000001265AE76FF0730304AF67E744220020E9
:104310002DE9F0410446884615461F46D0F818019D
:10432000E0B013B100EB40004008B5F5807F3ED807
:104330002844B0F5C07F3AD84FF4C07200216846D7
:1043400001F011FC6946D4F82431D4F81821D4F8CE
:104350002801984770BBD4F8186157B1D4E94930A7
:1043600072080DEB0601984720BBD4F8183106EB14
:104370005306B8F1000F00D08DB932466946204689
:10438000FFF70EFF054610B90123C4F8143131467A
:104390006846FFF717FD284660B0BDE8F0810DEBD9
:1043A000060041462A462E4401F0B8FBE5E76FF0CF
:1043B0000405F0E76FF00805EDE700BF2DE9F047D1
:1043C000044604F1F4050F4691461E46DDF82080B0
:1043D00000F024FE29462046FFF74AFE08B1BDE85A
:1043E000F08728462022012101F0BDFBD4F81831C6
:1043F000C4F82471C4F8289113B92023C4F81831E3
:10440000424631462046BDE8F0470123FFF780BF12
:10441000B2F5806F00F295802DE9F04F89B09A4691
:10442000129BB3F5807F00F29080D0F824311646BD
:1044300004460F464BB3D0F81C31012B05D0D0F801
:104440001421D0F820319A421FDD51460023204626
:10445000129AFFF75DFF014698B900231293002ED0
:104460005ED0DFF8EC9009F1400B0021204600F00F
:10447000EFFD202E3546014628BF202504F1F40823
:1044800090B1084609B0BDE8F08FBAF1000FE6D050
:10449000129B002BE1D051461A462046FFF780FEC2
:1044A00001460028DBD0ECE749464022204600F0D8
:1044B000E3FD01460028E4D141462022204600F0D9
:1044C000DBFD01460028DCD16946204600F0FEFDF8
:1044D00001460028D5D1204600F0BAFD014600284B
:1044E000CFD159464022204600F0C6FD01460028A3
:1044F000C7D169462022204600F0BEFD01460028B3
:10450000BFD14146204600F0E1FD01460028B8D168
:1045100038462A46414601F001FB761B2F44A4D1C0
:1045200051462046129AFFF73BFE01460028A8D1CB
:104530000846D4F814310133C4F8143109B0BDE889
:10454000F08F6FF00201084670476FF0040198E7A2
:1045500044220020002130B58DB0282202A801910C
:1045600001F001FB02A800F035FF044610B120461F
:104570000DB030BD1B4D4FF0FF31286800F032F90F
:1045800060BB194BD3F8340E10F0010017D100F0C6
:1045900059F9F8B9154A02A901A800F0AFFC044680
:1045A000012000F04FF988B9286800F023F90028AD
:1045B000DDD00F4800F0ACF920460DB030BD2868C2
:1045C000052400F017F90028D1D0F2E7094800F0DF
:1045D0009FF9E9E7084800F09BF9DBE7074800F09E
:1045E00097F9CEE7D810002000608450C422002044
:1045F000B45D0000945D0000745D00005C5D00002F
:1046000030B583B000F036F878B900F055F890B9BD
:10461000144BC3F80C0AFFF79DFF0446F8B9124D7E
:104620002B6863B1204603B030BD032400F072F85C
:10463000204603B030BD0424204603B030BD0246FE
:104640000146FFF763FB50B96822084901ABFFF749
:104650008DFB20B92046064B2B6003B030BD0524EE
:10466000E0E700BF00508450E4240020E82400204C
:104670005AEA5A5A00207047430504D54FF0FF32DA
:10468000034BC3F80821024BC3F8080A704700BF68
:1046900000508450014BC3F8040A70470050845006
:1046A00008B100F071B84FF47500704708B100F020
:1046B0004FB84FF47500704710B5114800F07EF800
:1046C00000B110BD0F4800F079F80028F9D10E4C68
:1046D000204600F073F80028F3D10C4B0C481C6006
:1046E00000F06CF801460028EBD100F02DF80446EC
:1046F00008B1204610BD00F087F82046FAE700BF59
:10470000E8100020E4100020E0100020D810002065
:10471000DC10002008B5084800F05AF8074800F0FF
:1047200057F8074800F054F8064800F051F8BDE883
:10473000084000F00BB800BFE8100020E410002093
:10474000E0100020DC10002000207047704700BF00
:1047500010B402460B4C01E0134207D1D4F8003AE2
:1047600013F48070F8D0012042F4807229B1054B17
:10477000D3F804410C60C3F80841024BC3F8082A7F
:1047800010BC7047005084500246084901E01A42AC
:1047900007D1D1F8003A13F48070F8D0012042F428
:1047A0008072024BC3F8082A704700BF0050845043
:1047B00001F07EB90A46002101F0D5B908B5034BD6
:1047C00002681B6810689847002008BD141100207B
:1047D00008B5034B02685B6810689847002008BD65
:1047E00014110020024B02689B681068184700BF34
:1047F0001411002008B5034B0268DB681068984765
:10480000002008BD1411002070B5094C094D206925
:10481000AB68984718B1084B08485B689847002177
:10482000074AEB6811602069BDE87040184700BF77
:104830000011002014110020F8100020CC5D0000B1
:1048400050250020F8B51A4D1A4E0446B268286962
:104850009047E8B9184F3B684CB1A3B1012B19D070
:10486000013B3B602869F36898470020F8BD43B9D5
:104870000121124AC2F800151149D1F81029002A65
:10488000FBD101333B60F368286998470020F8BDED
:104890000C48F8BD0A4AD2F81039002BFBD1074A60
:1048A0006FF07E40C2F80035FFF7F4FE3B68D7E7B3
:1048B00000110020141100205025002000408450D9
:1048C00000508450E98FFFFF014B1B68184700BF61
:1048D00014110020014B9B68184700BF14110020E1
:1048E000014BDB68184700BF14110020BFF34F8F46
:1048F0000549064BCA6802F4E0621343CB60BFF37C
:104900004F8F00BFFDE700BF00ED00E00400FA0597
:1049100030B44FF0FE3200250B4B0C4C0C4949686B
:10492000C3F80024C3F80424C3F80824C3F80C24F3
:10493000C3F81024C3F81424C3F81824C3F81C24A3
:10494000C4F8005530BC08470050845000408450E3
:10495000F810002010B5044650B1636813F0685F8A
:1049600005D0064A934202D000236260236010BD46
:10497000034B04485B689847EFE700BF2C5F5CA9D6
:10498000F8100020EC5D0000C8B143680D4A934266
:1049900013D013F0685F0ED0012350E8002F1946A2
:1049A00040E8001C9CF0000FF7D1012AF5D0BFF3BE
:1049B0005F8F0020704704487047044870476FF4C9
:1049C000E04070472C5F5CA9E98FFFFFEA8FFFFF93
:1049D000034680B1426809498A420AD012F0685FF2
:1049E00005D0BFF35F8F002210461A60704704485D
:1049F0007047044870476FF4E04070472C5F5CA933
:104A0000E98FFFFFEA8FFFFF10B5044620B10023B6
:104A1000034A2360626010BD0248FFF779FFF6E7A2
:104A20003A00003A145E00002DE9F041002873D0EE
:104A30000C46002970D01D46002B6DD007461AB1D8
:104A4000012200232A6003602B68002B5FD02946D7
:104A5000204600F079FD804600285AD1214628687A
:104A600000F058FD8046002853D12868082867D0F8
:104A7000042867D0A0F10200B0FA80F040090121BB
:104A8000314EC6F8C411C6F84011C6F8C411636AA5
:104A9000C6F83031D6F830219342F6D10023C6F85B
:104AA0002C314FF0FF33C6F808316FF01B03C6F806
:104AB0000031C6F80C01D6F8040A40F48060FFF714
:104AC000E9FD0A23C6F83831069B012B29D023695A
:104AD0001E4AA2FB03231B09626A404602FB03F342
:104AE00003EB4303184ADB039B09C2F8D8310123C7
:104AF000C2F82C313B682A6823F07F4343EA026303
:104B00003B602A6843EA02233B60BDE8F081DFF89E
:104B100040804046BDE8F081DFF838804046BDE87F
:104B2000F0814FF47F03D3F80C2C013206D0D3F878
:104B30000C3C064AA2FB03231B09CDE71623CBE757
:104B400003209CE702209AE700508450ABAAAAAA4F
:104B5000310CF100350CF10058B34B1EB3F5047F56
:104B600027D230B54FF0000ECD00744671464B0988
:104B700001F01F0C50F82330BCF11F0F23FA0CF387
:104B800006D003F0010319B901211C468E46EEE759
:104B90009C4201F1010106D01C464FF0010EA942D2
:104BA000E5D1002030BD0EF1010E9645F7D1024847
:104BB00030BD0148704700BF360CF100C0B32DE98D
:104BC000F0434C1EB4F5047F1DD2E3B1DAB10025E9
:104BD0002E46A8462C46CF0003F1FF394FEA541C5D
:104BE00004F01F0E50F82C10BEF11F0F21FA0EFC1E
:104BF0000CD00CF0010C4CB90126E0463446354689
:104C0000ECE7964216D90C48BDE8F083AB420BD0D6
:104C1000C44508BF0136A945F3D001350134BC4273
:104C2000DCD10020BDE8F0830125E0462E46F5E703
:104C3000014870471D46F1E7370CF1002DE9F04FB0
:104C40008FB08246DDE919460D46002E6ED1096906
:104C500004911C60002318990B60002A00F0288141
:104C6000994B6A6AD3F83811D3F830319A4269D136
:104C70000A2967D19AF80330069304F108030593D3
:104C80000423049A0393914B8F4CA3FB023B4FEAFE
:104C90009B0B0BEB4B0BA2EB4B0B189B049E1E606C
:104CA000002E00F0E580002700F05EFC0797BAF1C7
:104CB000000F00F0D0804FF00109DDF81480002DC6
:104CC00000F0C980069B002B3ED0284606A900F0C4
:104CD0003BFC00283AD07E4B984220D0069B082B04
:104CE00000F0E08000225B000693294606AB5046A8
:104CF0000092FFF799FE774B984200F0CF8070B991
:104D0000DAF80020130A03F47F03134323F07F43F0
:104D1000CAF80030039B013B0393BED100200390EF
:104D200000F022FC03980FB0BDE8F08F4FF47F0134
:104D3000D1F80C0C01300CBF4FF40471D1F80C1CED
:104D4000049186E76448EAE76248C4E72946069882
:104D500000F0E0FB0028BED1069B082B00F0A480E9
:104D6000042B00F0A380A3F10203B3FA83F35B09E1
:104D7000C4F8C491C4F84091C4F8C4916A6AC4F8F4
:104D80003021D4F830118A42F6D10022C4F82C2107
:104D90004FF0FF32C4F808216FF01B02C4F8002165
:104DA000C4F80C31D4F8040A40F48060FFF772FCB8
:104DB0000A23C4F838312B69444AA2FB0313696AF9
:104DC0001B0901FB03F303EB4303DB039B09C4F85B
:104DD000D831C4F82C910698DAF8003023F07F41DE
:104DE000030243EA00630B43CAF8003007A800F04F
:104DF00081FB079B354A03F01A0303437FF46EAF30
:104E0000A2FB0632D4F81431B7EB920F0893D4F812
:104E100018310993D4F81C310A93D4F820310B933C
:104E2000D4F824310C93D4F828310D9302D1BBF17E
:104E3000000F12D14046182208A9183EFFF7B8FC0F
:104E400008F1180801379EB100F08EFB002307938C
:104E5000002D7FF437AF21483DE740465A4608A968
:104E6000A6EB0B06FFF7A4FCD8440137002EEBD1CC
:104E7000049F059E6A6939463046FFF76DFEAA69B0
:104E800040B94FF4806339463046FFF797FE00285B
:104E90003FF444AF0023189A13601CE72B6A002BE1
:104EA0003FF43DAF0E483AE7032361E702235FE793
:104EB000012229465046009606ABFFF7B5FD0028B3
:104EC0003FF4DBAE2BE700BF00508450ABAAAAAA88
:104ED000020CF100310CF100300CF100350CF10046
:104EE000320CF10010B4DDE9013401940024DDF846
:104EF0000CC0CDE902C410BCFFF7A0BE30B515460A
:104F0000012487B005AB00930022CDE9015404AB26
:104F1000FFF794FE07B030BDF0B587B0002967D029
:104F20001E46002B64D01446002A61D0324F0D4635
:104F300038684FF0FF31FFF755FC00283DD12F4B6B
:104F4000D3F8340E10F0010015D04FF0FF354FF4B8
:104F500008712B48FEF72CFF04212A48FEF728FF92
:104F600029482821FEF724FF3868FFF743FC40BB9F
:104F7000284607B0F0BDFFF765FC002834D1224871
:104F800000F028FA70B91E4A0346029205AA01925F
:104F900004AA039000921C4902461A48FFF7A2FF98
:104FA0000346A0B14FF0FF350120FFF74BFC00286E
:104FB000CDD01648FFF7ACFCC9E71548FFF7A8FCB1
:104FC000BDE71448FFF7A4FC284607B0F0BD28460B
:104FD0001D46059B22469C4228BF1A460499326012
:104FE0000831FFF7E5FBDFE70B48FFF791FCC6E769
:104FF0004FF0FF35BCE700BFD810002000608450A0
:10500000902500206425002068250020945D000084
:105010005C5D0000385E0000745D000010B5044661
:1050200028B12046BDE81040F421FFF7C3BB044877
:10503000FFF76EFC2046BDE81040F421FFF7BABB35
:10504000505E000010B1F421FEF7B2BE704700BF01
:1050500008B521B1012908D06FF0360008BD012143
:1050600000F058F80028F7D108BD022100F052F8EE
:105070000028F9D0F0E700BF30B505468818B0F534
:10508000801F0B461446A1B001D8802A0CD9B3F575
:10509000801F17D922461946284600F07DF804469D
:1050A00084B9204621B030BD6846FFF781FB224617
:1050B0006946284600F070F8802104466846FFF7EC
:1050C00079FBEDE76FF03604EBE700BF70B5E8B1B0
:1050D0000E46D9B1044600F031F80546B0B9236850
:1050E000012B0BD0022B01D0284670BD1C2230466C
:1050F00004F10801FFF75CFB284670BD2022304612
:1051000004F10801FFF754FB284670BD6FF0360527
:10511000EAE700BF78B138B50D46F0210446FFF745
:1051200049FB402320462560E36500F061FA003822
:1051300018BF012038BD0120704700BFF0B5056ED3
:10514000A5B0044604AEE5B900230127019330461B
:105150006760294602AA009300F018FA10B10120F6
:1051600025B0F0BD2A46204602A900F069FA0028C1
:10517000F5D1204600F06CFB0028F0D1206625B068
:10518000F0BD802D2A46304628BF802204F16401FC
:10519000FFF70EFB256ED7E7002800F0AE802DE963
:1051A000F04F1446A5B0002A3DD00F46002949D043
:1051B000B2F5803F0546006E20D34FF6FF7805F12B
:1051C000640AEB6D1A1AB2FBF3F103FB1122002AF9
:1051D00065D18342B9464FF6FF7672D0B6FBF3FB3A
:1051E00003FB0BFBBBF1000F30D1002E45D1A4F522
:1051F0007F44FF3CB4F5803F4744E2D2EA6D161A83
:10520000B6FBF2F302FB1366A64228BF2646002E29
:1052100075D1824200F08D80B4FBF2F602FB06F6F7
:105220002EB9002C79D1002025B0BDE8F08F0023E5
:1052300031463846CDE9003302AA00F0A7F900282C
:1052400000F09580012025B0BDE8F08F002359467D
:105250004846CDE9003302AA00F098F90028F1D1C0
:105260005A46284602A900F0EBF90028EAD1A6EB3D
:105270000B06286ED944002EB9D019304946324663
:1052800005EB8000FFF794FAA4F57F44286EFF3CFD
:105290003044B4F5803F4744286692D2AEE7424599
:1052A00028BF4246164639465044FFF781FA286E19
:1052B000EB6D3044834207EB06092866A8EB06062F
:1052C0008CD1802B28BF802351461A4604A8FFF7B3
:1052D0006FFA0023E96D02AACDE9003304A800F0BB
:1052E00055F90028AED12846EA6D02A900F0A8F9C8
:1052F0000028A7D1EB6D286670E70120704705F103
:105300006403394632461844FFF752FA286EEA6DB4
:105310003044A41B374428667BE72B6E22461933A2
:1053200005EB83003946FFF743FA2B6E23442B66C7
:1053300079E7802A28BF802205F1640104A8FFF7DD
:1053400037FA0023E96D04A8CDE9003302AA00F082
:105350001DF900287FF476AF2846EA6D02A900F017
:105360006FF900287FF46EAFEA6D286654E7324685
:10537000284602A900F064F900287FF463AF37449F
:10538000A41B4EE7F8B51C460546114816460F46C5
:10539000FFF744FE21460E48FFF75AFE044620B1AF
:1053A0000B48FFF74FFE2046F8BD3A46294608480D
:1053B000FFF762FE04460028F2D131460448FFF7A9
:1053C00085FE04460248FFF73DFE2046F8BD00BFBB
:1053D000B02700201C2370B582B001A905460193B7
:1053E00000F032F8044638B9019B1C2B07D0144C4E
:1053F0001C212846FFF7DEF9204602B070BDD5E932
:105400000112131E18BF0123003918BF0121012604
:1054100028689B00EA6843EA4103002818BF43F06C
:105420000103EE612AB9C5E90834002BE4D1054C2B
:10543000DEE7204643F00803C5E9083402B070BD3A
:10544000370CF0000E0CF000034618B111B10A68D9
:105450001C2A01D0012070474FF47F02D2F8101CA3
:1054600001310CBF40F2DC51D2F8101C4FF47F0226
:105470000160D2F8141C01310CBF40F2DC51D2F8AB
:10548000141C4FF47F024160D2F8181C01310CBF8C
:1054900040F63401D2F8181C4FF47F028160D2F834
:1054A0001C1C01310CBF40F63401D2F81C1C4FF417
:1054B0007F02C160D2F8001C01310CBF9021D2F8EC
:1054C000001C4FF47F020161D2F8041C01310CBFB3
:1054D0005121D2F8041C4FF47F024161D2F8081C1C
:1054E000002001310CBF40F23732D2F8082C9A610B
:1054F000704700BF014608B54FF48060FFF7D6F84B
:105500000022034BC3F8C821C3F82C2108BD00BFFB
:10551000005084500138072805D8DFE800F0100E4D
:10552000040A0404040607487047CB6800204B6255
:1055300070478B6800204B6270474B68F6E70B683A
:10554000F4E700BF310CF1000B6802E0082B0B60A0
:1055500006D8026A13424FEA4303F7D0002070478F
:1055600000487047310CF100002310B5064C4FF491
:105570008060C4F82C31C4F8C431FFF77DF84FF0D7
:10558000FF33C4F8083110BD005084502DE9F041BC
:10559000002482B015461E4601220DF1070307467E
:1055A000DDF824808DF8074000F08CF9D0B99DF823
:1055B000073004462F602B71B8F1000F0ED04EB1AA
:1055C0000246089930460DF1070300F07BF948B90F
:1055D0009DF80730C8F8006088F80430204602B013
:1055E000BDE8F0814FF47504204602B0BDE8F081BB
:1055F000D8B108B50368012B04D0022B0FD043B1FA
:105600000B4808BD20220B490830FFF7D1F80020D5
:1056100008BD142208490830FFF7CAF8F7E720222E
:1056200006490830FFF7C4F8F1E74FF473007047FC
:105630000100F300605E0000A05E0000805E0000DC
:105640002DE9F047002900F0EB800446002800F027
:10565000EB80036888469146002B00F0B580013B43
:10566000012B00F2C9804FF0FF3171484FF0020A60
:10567000FFF7B8F8002840F0B1800020FFF7E2F80B
:105680000746002840F0B4806A4DD5F81069002E16
:10569000FBD14FF0FF30FEF7EFFFD5F8040A20F4FE
:1056A0000060FEF7F7FF01230722C5F81838C5F898
:1056B0002038C5F80029C5F8C437C5F8A466A36C1E
:1056C000C5F8CC37E36CC5F8D037C5F8C0A7236858
:1056D0005BB1013B012B18D8636AC5F85C36236ABD
:1056E000C5F85836E369C5F85436A269514BC3F87A
:1056F00050266269C3F84C262269C3F84826E2683E
:10570000C3F84426A268C3F84026B9F1000F56D06A
:1057100063684FF40060012B04BF464AC2F8843628
:1057200098F80430D8F80010424A5B0003F00203F6
:10573000C2F80C3BC2F8281CC2F82C9CFEF7B0FF44
:105740000746236863B1013B012B19D8394BD3F8C5
:105750005C266262D3F858262262D3F85436E3619D
:10576000344BD3F85026A261D3F84C266261D3F8AB
:1057700048262261D3F84426E260D3F84036A3607D
:10578000002201212B4BD3F8CC07A064D3F8D0071B
:10579000E064C3F8C417C3F88426C3F8C827C3F865
:1057A0001828C3F82028AFBB0120FFF74BF868BBCF
:1057B0001F48FFF71FF818BB3846BDE8F0870422E2
:1057C0001C4BC3F8C827BCE74FF0FF3118484FF017
:1057D000010AFFF707F800283FF44FAF1648FFF71C
:1057E00097F80020FFF72EF8074600283FF44CAF4B
:1057F0001248FFF78DF847E7114F3846BDE8F087AC
:105800001048FFF785F83846BDE8F0870E48FFF7E7
:105810007FF8CDE7102104F10800FEF7CBFFC3E7C6
:105820000A4F3846BDE8F0874FF47307C4E700BF5E
:10583000E8100020005084505C5D0000745D0000A2
:105840000100F300B45D0000945D00000300F3006C
:10585000A0B3034670B4D0E90240D3E9041226BADB
:1058600005BA0CBA10BAC3E90440D3E90612986A23
:1058700009BAC3E9026512BA996100BAD3E90841CD
:1058800025BA0CBAC3E90725D3E90B12C3E90940CD
:1058900009BAD86B12BAD962D3E90D4125BAC3E966
:1058A0000C250CBA00BAD3E9101209BA12BAC3E92E
:1058B0000E40196400205A6470BC70474FF47300A6
:1058C000704700BF00201870704700BF431810B524
:1058D00001D21F2A01D9002010BD013902F01403A2
:1058E0000144102B80EA01043CD009DC8BB1042B6D
:1058F000F1D11F2C40E840F315D941E840F10EE00A
:10590000142BE8D11F2C40E8C0F30CD941E8C0F1BA
:1059100005E01F2C40E800F305D941E800F11C46E2
:105920000B468C42D7D122F01402013A0A2AD2D86F
:1059300001A151F822F000BF8759000081590000F1
:1059400073590000D7580000D7580000D7580000FE
:10595000D75800008D590000875900007B5900007E
:10596000735900001F2C40E880F3DCD941E880F136
:10597000D5E713F4001FAFD1ADE713F4801FFAE7AA
:105980005B02A9D5A7E713F4002FF4E713F4802FE7
:10599000F1E700BF08B5074B044613B10021AFF390
:1059A0000080054B1868836A03B19847204600F0D1
:1059B00029F800BF00000000B45E000070B50D4D76
:1059C00000260D4C641BA410A64209D10B4D0026E5
:1059D0000B4C00F0A5F9641BA410A64205D170BDC4
:1059E00055F8043B01369847EEE755F8043B01367D
:1059F0009847F2E7680600006806000068060000A5
:105A00006C060000FEE700BF002383F300887047A8
:105A1000FDF7E0BAEFF30880EFF309812DE9F00F0D
:105A20006B467246FAF7A4FF08B0FFF7F1FFFEE7F6
:105A3000FDF7D0BAEFF30880EFF309812DE9F00FFD
:105A40006B467246FAF794FF08B0FFF7F1FFFEE7E6
:105A5000FDF7C0BAEFF30880EFF309812DE9F00FED
:105A60006B467246FAF784FF08B0FFF7F1FFFEE7D6
:105A7000FDF7B0BAEFF30880EFF309812DE9F00FDD
:105A80006B467246FAF774FF08B0FFF7F1FFFEE7C6
:105A9000FDF7A0BAEFF30880EFF309812DE9F00FCD
:105AA0006B467246FAF764FF08B0FFF7F1FFFEE7B6
:105AB000814270B40546144602D370BC00F02EB883
:105AC000821821443CB141EA020313F003030FD1D1
:105AD000E018032812D86FF00300A3084343002006
:105AE00019441A442344984210D1284670BC704788
:105AF00011F8013D013C02F8013DE3E7581850F868
:105B0000046C981840F8046C043BE1E70C1A14F894
