:1080000038C60020D1A500002F700100BDA50000DA
:10801000BDA50000BDA50000BDA50000BDA50000D8
:1080200000000000000000000000000035A7000074
:10803000BDA5000000000000CDA60000BDA5000009
:10804000CDA80000CDA80000CDA80000CDA800005C
:10805000CDA80000CDA80000CDA80000CDA800004C
:10806000CDA80000CDA80000CDA80000CDA800003C
:10807000CDA80000CDA80000CDA80000CDA800002C
:10808000CDA80000CDA80000CDA80000CDA800001C
:10809000CDA80000CDA80000CDA80000CDA800000C
:1080A000CDA80000CDA80000CDA80000CDA80000FC
:1080B000CDA80000CDA80000CDA80000CDA80000EC
:1080C000CDA80000CDA80000CDA80000CDA80000DC
:1080D000CDA80000CDA80000CDA80000CDA80000CC
:1080E000CDA80000CDA80000CDA80000CDA80000BC
:1080F000CDA80000CDA80000CDA80000CDA80000AC
:10810000CDA80000CDA80000CDA80000CDA800009B
:10811000CDA80000CDA80000CDA80000CDA800008B
:10812000CDA80000CDA80000CDA80000CDA800007B
:10813000CDA80000CDA80000CDA80000CDA800006B
:10814000CDA80000CDA80000CDA80000CDA800005B
:04815000CDA80000B6
:1081540010F8012B11F8013B012A28BF9A42F7D0ED
:10816400D01A7047034611F8012B03F8012B002A9B
:10817400F9D17047034613F8012B002AFBD1181AD2
:1081840001387047014B1878704700BFD89A002017
:1081940008B504480EF05AF8BDE80840012010F074
:1081A4006BBD00BF04B3010008B521B1BDE80840B0
:1081B40005480EF04BB805480EF048F8BDE80840F5
:1081C400012010F056BD00BF1EB301003AB30100F8
:1081D400012307B50A49009302220A4B0A4805F015
:1081E400A3F9014628B1094803B05DF804EB0EF089
:1081F4002DB8074803B05DF804EB0EF027B800BFB4
:10820400F0AB0100E8AB010000AC010045B3010094
:108214006BB30100CB0710B506D500F0010420466E
:1082240000F0E6F8014B1C7010BD00BFD89A002086
:1082340010B5084C2368C72B03F1010008BF642064
:10824400206000F0F7F800214FF4804011F073FF34
:10825400F0E700BF9081002008B504480DF0F6FF58
:10826400BDE8084002480CF0ABB900BF8DB3010073
:108274009094002010B50321234A24480EF004FEF4
:1082840009F010FF034638B1214A01211F480EF0BE
:1082940004FE4FF0FF3010BD1E4809F033FF0446C2
:1082A40028B904F0E3FA034650B11B4AEDE701464E
:1082B4001A480DF0CBFF214619480DF0C7FFE8E737
:1082C400184805F0F7FF184800F088F8044610B184
:1082D40001461648F1E70321154A0C480EF0D4FD77
:1082E4001448154911F0D4FD12480CF069F9013411
:1082F40004F00101002009F093FF00214FF4004035
:1083040011F019FFF3E700BFD6B3010090AA0100F2
:10831400F7B30100198200004EB4010012B4010049
:1083240031B4010070810020888100206EB4010006
:108334008BB4010090940020D58100008B1E59421B
:108344005941014B19707047DA9A00204B1E59426B
:108354005941014B19707047DB9A002008B5012B75
:10836400BDF808100CD171B90A4B1B680BB9012078
:1083740008BD1078012809D800F001009847F6E7F5
:108384006FF00C00F4E76FF00600F1E76FF01200F5
:10839400EEE700BFB89400202DE9FF411F460D4BC6
:1083A400054658680C46164680B1D1F80C808047C3
:1083B400094B324618700123CDE90183BDF82830FA
:1083C4002146009328463B4610F0A6F904B0BDE8C8
:1083D400F08100BFB8940020D99A002020B1034B4B
:1083E40002681A6042685A6000207047B8940020FE
:1083F40007B50C4B8DF807001B7883B10A490B4B6A
:1084040000204B600A4BC8608B600DF107030B61C1
:1084140001238B8208F040F803B05DF804FB6FF091
:108424000C00F9E7DA9A0020A09400203CAC01008B
:10843400235D010000B50D4B89B01B78019093B109
:108444000021182202A811F0FFFF094B002003931A
:1084540001AB0493042302A9ADF8143008F08AF99F
:1084640009B05DF804FB6FF00C00F9E7DB9A00201B
:10847400A0AC01002DE9F04F91B0009302F0040389
:108484000293C2F3C2030133840705460E46DDF8A6
:1084940068800392059340F0BB81041D30B1072925
:1084A40009D86FF01B0011B0BDE8F08F01F007068A
:1084B4003444C6F10806009B4FF000094FF0040A4B
:1084C400591E4FF0FF334F460193CB465346CDF828
:1084D40010900DB1009A22600598002800F3E880FE
:1084E4009848009A824203D397488242C0F0E080C1
:1084F400039AA4EB050E92074FEA9E0000F1038154
:108504000F2F00F2B180002D00F0058107F1400229
:108514000DEB020C019A0CF8200C0CF8102C0498AA
:1085240001300490E7E07A285DD84B280ED847281C
:1085340059D829282DD8252852D054D820287AD083
:108544002338D0F1000B4BEB000B74E04C382E2891
:1085540049D8DFE800F07048484848484848484847
:1085640048484B484848484848484859484B4B595C
:108574005959704B6D487048184B184848827F4BC6
:1085840048484B487F0000204FF0000B4FF0040A8E
:1085940038E001222A38C0B202FA00F010EA0E0FC5
:1085A40049D110F0625C2FD110EA020B43D060462F
:1085B400013C5444B4FBFAF40AFB04F4002D61D0EA
:1085C400A3EB050CA444B4453FF66BAF002868D177
:1085D400042B47D158F8043B2360042304342AE0D5
:1085E400019A013A01924FF0000B24E011F8010CBA
:1085F4006C2834D1002011F8023C83466C2BC5D181
:108604004FF0080A5346D3E708F1070828F0070893
:10861400073424F00704F8E802AB35B10698204487
:10862400B0423FF63EAFC4E900AB4FF0000B083454
:108634004FF0080A534611F8010F002878D0BBF117
:10864400000F7FF470AF2528F5D14FF0010B019B8B
:10865400013301934FF0040AECE7584694E70020F5
:108664008346A5E7082B02D06FF015001BE708F13D
:10867400070828F00708F8E80223C4E900230823C0
:108684000834D8E768B9042B02D108F10408A4E738
:10869400082BE9D108F1070828F0070808F10808B1
:1086A400EDE7059A013A059258F8042B009210E779
:1086B400039A900720D54FF0010CA4EB050E4FEA66
:1086C4009E00BEF5007FCFD20F2FCDD8F5B107F1B4
:1086D40040020DEB020E019AC0B20EF8200C0EF807
:1086E400102CBCF1000F3FF41AAF60F07F000EF8BD
:1086F400200C09F101090137C5F108024FF6DA7EB1
:108704000434069297E74FF0000CDAE7BCF1000F4F
:1087140001D00136EFE7029802360028EBD1009829
:10872400CDE90631FFF726FDDDE906310644E2E72F
:10873400631BB3F5806F97D245B9A6F10804E0181E
:10874400B1E600BFA8A501009CDB0100029A9B08CA
:1087540028602B709DF81030C2B1EB7085F8029040
:10876400B9F1000F05D0002208A8C5F1010C974209
:108774000ED14FF0000AC5F101030DF12008019359
:108784000DF1300B574512D1601B8CE66B70E5E799
:1087940010F8013B190608D50CEB040EB64503F09E
:1087A4007F033FF67EAE04F8013B0132DFE7B9F107
:1087B400000F03D098F90020002A17DB029BD3B1E5
:1087C4001AF80B2004F8012B0022019B18191044FD
:1087D400B0423FF666AE98F80000009904F8010B29
:1087E4002046039211F023FE039A14440AF1010A6D
:1087F40008F10108C6E798F8002055F822300093E4
:10880400029B009845F82230FFF7B4FC421CDCE7D9
:108814006FF00D0047E600BF2DE9F04F97B000AFB1
:10882400D7F880B03B62CBF3C0030446894690F886
:1088340002A0FA62BB6141B9457800780AEB800076
:1088440020444D4517D8A0EB0409E378FB61BAF145
:10885400000F02D01BF0010F16D1FB6953BBFB6A5A
:108864001BB1494620463A6A98474D4628465C372C
:10887400BD46BDE8F08F461C3046FFF77BFC013057
:10888400304409F10109DCE7626823787A62FA6A04
:108894009900796104EB8301002A40F001810E46BE
:1088A4004FF000084D4601EB0A094E454CD101EB4F
:1088B4000A0610E01BF0020FD1D023789A007A61E7
:1088C400626804EB83017A62FA6A002A77D14D4622
:1088D400904601EB0A061BF0050F0CBF022301238F
:1088E400FB62FB6906EB430A0BF00203BB625645CD
:1088F400BCD016F8021B16F8013C54F82390994B8F
:10890400994502D3984B994536D3BB69002B40D087
:10891400786A0DF072FC00283BD0E9468AB06A46BA
:10892400924B53617B6AC2E906314FF4007313849E
:108934008F4B42F8103F00234FF412518D4801F041
:10894400ABF8023DCD46D2E716F8013BF96254F884
:108954002300FFF70FFCD7F88430F96A01304BB1DC
:10896400D7F8883098453EBFD7F8843023F81800EC
:1089740008F10108054498E7BB6923B1786A0DF052
:108984003CFC0028C9D11BF0010F05D1FB6AED1A8C
:10899400ADE7BB6A002BAAD04846FFF7EBFBD7F83C
:1089A400843053B1D7F8883098453FBFD7F8842036
:1089B400431C22F8183008F10108054497E7BAF17E
:1089C400000F73D01BF0040673D0D046002607F1C5
:1089D400480052463B61B96211F029FDB96A3B690E
:1089E40001EB0A02BA62FA69F9695200FA60BA6ADA
:1089F40002EB41023A610BF00202BA603A69B96AC9
:108A04008A4258D162781BF0020F18BF00217A62A3
:108A140008BF4FEA5801B2181BF0010FD2B240F060
:108A24009F801BF0040F14BF40460020BB6162709E
:108A3400A070E17020463A6A7969FB6A9847051E7E
:108A4400FFF614AFBB69414623707B6A3A6A6370D0
:108A5400FB6984F802A0E37007F14800FB6A9847B9
:108A6400B0F10008C0F2BA807B69A9EB0A01C91A07
:108A7400FB683A6AC91AD7E90A0398470028C0F282
:108A8400AF804FF0000BA84408EB000507F1380A4B
:108A9400B34571D300213A6A0846FB6A9847E5E674
:108AA40056464FF0000807F1380092E75646D04684
:108AB40096E7B04694E7BA6A12F8021B12F8015C12
:108AC400BA6254F82500274A904202D3264A9042BB
:108AD4001ED3BA6932B1786A7B600DF08EFB7B6875
:108AE40000288BD1BA6802BB08F1280207F1300CC8
:108AF40008F10100944407F1580208F1020852FAFF
:108B040080F00CF8101C5FFA88F800F8105C75E728
:108B1400BA693AB1786A7B600DF06FFB7B68002814
:108B24007FF46CAF1BF0010F09D006F1280207F1A6
:108B34003000711C161806F8205CCEB25EE71BF0FC
:108B4400040F3FF45BAF08F1280207F1300008F18D
:108B5400010102EB000808F8105C5FFA81F84DE7A8
:108B6400002063E7A8A501009CDB010047B50100D4
:108B74000400000100AB01001BF80A3054F82390F4
:108B840087F83730D7F884302BB3D7F888309B4533
:108B940021D2D7F8843033F81B8001213A6AFB6A6A
:108BA40007F13700984700281ADB0544B8F1000F95
:108BB40006D14846FFF7DEFA00F101081FFA88F8EB
:108BC400414648463A6AFB6A9847002808DB054450
:108BD4000BF1010B5CE74FF00008DEE7454645E684
:108BE400054643E6014B1860704700BFDC81002056
:108BF40080B505460E46174698460CF0C9F803465C
:108C040011F0C6FC0446DFF81890424649F80030DB
:108C140039463046A84754F8090001F03FFD00BF2B
:108C2400080000002DE9F047058B0446280790460C
:108C340011D4022905F0070540F0CC8020460DF040
:108C44008BFD78B10138218B042811D8DFE800F0BE
:108C5400C2106D85950001290CBF45F0100545F043
:108C64002005258388F31188BFF36F8FBDE8F08753
:108C740001F0070AAA4500F0A5800027B9463E4640
:108C8400A368002B00F0BC8041F00801218388F325
:108C94001188BFF36F8FA168002900F0BA800D68B6
:108CA400002900F0B680334652462046D1F80480AD
:108CB400C047002D76D02B6829461D46F0E701F009
:108CC40007035A1F012A1BD8002221F00701062B93
:108CD400276889B2C4E9002209D13B4603E0628BCC
:108CE400013262831B68002BF9D141F00201204656
:108CF40021830DF031FD00287AD041F0200176E087
:108D0400042B0AD121F0070189B2204621830DF0FA
:108D140023FD10B141F020012183218B01F0070ACA
:108D2400AA454FD00027B946AAE7236921F00701D5
:108D340041F00601062DD3F8009021832DD1B9F11D
:108D4400000F3FD041F00801218388F31188BFF35D
:108D54006F8F20463949C84729E021F0070123696C
:108D640041F0040189B2042DD3F804902183E6D0A4
:108D740000274FF0040A3E4682E721F007012369E9
:108D840041F0050189B2052DD3F808902183D6D08E
:108D940000274FF0050A3E4672E700274FF0060A07
:108DA4003E466DE72B4687E7B9F1000FD1D1EFF3CB
:108DB4001188202383F31288BFF36F8F238B23F052
:108DC40008032383258BEA062ED525F0100323837D
:108DD40005F007056669218B002EBFF670AF0023EE
:108DE4002768C4E9003321F0070141F00101218320
:108DF400218B4FF0000901F0070AAA457FF440AF28
:108E0400002F9CD041F00801218388F31188BFF31F
:108E14006F8F002FC8D03D683946334652462046EE
:108E24000DF0C6FC2F46F4E7AB067FF51BAF25F02B
:108E34002003238305F0070500E700BFE167010075
:108E440010B530B90B480C490DF091FD6FF01500C9
:108E540010BD836833B9074808490DF088FD6FF0E9
:108E64000400F5E71B6813B1BDE810401847184625
:108E7400EEE700BF18AB0100FBB501000CB6010022
:108E840010B530B90B480C490DF071FD6FF01500A9
:108E940010BD836833B9074808490DF068FD6FF0C9
:108EA4000400F5E75B6813B1BDE8104018471846A5
:108EB400EEE700BF18AB0100FBB501000CB60100E2
:108EC40070B508B101B132B90B480C490DF04FFD32
:108ED4006FF0150070BD84680CB1E56835B90648BB
:108EE40007490DF044FD6FF00400F3E741F8040B6B
:108EF400E368BDE87040184718AB01002AB60100CA
:108F04000CB6010010B5044630B9104810490DF0F4
:108F14002EFD6FF0150010BD006830B90B480D49E7
:108F24000DF025FD6FF00100F5E783680BB11B69B7
:108F340033B9064808490DF01AFD6FF00400EAE75A
:108F4400616898470028E6D12060E4E718AB010087
:108F540056B6010067B601000CB6010070B51346A1
:108F6400044630B9104811490DF001FD6FF01500A9
:108F740070BD006830B90C480D490DF0F8FC6FF075
:108F84000100F5E782680AB1956835B906480949D0
:108F94000DF0EDFC6FF00400EAE70A46AC466168A8
:108FA400BDE87040604700BF18AB010056B6010031
:108FB40067B601000CB60100034A13680BB9526886
:108FC40013600020704700BFE081002030B50C46DC
:108FD4000E4985B00291D0F8D4110546CDE900318F
:108FE40000F1F0014FF0FF3320460AF09BFB50B92B
:108FF400012384F86C30D5F8D03123B1204605B074
:10900400BDE83040184705B030BD00BF6B6A0100B1
:1090140038B50C46114605460DF027FD034638B910
:10902400284604490DF021FD03460020236038BD85
:109034000120FBE782DA01002DE9F04F012381468C
:109044000569466887B005F55F77D7E8EF2F002AF2
:1090540003D1C7E8E13F0029F7D10CBF1A4600222B
:1090640040F0B080B368B16A05F5F8781C1F10466B
:109074000DF082FD84426ED8013A00F09D80B2FA70
:1090840082F24FF00044D44072682046073222F046
:109094000302C5F83C22B16A0DF06EFDC5F840022A
:1090A400B36A40466343033323F0030302EB4302F2
:1090B400230103EB4403093323F0030303EBC40349
:1090C400C5F834221A440832C5F830227368C5F84A
:1090D4003842C5F82C323D4BC5E9AD63316800F028
:1090E400E5F90446002834D1D9F810B0D9F804A021
:1090F400D9F800300BF53479059004934846DAE941
:109104000734012B08BF103C10F009FFDAF82400E3
:109114002F4904AB01EB80214FF480624846009351
:1091240023460BF053FA2B490BF5307010F0B0FEC8
:10913400DAE9050183685C684CB15B46264AA047BE
:10914400044630B9DAE9050183681B692BB96FF06D
:109154005704002129E0013289E701229847044697
:109164000028F6D11D4B2846C5F8D0311C4BC5F854
:10917400D4311C4B0393D5F840320293D5F83C32DA
:10918400CDE9008305F51173B26AD5F8781300F0C0
:1091940055F904460028DCD105F1F0000AF068FB1B
:1091A4000028C5F880030ADB022138460DF091FC43
:1091B400204607B0BDE8F08F6FF00B04C9E76FF0ED
:1091C4001504C6E76FF07704F2E700BFC16A010037
:1091D40090A10020A76A01009B6A0100ED910000A4
:1091E400536C0100076B010013B5044640B1002322
:1091F4000122CDE90032074BD0E909120AF066FAE0
:10920400236F1B6823B1606F02B0BDE8104018479C
:1092140002B010BD82DA010013B504460846216984
:1092240001F55F71D1E8AF1F022910D193B1A0B14C
:109234000121CDE900311346D0E909120AF046FABA
:10924400074B984208BF6FF00B0002B010BD6FF0DF
:109254000F00FAE76FF04C00F7E76FF00100F4E756
:109264002EF8FFFF2DE9F34789461546066906F5F2
:109274005F73D3E8AF3F022B64D1136823B96FF057
:10928400150002B0BDE8F0871B78002BF7D0D6F8A4
:1092940078A3BAF1000F36D106F5EC774FF0FF3220
:1092A4004FF0FF3338460AF0BFFE30462A6801A962
:1092B400FFF7AEFE019C80461CB938460DF007FC52
:1092C400DDE705F108032367AB6984F86CA06367E5
:1092D400646460B138460DF0FAFB21463046A36E53
:1092E4002A68FFF773FE0020C9F80040C9E71F226F
:1092F400296804F1480011F0D1F8384684F86780F1
:109304000DF0E5FBEFE7304610490DF0AEFB0446E7
:109314000028B4D0002705F108030367AB6980F87F
:109324006C70436740641F222968483011F0B6F816
:1093340022460121304684F8677000F061F8002865
:10934400D1D09CE76FF00F009BE700BF82DA0100E9
:1093540010B50C46006900F55F73D3E8AF3F022BEC
:109364000FD189B10A4900F5307010F0BDFD2046D7
:1093740010F0C9F878220021204611F065F8002089
:1093840010BD6FF00F00FBE76FF00100F8E700BFBE
:10939400C09400202DE9F04F05460E469046002764
:1093A400D0F8C4A085B0AAF5BE7421463046FEF7B5
:1093B400CFFEE0B9114BA4F1480B0293DAF8103058
:1093C4003246CDE9008329464FF0FF335846AAF5CB
:1093D400E2790AF0A7F960B97823012203FB079325
:1093E40083F86C20DAF80C300BB15846984778347F
:1093F40017B105B0BDE8F08F0127D6E7816C0100F5
:109404001FB5144690B18AB1012912D10A4B00F15B
:10941400F0010293D0F8D431483201934FF0FF3376
:10942400204600930AF07EF904B010BD6FF01500D9
:10943400FAE70020F8E700BF816C01002DE9F04352
:1094440087B00E46DDE90E811446DDE910251F467E
:1094540030B329B3DFF850C000F1F009002D08BF84
:1094640065469EB9CDE9034400F5E27420460596AD
:1094740010F0E1FA03ABCDE900432A463B464146EE
:1094840048460AF06FFA07B0BDE8F083002241466F
:109494000E9248462A4607B0BDE8F0430AF0B2BB34
:1094A4006FF01500EFE700BF99930000F0B5044694
:1094B4002B4A87B004AB0E4692E8030083E803000E
:1094C400002C49D018460AF007F80546B0B94FF009
:1094D400FF33E16C04F15407A163CDE9010000936B
:1094E4003846236D04F138020FF0BFFCA06C0DF078
:1094F400F4FBC4F8BC0020B96FF00B05284607B094
:10950400F0BDA06C0DF0E9FBC4F8C0000028F3D056
:10951400236CD4F8BC10C4F890300423C4F89430FD
:10952400C4F8AC300223E3620E4BB4F84820C4F80C
:109534008C10616C236204F18C03C4F8A070A4F84D
:109544009820C4F8B870C4F8A810A4F8B020C4F8DF
:10955400A400A6612363D1E76FF01505CEE700BF31
:1095640080AB0100F4AC01002DE9F0470446074646
:109574004FF00109DFF8508014B93846BDE8F08790
:1095840094FAA4F5B5FA85F509FA05F32E0108EB6A
:1095940005156FEA030A24EA03042B7B002BEBD0A6
:1095A40058F806301B694BB94644736804222846B0
:1095B400196807EA0A070DF0F8FBDDE72846984723
:1095C4000028D9D1F0E700BF70AB010030B500220C
:1095D40089B00F490F4810F081FE002200230024B7
:1095E400CDE906230E230C4DCDE903344FF440722C
:1095F4002846CDE90144094B094900940BF004F9CC
:109604000849284610F0E6FC204609B030BD00BFEA
:109614002D960000C88E0020388A00204199000051
:1096240090A500208CB6010001480AF0F7BD00BFE8
:109634007C8400202DE9F047804621480F460DF038
:1096440098FB0646002833D000252846BDE8F0875D
:10965400237B83B12368DB680BB12046984763689A
:1096640083F8069023681B69D3B9636804222046F3
:1096740019680DF09AFB013610345445E8D3B8F15B
:10968400000FE2D0002DDFD02846FFF76DFF05461E
:10969400002FF7D000214FF4A47010F04CFDF1E737
:1096A400204698470028E0D009FA06F31D43E2E774
:1096B40005464FF00109034CDFF80CA0DDE700BFBD
:1096C400F894002070AB010080AB0100014B53F80B
:1096D4002000704734AD010008B5034608462BB19D
:1096E400044A136000F06EFC002008BD6FF0150002
:1096F400FBE700BF0C82002010B5044C237813B99B
:1097040003480AF08BFD0123237010BDDC9A00206E
:109714007C84002010B5044609480DF02AFB3CB1B6
:10972400084BD3E8EF1F0139C3E8E21F002AF8D140
:10973400054810F0DFFDBDE8104004480AF06EBD96
:10974400F0940020F4940020C88E00207C84002033
:1097540000200146034BD3E8EF0FC3E8E21F002AC1
:10976400F9D17047F094002070B5FFF7F1FF05467A
:10977400074C084EB44200D370BD63685B792BB1CB
:1097840023685B6813B12946204698471034F1E7F3
:1097940070AB010080AB010010B5044C04492046B5
:1097A4000CF073FE034B1C6010BD00BFBC83002093
:1097B40020AD0100E894002000230D4A10B5137079
:1097C4000C4A4FF4004113600B4A0C481360FFF736
:1097D40083FFFFF7E1FF0A4B0A4918468B4200D387
:1097E40010BD1A1A5C681211013222711033F5E7A8
:1097F400DD9A0020F0940020F4940020736D0100A1
:1098040070AB010080AB0100014600220023014837
:109814000CF05CBEBC83002001480CF0F5BE00BF18
:10982400BC830020024B014618680CF041BF00BF06
:10983400E894002001480CF076BF00BFBC830020F0
:1098440070B5274B1878002849D0FFF7E5FF054687
:10985400002841D1234B244C1B68002B19DD10F048
:10986400F6FC4FF47A72A0FB020302FB0131C30B36
:1098740043EA4143D4E900209B1A40F2E9324FEA1B
:10988400D13161EB0001934271F1000101D3FFF783
:109894006BFFD4E9003213F57A7342F10002C4E994
:1098A4000032BDE87040FFF7C5BF63685B7923B140
:1098B4002368294620461B6898471034B442F4D3E1
:1098C4002846FFF7AFFF094BD3E8EF1F0139C3E880
:1098D400E21F002ABED0F7E7054C064EEEE770BD46
:1098E400DC9A0020F0940020C08E0020F494002024
:1098F40070AB010080AB010070B50D4D297861B9E2
:109904000120FFF797FE0B4C0B4EB44206D3FFF732
:1099140097FF0028FBD101232B7070BD63685B792E
:109924001BB1236820469B6898471034EDE700BFBD
:10993400DD9A002070AB010080AB010000212DE90D
:10994400F0470846FFF776FE044658B340F26768CE
:109954004FF0000910F01CFE1B4B1C4A1B581360EF
:1099640033B11B4B1B68092B02DD1A480AF056FC65
:109974000025194FDFF85CA044B12046FFF7F4FD41
:10998400044618B94FF0FF384FF0FF39FFF758FF7E
:10999400064628B9B5B942464B4650460AF078FC0B
:1099A4003546E9E74FF0FF384FF0FF39D2E72B682F
:1099B4009B691BB100222846114698471035BD42C9
:1099C400F5D3E8E7054DFAE708000000EC94002021
:1099D400F49400207C84002080AB010070AB010073
:1099E40013B518480DF0C5F9174B1B7873B1EFF395
:1099F4001184202383F31288BFF36F8FFFF720FFB6
:109A040084F31188BFF36F8F02B010BD0F4B1B6836
:109A1400002BF9D050B9002200230D48CDE90023D2
:109A24004FF4004200230BF0AFFCEDE70928EBD123
:109A3400074810F05FFC074802B0BDE810400AF088
:109A4400EDBB00BFF4940020DD9A0020EC940020CC
:109A5400C88E00207C84002010B5064B04461B6889
:109A640098472146A06004480CF0AFFDBDE81040C3
:109A7400FFF7B6BF0C820020BC830020044A054BCC
:109A84009B1AB1EBD30F34BF52F83100002070475A
:109A940090AA010070AB01002DE9F04F8FB0C1F323
:109AA4004A2804AF0D469146B8607B600C0DB8F1AE
:109AB400000F63D000264FF0040B4FF00A0A07F1A1
:109AC4001403C7F80C80C7E907667E620193CDF8DA
:109AD40008B0CDF800A007F11C0332464846F968E7
:109AE400FEF79AFEB0F5006F03461CD36C468AB0AD
:109AF400D9F8041004AB26481A46C3E9050140F21C
:109B0400FF71D9614FF400711984224B42F8103F60
:109B14004FF4125133462048FFF7BEFFA5462C37B9
:109B2400BD46BDE8F08FC0F30A0804F117001844DD
:109B340020F0070080083B60FFF766FE68F35325BA
:109B4400044690B13B6800F11001C7E9083607F1FB
:109B54001403F961CDE900A3CDF808B048460F4AD3
:109B6400F96807F11C03FEF757FE68F353252A46EC
:109B740020467B68B9680DF037F9D0E704F1170087
:109B840020F007008008FFF73FFE0446EDE700BF22
:109B9400A1B601000400000120AB0100C16D010069
:109BA4002DE9F04F87B00446DDE9105ADDE912795A
:109BB400934698460391BFB13B465246102100207C
:109BC400CDF80090CDF81490FEF754FCB0F5006F7A
:109BD40006460AD340F2FF730221174A174807B01A
:109BE400BDE8F04F0DF059B93E4605F11700304479
:109BF40020F007008008FFF707FE04F007040BF0CD
:109C0400070BE40044EA8B1444EA462444EA05546E
:109C1400054640B13FB13B4652463146CDF800902F
:109C24001030FEF727FC434622462846039907B026
:109C3400BDE8F04F0DF0D8B8E0B6010020AB01004C
:109C4400406820B1034BC01A40F3CF0070474FF077
:109C5400FF30704790AA01000EB403B503AB53F86C
:109C6400042B01460448019301F04EF802B05DF85C
:109C740004EB03B0704700BF016F0100CA0605D4AE
:109C84008B064CBF02490349FFF7E6BF704700BF8C
:109C940081DA010080DA01002DE9F04F89B09B469A
:109CA400149B9DF84CA00693159B04460593169BA4
:109CB4000D469046179E0493BAF1000F00F09D8064
:109CC40006F4807307930DF06EF806F0020902465D
:109CD40000283ED020469149FFF7BEFF0746B9F160
:109CE400000F08D016F0440F35D12A4620468C497F
:109CF400FFF7B2FF074406F0010353B1894B204636
:109D040053F82A20884B8949002A08BF1A46FFF7CE
:109D1400A3FF06F48073002B49D006F00803002B40
:109D240063D1B8F1000F66D0424620468049FFF760
:109D340093FF0546069B3D44002B6DD1049B002BED
:109D440073D1F30700F1E48031462046FFF796FF14
:109D5400D8E00746C3E7774B18680028CAD0764B8B
:109D64004FF47A791B684FF03C0CB5FBF3F5B5FB67
:109D7400F0F14FF4616300FB115509FB05F5B1FBEC
:109D8400F3F2B5FBF0FE03FB121100FB1E55B1FB11
:109D9400FCF309FB05F5B5FBF0F50CFB13112046AC
:109DA4000091CDE901E56549FFF756FFA2E706F00A
:109DB4000803EBB1624B204653F82A206149FFF7B0
:109DC4004BFF0546B8F1000F05D0424620465849DE
:109DD400FFF742FF0544BBF1000FABD05A462046C3
:109DE4005949FFF739FF0544A4E74FF0000BE1E7B9
:109DF40006F00805E6E745469CE7BBF1010F069B24
:109E040006D1002B64D1049B002B7BD000250CE0F1
:109E1400002BF8D04D485CE04D48069B22464D4946
:109E24000CF0BAF9049B002B68D0DFF82C81DFF822
:109E34002C91049F3146102F204628BF10274FF045
:109E4400000BFFF71BFF5D4545DC059B494620469B
:109E54001A78FFF701FF4FF0010B1BF0070F03D136
:109E640041462046FFF7F8FE5F453BD9059B49462E
:109E7400204613F80B20FFF7EFFE0BF1010BBBF1AB
:109E8400100FEAD14FF0000B20463549FFF7E4FEEE
:109E94005A46059B20469A5CA2F120015F2928BFFF
:109EA4002E223049FFF7D8FE0BF1010BBBF1100F46
:109EB4001DD01BF0070F03D141462046FFF7CCFE0F
:109EC4005F455A46E5D841462046FFF7C5FEEBE715
:109ED4001F485546A1E741462046FFF7BDFE0BF15A
:109EE400010BB0E720462049FFF7B6FEC5E7059B06
:109EF4003B440593049BDB1B04939AD1BAF1000FF6
:109F04007FF41FAF204609B0BDE8F04F0CF0E9BF65
:109F14002046054A0549FFF79FFE15E71DB70100D6
:109F240021B7010044AD010018B70100C3C101000D
:109F340046B7010000950020FC9400202AB70100D8
:109F440058AD01004AB7010050B701002F6F01005E
:109F5400016F01000DAD00004CDA010055B701009E
:109F64005BB701005DB701004ADA010042F20F73EA
:109F740073B58B4228BF0B46056804460521684625
:109F84000D4A0BF02BFC0646636828460B225B68DF
:109F94000A490CF098FF63683246694628465B68B4
:109FA4000CF091FF63681B2228465B6804490CF09F
:109FB4008AFF02B070BD00BF20BE01007CB7010063
:109FC40060B7010000210123064A904206D8064AE0
:109FD40001B901231360054B186070470121400843
:109FE4005B00F2E740420F00FC9400200095002043
:109FF400F8B50D460446064F4618B44201D128462A
:10A00400F8BD14F8011BBB6801485B689847F4E786
:10A0140000A70100014B036000207047A0AD0100C0
:10A0240008B504480CF012F9BDE8084002480CF0E9
:10A034000DB900BFC2B70100F7B701002DE9F04721
:10A0440006460C4600AF002936D0D1E90012E94695
:10A054008AB06D46A3684FF0050AA8461F48C5E9B3
:10A064000723C5E9050148F810AF002342464FF421
:10A0740021511B48FFF710FDD4E90312CD46636953
:10A08400AD461848C5E90723C5E90501C5F810A080
:10A09400002342464FF421511148FFF7FDFCCD4601
:10A0A400E3690121104A0E480CF0F7FEA36901216F
:10A0B4000E4A0B480CF0F1FE012E07D1EFF3058395
:10A0C4000B4A31460648103B0CF0E7FE2146304669
:10A0D40009F0BEFDBD46BDE8F08700BF25B801000C
:10A0E40058AB010054B8010083B8010092B80100D4
:10A0F400C0B8010030BFFFF7FDBF00BF2DE9F0413C
:10A1040005460B4EDFF82C80324606EB0807CC1BC5
:10A114002046094910F08BF9A01942460021083C59
:10A1240010F092F96C6707F10800BDE8F08100BFF8
:10A13400000000000400000080AB0100054B5A69D8
:10A144009B689A421FBF044A536843F0805353608C
:10A15400704700BF7C9A002000ED00E070B52A4CE7
:10A1640006460D4629482A490CF066FFA36ADB0619
:10A1740047D5264827490CF05FFF1120A36A1C0726
:10A1840004D5224824490CF057FF12201E4CA36A20
:10A19400990712D521491D480CF04EFF636BA26A42
:10A1A400120609D501211E4A18480CF076FE1EB18C
:10A1B400A36A23F08003A3621320134CA36ADE076F
:10A1C40004D5124817490CF037FF1420A36A9C06E3
:10A1D40004D50E4814490CF02FFF15200A4B9A6A37
:10A1E400D10658BF9A6A9A6A920642BF5A6A22F402
:10A1F40000525A629A6A42F0FF029A6200232B705C
:10A2040070BD1020BAE700BF00ED00E058AB0100BC
:10A21400D3B80100E9B801001CB901002FB901004D
:10A2240047B901005DB901007CB9010010B5244CA7
:10A23400244925480CF000FFA36A99013ED5224821
:10A2440022490CF0F9FE1E20A36ADA0104D51E4847
:10A254001F490CF0F1FE1F20194CA36ADB0204D540
:10A2640019481C490CF0E8FE0220A36A1C0304D51B
:10A27400154819490CF0E0FE2120114CA36A59033A
:10A2840004D5114815490CF0D7FE2220A36A9A037D
:10A2940004D50D4812490CF0CFFE2320084CA36AC4
:10A2A400DB0304D508480F490CF0C6FE2420A36A3A
:10A2B4006FEA03436FEA1343A36210BD1D20C3E793
:10A2C40000ED00E0ABB9010058AB0100C3B90100D7
:10A2D400D6B90100F0B901001ABA010038BA010078
:10A2E4005DBA010077BA010070B5294C06460D46E7
:10A2F400284829490CF0A0FEA36AD9043CD5254876
:10A3040026490CF099FE1720A36A1A0504D52148A2
:10A3140023490CF091FE18201D4CA36A9B0512D50D
:10A324001C4820490CF088FEA36BA26A100409D5CE
:10A3340001211D4A17480CF0B0FD1EB1A36A23F495
:10A344000043A3621920124CA36A590504D511488D
:10A3540016490CF071FE1A20A36ADA050ED50D48D1
:10A3640013490CF069FE1B20094A936A43F47F43A6
:10A37400936200232B7070BD1620C5E7A36A9B046B
:10A38400F2D504480B490CF057FE1C20ECE700BF43
:10A3940000ED00E058AB0100A2BA0100B8BA010018
:10A3A4001CB90100C9BA0100E2BA0100F7BA010000
:10A3B40012BB01007CB901002DE9F0478AB0694B5A
:10A3C4000446D3F804A089461646002500AFCAF314
:10A3D400080885F31188BFF36F8F02F07F43B3F150
:10A3E4007F4F1ED1D3071CD4500603D4110708D4C1
:10A3F400012508E05C495D480CF01EFE16F00406D9
:10A4040000D04C4600250023FB71A8F10303092B5F
:10A4140000F28680DFE803F0077C7F7884848484FC
:10A4240084822C46EFE7524950480CF005FE002385
:10A434004C4EFB71F36A9A0705D54E494B480CF014
:10A44400FBFD002329E0F36A002B01DA4A49F5E712
:10A45400F36A5B00F5D5494944480CF0EDFD736996
:10A46400A26943F480737361BFF34F8FBFF36F8F9F
:10A47400736932F8022C23F480737361BFF34F8F36
:10A48400BFF36F8F4DF602739A4228D123680121DE
:10A494003B4A36480CF001FD2368FA79DAB907F132
:10A4A400080604F1200C324620686168083403C2AF
:10A4B40064451646F7D17A6A002D4ED0C2F30801DE
:10A4C40021B96FEA52226FEA42227A62184607F1F2
:10A4D4000801FFF7B3FD2837BD46BDE8F087B36A2E
:10A4E400DBB223B10120F91DFFF738FE0EE0B36A99
:10A4F40013F47F4F04D00120F91DFFF7F5FE05E0AA
:10A50400B36AB3F5803F9CD3FFF790FE0346C4E7DC
:10A514000020F91DE8E70020F91DEEE719498DE751
:10A52400194A6E461AF4F87F8AB0184B18BF1346BE
:10A534006A461749C2E90513A8F11003D3614FF421
:10A5440000731384134B42F8103F00234FF411514E
:10A554000648FFF7A1FAB54673E722F4FF7222F02A
:10A564000102B2E700ED00E058BB010058AB010066
:10A574007BBB010092BB0100B3BB0100C1BB010066
:10A58400E0BB0100FCBB01003FBB01002ABB010092
:10A5940020BC010004000001064B5A6942F010027D
:10A5A4005A615A6942F480625A615A6922F0080277
:10A5B4005A61704700ED00E0EFF30880EFF3098182
:10A5C40001B57246FFF7F8FE01BD00BF002080F31D
:10A5D4001488BFF36F8F002080F30A8880F30B8800
:10A5E4000F4880F308880EF0A9FB00200D4908608D
:10A5F400BFF34F8F00F02CF8202080F311880A4815
:10A604004FF40061401880F30988EFF314800221AD
:10A61400084380F31488BFF36F8F00F0EFF8000055
:10A6240038C6002094ED00E0F8B40020002318465A
:10A634000649D1F89020C2F30722934200DB704709
:10A64400C1F89830C1F8A0000133F6E700ED00E04E
:10A6540010B572B6002484F31388FFF7E7FF23468E
:10A664004FF0FF300C4A03F120010133102B42F864
:10A674002100F8D100234FF0FF30074A03F16001B5
:10A684000133102B42F82100F8D162B6BFF34F8F8B
:10A69400BFF36F8F10BD00BF00E100E0084B9B6863
:10A6A40083420BD1EFF3058343B1064B5A6842F062
:10A6B40080525A605A6A22F400425A620AF06EBB0F
:10A6C4007C9A002000ED00E016498A6882F881E057
:10A6D4004FF030001044EFF3098C80E8F01F202085
:10A6E40080F31288BFF36F8F0F4F4FF000664A69F3
:10A6F4008A603E60506F0D4C206092F981E0906F4B
:10A704000023936780F3118802F1300090E8F01F72
:10A714008CF3098802F1000004B50CF097FCBDE845
:10A72400044070477C9A002004ED00E0309500203E
:10A734001EF0040F0CBFEFF30880EFF3098081696A
:10A7440011F8021C0229FFD001B572460CF069FC15
:10A7540001BD00BF40B2002807DB01234109034AC1
:10A7640000F01F00834042F82130704700E100E010
:10A7740040B200280CDB01220649430900F01F0007
:10A784008240203341F82320BFF34F8FBFF36F8FF4
:10A79400704700BF00E100E0054B420953F8222056
:10A7A400012300F01F0003FA00F01040704700BFBF
:10A7B40000E100E040B2002801F10101ACBF00F16A
:10A7C4006040064B4FEA4111C9B2ABBF00F561408E
:10A7D40000F00F0080F800131954704714ED00E0E6
:10A7E400044B054A23F07F039360BFF34F8FBFF3FD
:10A7F4006F8F70470080000000ED00E008B5FFF7A0
:10A80400EFFF074AD2F8883023F47003C2F8883087
:10A8140009F00CFB0AF0F6FB00F04AF809F046FBDD
:10A8240000ED00E042F8203C009B0D4942F81C3C3E
:10A83400019B21F0010142F8183C029B42F8081CDC
:10A8440042F8143C4FF0807342F8043C00238367C1
:10A854004FF43C43203A0265C0F88030704700BF93
:10A86400F58B000000B50B4B15469860426F0A4B00
:10A874000E461A60436E83F30B882C4686F30988D0
:10A884000020064B98472046002100220023044C58
:10A89400204700BF7C9A00203095002059700100A9
:10A8A400F58B00001022014B1A61704700ED00E0A7
:10A8B400002320210348C2180133452B82F80013DA
:10A8C400F9D1704700E100E008B5EFF30583064ACB
:10A8D400103B02EBC30152F8330049688847BDE8D6
:10A8E4000840FFF72BBC00BF80A701001FB5094C2F
:10A8F400094A23460121094800F012F90023039371
:10A90400074B0121E41A01A80193029400F012F903
:10A9140004B010BD0000072000800020A0AD01009D
:10A924002886002010B50C7A0B6804F01F0223F06F
:10A934001F031A43CB68640923F01F03054943EA44
:10A94400440343F00103C1F89800C1F89C20C1F806
:10A95400A03010BD00ED00E010B50A4BD3F89030E4
:10A96400C3F30723013B984208D901210346064A51
:10A9740006480CF092FA6FF0150010BDFFF7D2FFF5
:10A98400FBE700BF00ED00E037BC010040AB010075
:10A994002DE9F04F8946144606464FF00008514D04
:10A9A40085B0C84527DAD6F804A0BAF1000F44D020
:10A9B400BAF11F0F17D91AF01F0F14D1D6F800B02F
:10A9C4001BF01F0F0FD158460CF080FB07460AEB13
:10A9D4000B0001380CF07AFB874210D06FF015079A
:10A9E400414A3B4601E04346404A012140480CF0BD
:10A9F40054FA6FF01504204605B0BDE8F08F17F146
:10AA0400160FEDD0BC42EBDDC5F89870D5F89C105C
:10AA1400C5F89870D5F8A03021F01F0143F01F0B42
:10AA2400D6E900321A44994202F1FF3A1DD1D345C6
:10AA340007D13146F8B20CF052FB08F101080C368C
:10AA4400AFE73146C5F89870D5F89C3022F01F0264
:10AA540003F01F031343C5F89C30E0B20CF03FFB36
:10AA640010F1160FC5D0441CE7E7C5F89870D5F867
:10AA7400A020013B23F01F0302F01F021343D34520
:10AA84003146E0B2C5F8A030E8D00CF028FB10F154
:10AA9400160FAED0C5F89870D5F89C209DF80830F4
:10AAA4000BF1FF3B62F304038DF80830D5F8A030B6
:10AAB4009DF808205B0863F347128DF80820D6E957
:10AAC40000321344009323F01F035B44A3EB0A03F7
:10AAD400013023F01F036946C0B20393FFF73CFF24
:10AAE400BEE700BF00ED00E080BC01005DBC0100DA
:10AAF40040AB01000522044BC3F89420BFF34F8FF1
:10AB0400BFF36F8F704700BF00ED00E0BFF35F8FAE
:10AB14000022024BC3F89420704700BF00ED00E010
:10AB240010B5034C2278FFF733FF207010BD00BF2F
:10AB3400DF9A00202DE9F74F294D8A4606464FF04B
:10AB44000008AB46274FD0451BDAD6F80490B9F17C
:10AB5400000F3FD03168084601910CF0B7FA019913
:10AB6400044609EB010001380CF0B0FA84424FF0BE
:10AB740014021D4B08D002FB08F36FF015024BF8CA
:10AB8400032003B0BDE8F08F14F1160F2C60F8D049
:10AB94001978A142F5DD02FB08B0C7F89840C7F860
:10ABA4009840D7F89C4000F10801007B64F304004E
:10ABB4000871D7F8A0000C79400860F347140C71B1
:10ABC400D7F89C1021F01F016960D7F8A01021F07C
:10ABD4001F01296108F1010814350C36B3E700BFE1
:10ABE4003495002000ED00E0DF9A0020F0B54149E3
:10ABF400414CD1F890302568C3F307239D4287B0B8
:10AC040075D80020FFF782FF3C4BC1F8C030854265
:10AC140016D13B4C01A82570FFF7FCF90025064628
:10AC2400384FAE4213D1002023783249D1F8902016
:10AC3400C2F30722934254DBFFF75CFF00202FE0AE
:10AC4400616801EB0011FFF76DFE0130DFE7019948
:10AC5400280101EB0513DA683A40B2F5001F21D050
:10AC6400B2F5800F2BD0B2F5801F38D15A689B689B
:10AC74000958013B22F01F0003440120844623F0BD
:10AC84001F0340EA4C10CDE902218DF8100002A9FF
:10AC940020780593FFF760FE00281DDA6FF0150099
:10ACA40007B0F0BD5A689B680958013B22F01F00A9
:10ACB40003444FF0020C012023F01F03E1E75A681C
:10ACC4009B680958013B22F01F0003444FF0000C1D
:10ACD400062023F01F03D4E72378013323700135C2
:10ACE4009FE7C1F89830C1F8A00001339EE74FF008
:10ACF400FF30D5E700ED00E0ACAD0100AAFF440051
:10AD0400DF9A00200000F0FFF0B587B007460E463A
:10AD140014460021102268461D460FF095FB0223BD
:10AD24008DF80230054B2A4621466846CDE9047663
:10AD340001930AF07FFD07B0F0BD00BF157101005B
:10AD440008B502480AF02AFDFEE700BFB2BC0100C4
:10AD540008B5024B1B689847002008BD48950020A1
:10AD6400034B044A1860937843F0020393707047CE
:10AD7400489500201882002008B50649064821F0AD
:10AD84000701C1F1005202F5E0220BF0ADF90020F9
:10AD940008BD00BF2BED00204C95002070B5416923
:10ADA4000446867A0A4D59B1437ADB0706D42C232C
:10ADB40003FB06535B6A1B689B6898470023636127
:10ADC4002C20214606FB0050BDE870400EF0CFBF9A
:10ADD400C48400202C22024B02FB0030704700BFC9
:10ADE400C48400202C21827A054B01FB02339A6A29
:10ADF4001B7F801A1B3323F00303B0FBF3F070476F
:10AE0400C484002038B52C24827A064B04FB023318
:10AE14005B6AD3E901240C601568FFF7E3FF04FBC8
:10AE2400005038BDC48400202DE9F04385B00546A8
:10AE3400684690461C4603910FF00BFADDE9006763
:10AE4400EFF31189202383F31288BFF36F8F6B8B89
:10AE5400002B41D02A8B9A4225D900220023284670
:10AE640009F0AAF90446F0B189F31188BFF36F8F92
:10AE7400039B002B41D032463B4668460FF00DFA47
:10AE84002C21A27A254B204601FB02335B6A03A9DD
:10AE94001B681D68DDE90023A847606170BB20467C
:10AEA400FFF77CFF24E0698B4B1E6B8389F31188C9
:10AEB400BFF36F8F2B7F2A8BAC6A1B3323F0030302
:10AEC400521A02FB0344154B154AEB1A9B105343C9
:10AED400A3722B7FE372CBE789F31188BFF36F8FE3
:10AEE40023464246284609F067F904460028BFD1A4
:10AEF4000024204605B0BDE8F083636101230025EA
:10AF04002381039B29466382E27A656004F1180079
:10AF14000FF09AFA63692582E360EAE7C4840020AB
:10AF2400A38B2EBA70B52C250B4C00B970BD037AD7
:10AF34004668013BDBB20372002BF7D1C360436068
:10AF4400837A05FB03431B6A13B198473046ECE749
:10AF5400FFF724FFFAE700BFC4840020052370B57F
:10AF6400144D154E2C780134B4FBF3F303EB830337
:10AF7400E41A0DF051FE114A137823B156F8243027
:10AF8400C01A072813D90E4BD3F8141141B100216C
:10AF9400C3F81411D3F814312C700CB901231370B5
:10AFA4002C780DF039FE46F82400012070BD0020F5
:10AFB400FCE700BFE19A002058950020E09A0020A9
:10AFC4000050004007B50DF1070007F053FC0F4B8C
:10AFD400984218D14FF480620D4B0E49C3F8B8253E
:10AFE4004FF40062C3F83C259DF807000DF0AFFE56
:10AFF4009DF8070008490DF0A5FE01209DF80730D3
:10B00400984007F031FC03B05DF804FB0000AD0B81
:10B0140000A002402CA0024028A1024048B1054BE8
:10B02400054A1B68B3FBF2F35843044B43F0010396
:10B03400184770473C83002040420F00E0AB0100FA
:10B04400012270B50C460546054B0020C3F81426B2
:10B054000CF031F928462346BDE87040002118471A
:10B06400005000402DE9F041064601200D460CF049
:10B0740022F9154B154CD3F83021D3F83431072A73
:10B084001ED1023B032B02D8114AD35CC3B14FF04B
:10B09400010800270520C4F81886C4F814760DF0BA
:10B0A4004FFE4046C4F814860DF04AFEC4F81476E8
:10B0B400C4F8187630462B46BDE8F0410021184705
:10B0C4000023C4F81436F5E700F0072000500040D0
:10B0D400D2BC0100014902480BF08DBBE4AD010074
:10B0E4006C9500201FB578B10023019303930123CD
:10B0F4006946084802930BF091FB029B9B0700D121
:10B10400039B05B05DF804FB024805B05DF804EB51
:10B114000BF0DBBB6C95002008B504480EF0C9FCAD
:10B1240000280CBF6FF01200002008BDE0A601004B
:10B134000E4B402928BF402170B51D460C4C4618C3
:10B14400B04203F1020304D1002305F8113007488B
:10B1540070BD02781209A25C03F8022C10F8012BCE
:10B1640002F00F02A25C03F8012CE9E7009B002027
:10B1740035BD010030B503788BB0044607AD032B11
:10B1840021D8DFE803F0021A1C1E12492846FCF7F6
:10B19400E9FF059563781E210493A3780E4A03936F
:10B1A400E3780E4802932379019363790093A3799A
:10B1B4000AF014FB09480BB030BD0949E6E7094918
:10B1C400E4E70949E2E70A212846084A0AF006FBAF
:10B1D400DFE700BFF0BC010012BD0100E29A0020CD
:10B1E400F7BC0100FEBC010008BD0100E0CE010077
:10B1F40030B50024094D0A4B85B0284602930394C8
:10B204000EF08DFE02AB284600934FF4E1620A2350
:10B21400044909F0DBF9204605B030BD008F002059
:10B2240046BD010090A800200146014809F04ABA31
:10B23400008F0020037830B5012B13D0022B27D0C8
:10B244007BB90A46184B03F1100453F8045BA3427C
:10B2540042F8045BF9D11B78137043884B731B0AC3
:10B264008B7330BD0A46104B03F1100453F8045B92
:10B27400A34242F8045BF9D11B7813704368C3F30B
:10B2840007224B731B0CCB731B0A8A730B74E8E7FE
:10B2940000F1100350F8042B984241F8042BF9D123
:10B2A40003780B70DDE700BF4FBD010010B5044605
:10B2B40009F07AFC044B1B680BB120469847BDE8A3
:10B2C400104009F085BC00BF88950020022838B5DD
:10B2D400054607D10E480BF02CFF044698B900240C
:10B2E400204638BD0B480BF024FF04460028F6D056
:10B2F400681EC0B21F2808D8074B195C04F10C0063
:10B304000BF086FFECE70120F6E70021F6E700BF2B
:10B3140074850020C484002060BD01000F2810B58E
:10B324000CD80D280CD90A480BF003FF044618B1B9
:10B3340004210C300BF06CFF204610BD1328F2D012
:10B3440009B10448F0E70220BDE81040FFF7BEBF92
:10B35400F885002048850020C36802211B78024A32
:10B3640002480CF0AEB800BF8FBD0100C8AA0100AE
:10B3740070B5C6683378B6F8014083B90F2120460A
:10B3840002F052FDF378054650B90A4A118831B9E2
:10B394006FEA04506FEA10501080074A137070BDB2
:10B3A4004372012102F05EFC2846BDE8704002F0C1
:10B3B40033BC00BFC49A0020819B002070B5C368D1
:10B3C4001D78BDB9B3F801600F21304602F02CFDA1
:10B3D400044638B93346BDE870400121064A07489F
:10B3E4000CF06FB8294602F03DFC2046BDE87040E1
:10B3F40002F012BC70BD00BFB7BD0100C8AA0100B5
:10B4040010B5C3680121B3F80140204602F00CFDD9
:10B4140038B92346BDE810400121044A04480CF021
:10B4240050B8BDE8104002F0F7BB00BFDDBD01001D
:10B43400C8AA0100012110B50C300BF00AFFBDE8C9
:10B44400104003780121024A02480CF03AB800BFC8
:10B4540001BE0100C8AA0100014610B508480BF05E
:10B464006CFE084908480EF02FFD031E06DABDE8FD
:10B4740010400121054A06480CF023B810BD00BF56
:10B484004C81002038820020A88F002023BE0100B8
:10B49400C8AA010010B5084C0146062294F86F00B2
:10B4A40002F09CFF38B994F86F000522BDE8104003
:10B4B400024902F093BF10BD00800020D6BC0100F9
:10B4C4000121024A02480BF0FABF00BF40BE01004E
:10B4D400C8AA01000B46B0B50D8A00AF0446294640
:10B4E400D868FFF725FE8AB06A46094BC2E90750BF
:10B4F400C2E9053440F202439384064B4FF43251BF
:10B50400054842F8103F0BF0E9FFBD46B0BD00BF4F
:10B514005ABE010005000001C8AA010070B5C56843
:10B524000121B5F80160304602F07EFC044638B9CA
:10B534003346BDE8704001210B4A0C480BF0C1BFF3
:10B544002B783BB9D5F80330C0F89530D5F80730DF
:10B55400C0F89930201D4FF480310BF0B4FF204621
:10B56400BDE8704002F058BBDDBD0100C8AA01006F
:10B57400B0B53C28044600AF1AD101F093FE6FF039
:10B58400800110300BF0ADFF0020FFF783FF05466C
:10B5940030B90121114A12480BF091FFBD46B0BDEC
:10B5A4004472002102F05EFB284602F035FBF5E709
:10B5B4006D468AB06A460B4B4FF41251C2E905300E
:10B5C400094B0748D36140F201331384074B42F817
:10B5D400103F0BF083FFAD46E0E700BF7CBE0100E7
:10B5E400C8AA01009DBE010082DA01000400000126
:10B5F4002DE9F74F0023804689461746DFF804A15A
:10B60400DAE8EF4FCAE8E23F002AF9D1264644B906
:10B61400434601213C4A3D4803B0BDE8F04F0BF0DE
:10B6240050BF2046FFF7DEFB4FF00C0B384D0BFBF1
:10B634000050438843451BD02046FFF7D3FB0BFB48
:10B644000050438801210093324A43462F480BF0AF
:10B654002EFCDAE8EF3FCAE8E26F002AF9D1002BAA
:10B664004DD01E46304603B0BDE8F04FFFF75ABC3C
:10B67400A74208D020460BF057FD3A8AF96804F136
:10B684000C000BF0BCFD2046FFF7ACFB0C2707FBBE
:10B6940000504368ABB1B9F1000F12D12046FFF757
:10B6A400A1FB012107FB00504268D2E90003127A92
:10B6B40003F01F07B9405B09DAB100EB83000BF01C
:10B6C40002FF2046FFF78EFB0C2707FB0050836820
:10B6D400002BC7D02046FFF785FB784305F8009080
:10B6E4002046FFF77FFB07FB0055A86808F096FD8E
:10B6F400B8E7C94300EB83000BF0F3FEE1E703B0C6
:10B70400BDE8F08F48810020B9BE0100C8AA01003D
:10B714008C950020E1BE010037B50446084602EBD3
:10B72400C3039A4202D16FF05E0010E0114611F893
:10B73400085BA54211D1038A5178994209D9084876
:10B744000121084A00940BF0B2FB6FF0150003B01E
:10B7540030BD536898470020F9E70A46E1E700BF87
:10B76400C8AA010014BF010073B540480BF0FAFCED
:10B774000446002877D000F10C0528460BF071FD33
:10B784000228034603D0042848D0394A03E0238A18
:10B79400032B05D8374A012137480BF092FE13E0FA
:10B7A400042128460BF055FDFF23428806882376A2
:10B7B400238AC6F30B009A42608309D001210092C8
:10B7C4002D482E4A0BF073FB2046FFF7ABFB12E02B
:10B7D4000F2102F029FB054610B9638B284ADAE7EA
:10B7E40002F062FB21462076320B284602F0F2F882
:10B7F400284602F011FA234BD3F84C31002B32D0F7
:10B80400214922480EF060FB031E2CDA0121204A54
:10B81400194802B0BDE870400BF053BE238A012BD7
:10B8240001D81C4AB7E7284602210BF012FD054651
:10B8340000780BF032FE10F002060DD140F60C43F6
:10B84400154A164916480AF00EFD86F31188BFF30F
:10B854006F8F0323184602DF04232146114A2878F8
:10B864000BF047FEB0E702B070BD00BF4C81002072
:10B8740038C0010036BF0100C8AA010057BF01004B
:10B884007BBF01000080002038820020A88F0020A8
:10B8940023BE01009DBF0100B9BF0100EDBF01003F
:10B8A4001BC0010090AE010010B5012104460C300C
:10B8B4000BF0CFFC2146BDE810400623014A007876
:10B8C4000BF017BEB0AE0100F8B50121044600AF7D
:10B8D4000C300BF0BEFC0678002321463046104A9B
:10B8E400FFF71AFF5F3018D1258AE0682946FFF771
:10B8F4001FFC6C468AB06A460A4BC2E90750C2E98B
:10B90400053640F202439384074B4FF43251074803
:10B9140042F8103F0BF0E2FDA546BD46F8BD00BF5E
:10B92400E0AE01004CC0010005000001C8AA0100FE
:10B934002DE9F04F83B00123D0F80C80018A98F8E8
:10B94400004000AF03EB84038B425ED96D468AB09E
:10B954006A46C2E9073105232E484FF42151C2E952
:10B9640005042D4842F8103F0BF0B8FDAD460C37E6
:10B97400BD46BDE8F08F4B460121284A26480BF00E
:10B98400A0FD013598F800309D42F0DA08EB8503FC
:10B99400B3F801900F214846B3F8036002F044FA6B
:10B9A40004460028E7D000F1C00936B1636943B901
:10B9B4005A46012118480BF082FD204602F02CF96A
:10B9C400DFE7A1691A688B422046626108BFA26161
:10B9D4007B6001F0A1FF08F021FC7B68C3F800A0A4
:10B9E400226A7AB9C4E90733D9E8EF3F013BC9E8D1
:10B9F400E23F002AF8D100212046013E01F098FFE1
:10BA0400B6B2D2E713602362EEE70025DFF810B088
:10BA1400AA46B7E77EC00100C8AA0100A9C0010078
:10BA2400C5C0010073B5C5680121B5F80160304691
:10BA340002F0FAF9044640B9334601213A4A3B4838
:10BA440002B0BDE870400BF03CBD2B78061D1A2BEC
:10BA540019D1C378012B4ED14FF4804130460BF0FD
:10BA640032FD42040FD4D4F8883069460093D4F8E8
:10BA740090302046019302F08DFF204602B0BDE8CD
:10BA8400704002F0C9B82B78ABBB40F67A41B5F8E8
:10BA94000320A4F8862093B2B5F80520A4F88C20DE
:10BAA400B5F80720A4F88E209A1F92B28A4204D9CE
:10BAB40002211F4A1D480BF004FDB4F88C30B3F585
:10BAC400FA7F04D302211B4A18480BF0FAFC40F613
:10BAD4007641B4F88E30A3F10A0292B28A4204D9B4
:10BAE4000221154A11480BF0ECFC6FF480513046EA
:10BAF4000BF0F7FC14E0D6E8AF3FDB04F5D52B7868
:10BB0400202BF2D194F89430002BEED0013B84F832
:10BB140094304FF42032002304F1400008F0FCFD7F
:10BB2400204602F045FBA8E7DDBD0100C8AA0100DC
:10BB3400DCC0010004C101002BC10100054BD3E8A6
:10BB4400AF2F02F00B02D3E8EF1FC3E8E02F002869
:10BB5400F9D17047D480002010B5C1E900239DF8C5
:10BB640008300C460B72FFF73DF90C22024B02FB26
:10BB740000335C6010BD00BF8C950020F8B5024610
:10BB84000B4610480BF0D5FA0446C0B104210C3022
:10BB94000BF024FB2046FFF725F90C2700260A4D5D
:10BBA40007FB005046802046FFF71CF907FB0050B6
:10BBB40086602046FFF716F907FB00556E602046A5
:10BBC400F8BD00BFCC8500208C95002070B590B0E6
:10BBD4006C4606460A4D0F2E0FCD0FC40FCD0FC471
:10BBE4000FCD0FC495E80F0084E80F009DBF10AB84
:10BBF40003EB860656F8400C024810B070BD00BF37
:10BC040088AB010057C10100034B0146D3F86C0116
:10BC140082689268104700BF008000202DE9F84335
:10BC240000F10C06044630460BF02BFB01210546BF
:10BC34003046B4F810800BF004FB238A012B09D89A
:10BC44000121194A19480BF03CFC2046BDE8F84391
:10BC5400FFF768B9304602210BF0FBFA074600787B
:10BC64000BF01BFC10F0010906460DD141F236031E
:10BC74000F4A104910480AF0F6FA89F31188BFF305
:10BC84006F8F0323184602DF052321460B4A3878B9
:10BC94000BF02FFCB307D8D56369A4F8108013FA0E
:10BCA40085F5E560BDE8F8839DBF0100C8AA0100E1
:10BCB400B9BF01005FC101001BC0010068AE0100F3
:10BCC40038B50C4608F070FFE2681378022B1CD0DC
:10BCD400042B0AD001210F4A0F480BF0F2FB204637
:10BCE400FFF720F96FF015040BE050780BF0D5FB4B
:10BCF400C207054602D52046FFF790FFAB0704D4E0
:10BD0400002408F065FF204638BD2046FFF7A4FB59
:10BD1400F6E700BF78C10100C8AA01002DE9F84F79
:10BD2400042100AF45480BF0CEFB6D4688B06A464F
:10BD3400434B4FF4E6515361424B434893614FF4F4
:10BD440000739383414B424C42F8103F0BF0C6FB07
:10BD5400AD46E2793F4B404E2046012A88BF1E463D
:10BD6400FFF708FA8AB06A463C4BD061C2E905364F
:10BD74003B4B4FF4235113623A4B334842F8103F84
:10BD84000BF0ACFBA346AD460125374EDFF8DC8053
:10BD9400DFF8B490E3790BF1070B9D4238DB94F89C
:10BDA40070506E462846FFF711FF8CB06A46B4F80F
:10BDB4007210B4F87630C2E907514FF4007553623B
:10BDC400DFF8ACC02B4BC2E905C015854FF45351C5
:10BDD40042F8103F1C480BF081FBB54694F87160A3
:10BDE4003046FFF7F3FE8AB06A46B4F8743022494D
:10BDF400C2E90763214BC2E9051095844FF433511E
:10BE0400114842F8103F0BF069FBBD46BDE8F88FBE
:10BE14005846FFF7AFF9EA468AB06A4640F2013362
:10BE2400C2E90565D06113844FF41351484642F8C2
:10BE3400108F0BF053FB0135D546ABE7D4800020BF
:10BE440090C10100A2C10100C8AA010003000001C1
:10BE5400008000208CC1010082DA0100A6C101002B
:10BE64000002010304000002B5C101000400000146
:10BE7400C6C101000600000104C201000500000162
:10BE840000487047B6B40100014808F099BB00BFF0
:10BE94002882002070B505460C4659B94FF0FF3092
:10BEA4004FF0FF31FFF76AFE044618B96FF06805DA
:10BEB400284670BD2046FEF795FF0C22184BA618A5
:10BEC40002FB003330465D800BF0DBF903280BD90D
:10BED400032130460BF0A4F90580238A0121033B9A
:10BEE400837030460BF0A4F940F635439D420FD1E0
:10BEF4002046FFF789FE05460028D9D003460121D4
:10BF0400084A09480BF0DDFA2046FFF70BF8CFE7A3
:10BF1400214606480DF020FF0025FFF7B5FFC7E7CF
:10BF24008C9500202BC20100C8AA01005481002076
:10BF34002DE9F0410446458B077E807AFEF74AFFDF
:10BF44006169064649B1637ADA0704D4436A204634
:10BF54001B689B68984700236361214630460DF0B7
:10BF640006FF254B93F88A309B0642D5384602F0EB
:10BF74000BFB044638B93B46BDE8F04102211F4A99
:10BF84001F480BF09EBA837A073B012B09D91C4842
:10BF940002211C4A0BF093FA2046BDE8F04101F05F
:10BFA4003BBE01F039FE4FF0FF304FF0FF31FFF799
:10BFB400E5FD044630B9BDE8F0410121124A1048BC
:10BFC4000BF07DBA00F10C07012138460BF011F992
:10BFD40001260421067038460BF00BF90023058076
:10BFE4008670C3702146BDE8F04140F63540FFF746
:10BFF40051BFBDE8F08100BF0080002098C201005D
:10C00400C8AA0100C1C20100EDC2010073B5C36832
:10C01400D9789A781E8842EA0122ADF8002059792D
:10C024001A79B4B242EA0122ADF80220D9799A7998
:10C03400204642EA0122ADF804201A7A5B7A0121F3
:10C0440042EA0323ADF8063001F0EEFE054658B986
:10C0540001211D4823461D4A0BF033FA02212046D4
:10C064000BF07AFA02B070BD694602F0E7F838B90D
:10C074001E2120460BF070FA284601F0CDFDF1E7B1
:10C084004FF0FF304FF0FF31FFF778FD04460028F2
:10C09400F2D00E210C300BF0ACF800230680C0F86F
:10C0A4000A30BDF8003021464380BDF80230838059
:10C0B400BDF80430C380BDF80630038142F220008D
:10C0C400FFF7E8FED8E700BFC8AA0100DDBD010004
:10C0D40038B502460B462B4DD5F8541109B900204A
:10C0E40038BD05F5987008F0D3F80028F7D1002280
:10C0F400002305F5AA7008F05FF8044668B940F615
:10C104001B43214A214922480AF0ADF884F31188DF
:10C11400BFF36F8F0323184602DFD5F848315BB1B4
:10C1240001211C4A1C480BF0CAF9D5F84801FEF756
:10C13400F9FE0023C5F8483120460BF029F8C5F86C
:10C1440048012046FFF760FD0346C8B10121134AA8
:10C1540011480BF0B6F9124808F060F82046FEF7D3
:10C1640041FE0C220F4B02FB0033588818B12246C3
:10C174001F21FFF73DFA2046FEF7D4FEFFF784FEA9
:10C184000120ADE700800020B9BF010083BD01009C
:10C194001BC0010010C30100C8AA01002BC201008A
:10C1A400308100208C9500202DE9F04F87B00646A1
:10C1B40090460C4600AF71B94FF0FF304FF0FF319D
:10C1C400FFF7DCFC044668B96FF0680528461C37A5
:10C1D400BD46BDE8F08F887AFEF7FCFD524B8342E2
:10C1E40040F09C800122002138460DF0CEFD20460F
:10C1F400FEF7F8FD0C23DFF834B103FB00B08760D1
:10C2040020460AF0C5FF01463046FFF743FE0546C7
:10C2140018B12046FEF786FED8E70EF0B9F9444B74
:10C224001A58444B9A421ED143480DF0AAFD0021EE
:10C2340082464FF4A020FFF74BFF814688B94FF4A4
:10C24400F9733E4A3E493F480AF00DF831463E48EC
:10C254000AF009F889F31188BFF36F8F0323184696
:10C2640002DF5445E0D14FF4A0220023384608F001
:10C274000FF8814698B14FF4FC73304A3349314882
:10C2840009F0F1FF4A463146314809F0ECFF00233A
:10C2940083F31188BFF36F8F0323184602DF204610
:10C2A400FEF7A0FD0C2358431BF80090B9F1000FD2
:10C2B4002DD06D468AB06A46264BC2F81C90C2E95E
:10C2C4000536254B4FF43251136240F202439384F6
:10C2D400224B234842F8103F0BF000F92046AD46AC
:10C2E400A9F10909FEF71EFEB9F1090F0CD8DFE820
:10C2F40009F0180B0B08050B0B0B0B156FF00B0556
:10C3040064E76FF00C0561E76FF004055EE7B8F1D0
:10C31400000F3FF47EAFC8F8004057E76FF01505F3
:10C3240054E76FF06E0551E7CC8500208C95002012
:10C33400080000004093002054810020B9BF010090
:10C344002BC301001BC0010033C301006CC20100F8
:10C3540053C3010098C3010082DA01000500000103
:10C36400C8AA01000022F0B585B0114640F603408A
:10C3740002AFFFF719FF0446002840F0A480FFF73E
:10C38400DDFB214641F203003A1DFFF70DFF044691
:10C39400002840F098807A68B84DD16805F1780398
:10C3A400D1F80100D1F8051003C31046FEF7BAFD19
:10C3B400214641F201003A1DFFF7F6FE044600282B
:10C3C40040F081807868C3685A7885F870205A886C
:10C3D400A5F872201A7985F87120B3F80720A5F81A
:10C3E4007420B3F80530A5F87630FEF79BFD21469E
:10C3F40041F202003A1DFFF7D7FE0446002862D13D
:10C40400D7F804C005F18006DCF80C20531C413237
:10C41400344618685968083303C493422646F7D152
:10C424006046FEF77FFD01F06FF9044600284AD10B
:10C4340095F88A309E0610D40221914A91480BF057
:10C444003EF895F87C30580641D401218E4A8D4837
:10C454000BF035F86FF0120435E04FF0FF304FF079
:10C46400FF31FFF78BFB0646002800F0F980072117
:10C474000C300AF0BEFE1B2303700A23C0F80240EE
:10C484008471447004712246C370314640F63340CF
:10C49400FFF78AFE0446B0B94FF0FF304FF0FF318A
:10C4A400FFF76CFB0646002800F0DA8001210C300F
:10C4B4000AF0AEFE2246314640F63140FFF774FEE4
:10C4C40004460028BDD020460C37BD46F0BD0021EF
:10C4D40042F203003A1DFFF767FE04460028F2D13A
:10C4E4007A686A4BD168D1F80100D1F8051003C30A
:10C4F4001046FEF717FD214642F202003A1DFFF7EF
:10C5040053FE04460028DED17E68F468B4F8013096
:10C514009AB292B1E27882B1A5F80431E378032BA0
:10C5240006D00322022100925648594A0AF0BFFC61
:10C53400E278584811460DF028FC3046FEF7F2FC2C
:10C544001F2395F87C60A5F8203116F0200618D139
:10C554004FF0FF304FF0FF31FFF710FB0446002887
:10C564007ED002210C300AF044FE012321460370E0
:10C574004670324640F66D40FFF716FE044600282A
:10C58400A1D195F89C30190712D5002142F21C0064
:10C594003A1DFFF709FE0446002894D17868C36861
:10C5A400D3F80120D3F80530C5E93823FEF7BAFCE7
:10C5B4004FF0FF304FF0FF31FFF7E0FA0446002858
:10C5C4004ED008210C300AF014FE95F8D83095F8B6
:10C5D400D92013F0020F14BF2F230F2312F0090FD9
:10C5E4004FF0000218BF43F4006303701B0A214696
:10C5F40043708270C270027142718271C27142F2E0
:10C604000100FFF7D1FD044600287FF45CAF95F8E4
:10C614007C30B5F804119A0625D4C9B941F2050055
:10C624003A1DFFF7C1FD044600287FF44CAFB5F86E
:10C6340004317C684BB9E368B3F80120A5F8042100
:10C644009A88144811460DF0A0FB2046FEF76AFCB8
:10C654004FF0FF304FF0FF31FFF790FA0446E8B98E
:10C664006FF068042FE70029F2D101210A4A054836
:10C674000AF025FF6FF0040425E700BF00800020C6
:10C68400B7C30100C8AA0100E5C30100D880002097
:10C6940009C40100088100204FC4010008210C30A6
:10C6A4000AF0A7FD1023037088230022437002269A
:10C6B400202321468270C670027142718271C37157
:10C6C40040F60140FFF770FD044600287FF4FBAEFE
:10C6D40001463A1D4FF60140FFF766FD98B1504AF6
:10C6E400022150480AF0EBFE00F0C8FC0446002882
:10C6F4007FF4E9AE01F050FF044600287FF4E3AE76
:10C70400FFF70CFBDFE67B686E46DC688AB0B4F8A2
:10C714000130032B96BF444A444952F8231002AA1D
:10C72400D3614FF4007342481384424BC2E90501BC
:10C7340042F8103F4FF413513A480AF0CFFEB4F8D0
:10C744000120B546022AB4F8033049D1052B47D855
:10C75400394A52F823106E468AB002AAD3614FF4C4
:10C76400007336481384334BC2E9050142F8103F85
:10C774004FF413512B480AF0B1FEB546637994F88F
:10C7840006C0032B98BF2E4AB4F80760D4F80900FA
:10C794006C468CB094BF52F82310244902AAC2E913
:10C7A400073C4FF40073DFF89CE09385264BC2E905
:10C7B40005E1C2E909604FF4735142F8103F19488A
:10C7C4000AF08CFEA5467868FEF7ACFB00214FF614
:10C7D40002403A1DFFF7E8FC044618B11B4A7FE704
:10C7E4001249B8E77868C368B3F80130A5F8C130D6
:10C7F400FEF798FB95F8C1305B077FF575AF2146CE
:10C804004FF603403A1DFFF7CFFC08B1104A67E723
:10C814007868C3685B7885F8C030FEF783FB63E70C
:10C8240072C40100C8AA010058AE010057C101003A
:10C8340096C401000400000140AE0100AFC4010031
:10C8440030AE0100C7C4010007000001F4C40100B8
:10C854001DC5010010B5FFF785FD034B1B6813B11F
:10C86400BDE81040184710BD1C96002073B52A4D32
:10C874000646D5F86C010DF01CF948B90121274A88
:10C8840027480AF01CFE6FF01204204602B070BD67
:10C894006FF0020105F1D4000AF023FE01210AF031
:10C8A40012FE10EA010434D11E4B1E600A4605F53F
:10C8B40098700DF06AFA05F5AA700DF041FA1A485D
:10C8C4000DF02DFB6FF007034FF4966217491648DD
:10C8D400009407F07BFE164913480DF07BFBD5F856
:10C8E4006C01144983681B689847044630B10346B9
:10C8F4000121114A0A480AF0E4FDC6E726B902B04C
:10C90400BDE87040FFF72EBD05F1C40007F058FEE6
:10C91400BBE76FF07704B8E70080002046C501004C
:10C92400C8AA01001C960020A88F002098AF002000
:10C934005EC50100C5BC000067C50100F7B5144B16
:10C94400054693F99B300C46002B1DDA14B920469A
:10C9540003B0F0BD082C4FF0000142F2180001AA08
:10C96400264628BF0826FFF71FFC0028F0D1019FA8
:10C974003246F968284601310DF059FD3846FEF774
:10C98400D1FA3544A41BE1E76FF08500E0E700BF6E
:10C99400008000202DE9F04F85B00026624BB0F8EE
:10C9A4000190198849F47042914204BF1E805F4B84
:10C9B40000F1040808BF1E78C3780546012B08BFA0
:10C9C4005B4B404600AF14BF002493F86F400AF05D
:10C9D400F4FC414668B34FF0010A07F108000AF07D
:10C9E400E1FCD5F81130C7F80130B5F81530A7F8D7
:10C9F4000530EB78012B31D04046FEF7BBFB6C468B
:10CA040088B06A464B4B4FF4E251C2E905304FF40B
:10CA140000739383484B494842F8103F0AF05EFD87
:10CA24001321A54648460AF0B3FD1437BD46BDE8B8
:10CA3400F08F20460AF02CFE0346006895F804A007
:10CA4400B8609A889B796868BA81BB73B8F8042087
:10CA540098F806303860BA80BB71CAE707F108005D
:10CA6400FEF718FDEB780446012B0AD100F01AFCFE
:10CA740083466FF0800110300AF033FD58460AF007
:10CA840007FF002CB8D02346B5F8012023F8702BFB
:10CA9400BA7BB868B98920679A7100229980B5F881
:10CAA4001730A4F88630B5F81930A4F88C30B5F8EE
:10CAB4001B30A4F88E30EB786272012BE37022D124
:10CAC40087F800A0BA88BB793868A4F87B2084F87A
:10CAD4007D30C4F8770000F0E5FB237A144AC3EBF9
:10CAE400C3039918D358C4F87E308B88A4F88230D5
:10CAF4008B7984F88430D2E9381303F03F03194367
:10CB040001D000F091FD0721204601F0ABF826B1D9
:10CB140001212046667201F0A5F8204601F008FACA
:10CB2400204601F079F880E7C49A0020819B002018
:10CB34000080002083C5010003000001C8AA010091
:10CB440000B5C36889B0187820B109B05DF804EB6A
:10CB5400FEF70EBDB3F801208DF80000ADF80120FA
:10CB6400DA788DF80320B3F80B20ADF81720B3F86A
:10CB74000D20ADF81920B3F80F20ADF81B205A7C16
:10CB84008DF81D20586801901A899B7AADF8082009
:10CB94008DF80A30084B68461A689B88CDF80B203C
:10CBA400ADF80F30CDF81120ADF81530FFF7F2FED7
:10CBB40009B05DF804FB00BFEABC010038B50421EC
:10CBC40004460C300AF045FB034640885D7818B1F2
:10CBD40022461978FEF70CFD35B1044807F01EFB18
:10CBE400BDE83840FFF750B938BD00BF30810020A0
:10CBF400B0B50446032100AF0C300AF02AFBE36809
:10CC04000578197840F63543B0F80100984215D1FB
:10CC14006C468AB06A460F4B0F48C2E905310F4B88
:10CC24004FF41251D36140F2013313840C4B42F898
:10CC3400103F0AF053FCA546BD46B0BD10B12246D4
:10CC4400FEF7D6FC002DF7D0064807F0E7FAFFF709
:10CC54001BF9F1E79FC50100C8AA010082DA0100AF
:10CC64000400000130810020F8B506460024094D77
:10CC7400EF79E3B29F4202D86FF0010007E0294642
:10CC840030460AF0FBFC0735631C08B12046F8BDAA
:10CC94001C46EEE70080002070B51A4E062231468D
:10CCA40005460DF0D9FB38B34FF0FF304FF0FF319C
:10CCB400FEF764FF044608B3062229460C300AF046
:10CCC4009EFA2146002242F20500FFF76DFA04465F
:10CCD40048B110F10D0F04D102210B4A0B480AF0A0
:10CCE400D5FC204670BD33462A6843F86929AA88D2
:10CCF400B280012283F868200024F2E76FF0680410
:10CD0400EFE700BF69800020E2C60100E8AA010045
:10CD140037B504460D4689B1284618490AF0AEFCD9
:10CD240060B9174A2968C4EBC4041151A318AA882E
:10CD34009A80AA799A71002003B030BD68460AF03F
:10CD440023FB0028F8D16846FFF78EFF0028F5DAA8
:10CD54000B4A0098C4EBC40410519DF80610BDF8AA
:10CD64000400A31898809971002DE4D012592A6008
:10CD74009A88AA809B79AB71DDE700BFDDBC010016
:10CD84000080002070B50446B1B9C0B11F490AF053
:10CD940075FCA0B92046FFF767FF00282FDA237837
:10CDA400012B04D1A37903F0C003C02B07D00121C8
:10CDB400174A18480AF06AFC6FF0150070BD164D4A
:10CDC400EB79012B1ED005F1D403D3E8AF3FDB0789
:10CDD40007D4002CF0D020460C490AF04FFC002860
:10CDE400EAD1EE792146731C3046EB71FFF790FFD0
:10CDF40008B93046E2E7EB79013BEB71DEE76FF00F
:10CE04007700DBE76FF00B00D8E700BFDDBC010063
:10CE1400F1C60100E8AA0100008000202DE9F341D9
:10CE2400044640B91A4A02211A480AF02FFC00208D
:10CE340002B0BDE8F081002141F2090001AAFFF728
:10CE4400B3F9054608B1144AEDE7019E0622D6F867
:10CE54000C80124908F1010738460DF0FDFA28B19B
:10CE6400062238460E490DF0F7FA18B93046FEF797
:10CE740059F8DCE7D8F801303046C4F80130BB88F3
:10CE84002570A4F80530FEF74DF80120D0E700BF67
:10CE94001FC70100E8AA010038C70100EABC01006D
:10CEA400E4BC010007B56846FFF7B8FF044BD8712E
:10CEB40018B169460020FFF72BFF03B05DF804FBAF
:10CEC40000800020F0B5304D89B0EC79002C53D1AE
:10CED40095F8C26016F0010610D12C4A02212C48A4
:10CEE4000AF0D4FBEC71162600240127EB79E0B29A
:10CEF40098422CD3002B3FD000203BE06A462146C9
:10CF04004FF60940FFF750F908B1224AE6E7DDF889
:10CF140000C0DCF80C104B7823B96046FEF702F829
:10CF24001D4ADBE78B1C02AA01F11204174618689C
:10CF34005968083303C7A3423A46F7D11868344600
:10CF440038609B886046BB80FDF7ECFFCAE708ABFE
:10CF540006FB003353F8182C33F8143C6946CDF81B
:10CF64000120ADF805308DF80070FFF7D1FE0134D3
:10CF74000028BBD009B0F0BD0021084609B0BDE8C7
:10CF8400F040FFF7FFBE00BF0080002056C701003D
:10CF9400E8AA010082C70100A2C701002DE9F041FF
:10CFA4000D4617461C46064650B14BB10A0303789A
:10CFB40011D56D0708D501212D4A2E480AF066FBCC
:10CFC4006FF01500BDE8F0810AF06FFB0028F9D17D
:10CFD40001232370F6E7E9072ED527480FB1AA06E7
:10CFE40008D4C3EBC302825C012A13D002B92270B5
:10CFF4000020E7E790F8D820510635D5C3EBC302EB
:10D00400825C012A06D002B92270237843F002031D
:10D014002370EDE74FF00108072111FB0381014460
:10D0240030460AF03AFB0028CCD184F80080002F67
:10D03400DED0AB06DCD5E8E76A0712D50E49C3EBB0
:10D04400C3028E5C012E09D1072212FB036319442B
:10D054000AF023FB0028B5D12670EAE7002EE8D1B8
:10D06400FAE70AF022FBB3E76FF08500AAE700BFF6
:10D07400CBC70100E8AA01000080002038B5104D9C
:10D08400EB7913B10024204638BDFFF70BFF0446AB
:10D0940028B10C4A01210C480AF0F8FAF3E7EB79BD
:10D0A400002BEFD1FFF70EFF04460028F1D1681CD6
:10D0B400FFF7F2FD04460028E5D0044AEAE700BF82
:10D0C40000800020EAC70100E8AA010009C80100A5
:10D0D4002DE9F74F0C4600904FF0FF314FF0FF3031
:10D0E4009246FEF74BFD0546002855D020210C3012
:10D0F4000AF07FF82022814600210DF0A5F90026D0
:10D1040009F1010B04EBCA0A0023D4F80080626819
:10D1140093420CD30834A245F6D100222946009844
:10D1240089F8006003B0BDE8F04FFFF73DB898F808
:10D134000120B01C81181F2998F800C015D9BCF132
:10D14400090FC0F11F0201D1002A0CDC0121144A8D
:10D15400144809F099FE2846FDF7E4FE6FF0150027
:10D1640003B0BDE8F08F4FF0080CD7B2791C0BF870
:10D174000610711CC9B20BF801C0D8F804105BFA90
:10D1840080F0019302370DF052F9019B3744FEB24F
:10D19400013308F10808BAE76FF06800E0E700BF60
:10D1A4002CC8010098AA0100072208B503490930D8
:10D1B4000DF052F9003818BF012008BDDDBC010094
:10D1C400F8B5154B067804460D4683F86F60FFF7F3
:10D1D400EBFF70B93046114901F084F8044610B9E8
:10D1E4006FF00B00F8BD052100F03CFD00202C6021
:10D1F400F8E704F109073946304601F0B7F840B9B9
:10D204002078394601F06EF804460028E8D006215B
:10D21400EAE76FF01500E5E700800020D6BC0100C6
:10D22400F8B545680646690535D4046914B115F0A6
:10D23400010330D0194F3078FB7983422BD9C0EBEE
:10D24400C0000722164938440DF006F9A8B115F0BC
:10D25400010306D197F87020082A02D8B2689F2AE1
:10D2640019D915F0300F09D0ACB1EA060AD405F487
:10D274006035B5F5603018BF0120F8BDEB0601D468
:10D28400002CF4D1D6E902239A4204D81F2A02D9E9
:10D29400B3F5804FEBD90020EFE700BF00800020FA
:10D2A400DDBC010000487047188000202DE9F04FD4
:10D2B4009A460023D1F810908DB0B9EB03060546C9
:10D2C400944818BF0126059207930AF018FA0C46F1
:10D2D400410740F113812046FFF7A2FF28B96FF000
:10D2E400150B58460DB0BDE8F08F20460AF0F4F94E
:10D2F40080460028F3D005F1100738460AF0FFF9FC
:10D304000206C0F3C01300F1FC80CDE90933CDF867
:10D314002B30A3686068ADF82030E3686FF4807147
:10D32400ADF822300AF0DCF98DF82D0079480AF0C6
:10D33400E9F92378784A2B7082F86F302846324610
:10D3440061680DF12503FFF729FE83460028C8D143
:10D3540005F10902B9F1000F18D021690868C5F870
:10D364000900888890808979204691710AF05AFAD8
:10D3740062680646D0071BD4920503D4169B0BB9EA
:10D38400022E5DD102238DF8243023E0634B204626
:10D394001968C5F8091099889B79918093710AF0EE
:10D3A40041FA62680646D107E6D58DF8249011E06B
:10D3B40012F0100F0CBF01220422D8468DF824204D
:10D3C40022691168CDF826109188ADF82A10927957
:10D3D4008DF82C204FF0FF304FF0FF31FEF7CEFBDD
:10D3E4008346002800F090800F2208A90C3009F031
:10D3F40006FF0022594642F20600FEF7D5FE002839
:10D4040040F08580B9F1000F20D06368DB072BD48E
:10D41400012128460AF016FA8346002866D0012125
:10D424003F4A404809F030FD079C002C3FF459AFB7
:10D434002046002100F016FC204600F0EDFB50E7EA
:10D444000323DDF858808DF82430C3E7179B524638
:10D4540000932846CDE90186169B05990AF070F9D8
:10D4640083460028D1D03CE7284607A9FFF7A8FE49
:10D4740083460028CCD010F10C0F7FF432AFB9F101
:10D48400000F7FF42EAF626890073FF52AAF636800
:10D4940083F00203C3F3400B0BF001020E21384664
:10D4A4000AF03BF9731E5A425A41082138460AF0E1
:10D4B40034F9B11E4A424A41384609210AF02DF98D
:10D4C40062680A21384602F001020AF026F942464F
:10D4D4000B2138460AF021F962680D213846C2F35F
:10D4E40080020AF01AF94FF0000BFAE6079808B127
:10D4F40000F092FBB9F1000FCED1C8E76FF00A0B30
:10D50400EFE66FF0770BECE66FF0680BE9E6834625
:10D51400E7E600BFD480002000800020DDBC0100CD
:10D5240045C8010098AA010073B51546069A0C4631
:10D53400CDE900322B460A4601461148FFF7B6FEF4
:10D5440021460646002340F201109D4202D1304696
:10D5540002B070BD0A88824204D14A6812B11278BE
:10D56400D20702D401330831EFE7064906480CF02C
:10D57400DCFC4FF470220023034807F001F9E6E7CE
:10D584001880002009D600003080002010B519480A
:10D594000AF07EF96FF4804117480AF0B3F8164890
:10D5A4000AF0ADF803461A06C0F3C01021D512489C
:10D5B4000AF0A5F8430513D50E48FFF7F5FD034619
:10D5C4000E49087E93B905220D4900F007FF044671
:10D5D40030B10021417200F045FB204600F01CFBF5
:10D5E400BDE81040002103480AF02CB9062221317D
:10D5F400EBE710BD18800020288000200080002068
:10D60400D6BC010010B5FFF7C1FF034630B1BDE839
:10D6140010400221024A034809F03FBC10BD00BF7C
:10D6240060C8010098AA010073B533480AF067F88E
:10D6340010F4804F304C38D020460AF060F80306CE
:10D6440033D420460AF05BF846052ED501A9A4F18F
:10D654001000FFF7B5FD40BBA4F11000FFF7A4FDD7
:10D66400024620460AF04BF8C0F3803120460AF007
:10D6740046F881F0010145054FEA41011E4848BFC3
:10D6840041F001010AF03BF8800448BF41F0040175
:10D694001A480DF10303FFF781FC054638B1012157
:10D6A4000346174A174809F0F8FB02B070BD012180
:10D6B40012480AF0C7F8019E28B9304602B0BDE806
:10D6C400704000F0A9BA2946304600F0CBFA6FF456
:10D6D400804109480AF016F80546304600F09CFAE5
:10D6E4006B04E2D5D4E8EF3F43F48043C4E8E23F5F
:10D6F400002ADAD0F6E700BF288000201880002036
:10D704007FC8010098AA010008B50BF0FCFA38B1F3
:10D7140001210346034A044809F0BFFB6FF00400EB
:10D7240008BD00BFBCC80100E0AA010008B505F0AF
:10D7340021F838B101210346034A044809F0ADFB3E
:10D744006FF0040008BD00BFD8C80100E0AA0100C2
:10D7540070B505460B4B1C6844B154F8143C143C9A
:10D7640013B12846697A98476469F5E7064C074E71
:10D77400B44200D370BD236813B12846697A984730
:10D784001834F5E75496002078AA010078AA01001D
:10D7940010B50446FDF726FB044901EB00112046B1
:10D7A40009F05CFEBDE81040FEF76EBB2096002039
:10D7B400002270B50446D1E901560748C1E90122A7
:10D7C4000CF0CAFA3DB1314620462B46BDE8704004
:10D7D4006FF06D02184770BDAC84002070B505462B
:10D7E400002200230E4806F053FDB8B90D4B1C6807
:10D7F40034B154F80C3C143C03B198476469F7E71E
:10D80400094C0A4EB44204D32846BDE8704006F0E1
:10D81400D7BEA36803B198471834F3E770BD00BFBF
:10D82400948400205496002078AA010078AA01006C
:10D834002DE9F843044620270025DFF85080EFF354
:10D84400118387F31288BFF36F8FE16929B983F3DA
:10D854001188BFF36F8FBDE8F883206A0A6881429C
:10D8640008BF2262E26183F31188BFF36F8FD1E9AD
:10D8740001694046C1E901550CF06EFA1EB100225F
:10D8840049462046B047FEF7FFFAD8E7AC840020AB
:10D8940037B504460430D0E8EF3F43F48062C0E873
:10D8A400E12F0029F7D159052BD40AF005F810F41B
:10D8B400803F154D14D095F8D930DA0721D50223CD
:10D8C40000211A462046009109F0A1FE0346C0B18A
:10D8D40001210E4A0E4803B0BDE8304009F0DDBA1C
:10D8E40095F8D8301B07E6D5204609F075FE0346A7
:10D8F40020B10121074A064809F0CFFAA37A072B81
:10D90400D9D003B030BD00BF0080002028C9010079
:10D91400B0AA010007C901000448B0F8043100F5B9
:10D924008470002B08BF0020704700BF00800020D7
:10D9340030B504460CF02CFE0D460D4A0D498BB053
:10D944000858D2F88810884205D120460BB0BDE8AB
:10D954003040FFF76DBF2434214610460CF0B4FA72
:10D964001DB1694620460CF0BFFA0BB030BD00BFB4
:10D97400409300200800000038B5002204468A4283
:10D9840002D10024204638BD012004F1C803D3E8A5
:10D99400EF5F002D04D1C3E8EC0FBCF1000FF6D10A
:10D9A40002D0D0340244EAE7002CEAD0C822002195
:10D9B40020460CF049FD04F1400004490CF0B5FA8E
:10D9C400034904F124000CF063FADBE78DE4000062
:10D9D400C3780100F7B516460D4601210446FFF74A
:10D9E400A7FF012E27D0022E54D123693BB1324820
:10D9F4000121324A09F048FA204609F084FF2561E2
:10DA040021690B8A012B55D9CA681288043292B253
:10DA140093424FD3A078022843D0934241D90121A5
:10DA240000922548264A09F042FA204603B0BDE890
:10DA3400F04009F068BF206940B9224A31461E48C7
:10DA440009F022FA204609F05EFF01E02F8A2FB97F
:10DA5400284603B0BDE8F040FDF764BA0C3009F085
:10DA640014FC87420CD9184A3146134809F00CFAC1
:10DA740000222046216900F061FF00232361E7E7CB
:10DA840020692A8AE9680C3009F0B9FB2846FDF7B9
:10DA940049FAB5E7012133460C4A074809F0FDF974
:10DAA400D0E7002301222046236103B0BDE8F04003
:10DAB40000F044BF03B0F0BDB0AA01003FC90100AB
:10DAC400BFC901005CC901007AC90100A1C90100F4
:10DAD40038B50122044600F1BC03D3E8EF5FC3E884
